{
	"data": {
		"bytecode": {
			"linkReferences": {},
			"object": "6080604052600060085560006009556000600a556000600e60006101000a81548160ff0219169083151502179055503480156200003b57600080fd5b5060405162004ab538038062004ab5833981810160405281019062000061919062000208565b62000081620000756200012560201b60201c565b6200012d60201b60201c565b60008060146101000a81548160ff02191690831515021790555081600160006101000a81548173ffffffffffffffffffffffffffffffffffffffff021916908373ffffffffffffffffffffffffffffffffffffffff16021790555080600260006101000a81548173ffffffffffffffffffffffffffffffffffffffff021916908373ffffffffffffffffffffffffffffffffffffffff1602179055505050620002a2565b600033905090565b60008060009054906101000a900473ffffffffffffffffffffffffffffffffffffffff169050816000806101000a81548173ffffffffffffffffffffffffffffffffffffffff021916908373ffffffffffffffffffffffffffffffffffffffff1602179055508173ffffffffffffffffffffffffffffffffffffffff168173ffffffffffffffffffffffffffffffffffffffff167f8be0079c531659141344cd1fd0a4f28419497f9722a3daafe3b4186f6b6457e060405160405180910390a35050565b600081519050620002028162000288565b92915050565b6000806040838503121562000222576200022162000283565b5b60006200023285828601620001f1565b92505060206200024585828601620001f1565b9150509250929050565b60006200025c8262000263565b9050919050565b600073ffffffffffffffffffffffffffffffffffffffff82169050919050565b600080fd5b62000293816200024f565b81146200029f57600080fd5b50565b61480380620002b26000396000f3fe608060405234801561001057600080fd5b50600436106101fb5760003560e01c80636a3ef0571161011a57806388ff498b116100ad578063b884f74b1161007c578063b884f74b146105ce578063c0c472c0146105fe578063db796b891461061c578063dd55fcb31461063a578063f2fde38b1461066c576101fb565b806388ff498b146105325780638da5cb5b14610550578063a1176c9d1461056e578063a619143d1461059e576101fb565b8063715018a6116100e9578063715018a6146104d257806376531008146104dc57806376fbe719146104f857806381d449c114610516576101fb565b80636a3ef057146104385780636b5e5864146104545780636f234fb5146104845780636f257875146104b4576101fb565b806337a386b911610192578063512114361161016157806351211436146103c05780635c975abb146103de5780635d4aeab3146103fc578063607af3971461041a576101fb565b806337a386b914610322578063387f8bdd1461034057806339db714f146103725780633c989e6a14610390576101fb565b806323825a5a116101ce57806323825a5a146102865780632435d651146102b657806328b3e697146102d45780632f7282c8146102f2576101fb565b806313324aa914610200578063150b7a021461021c57806316c38b3c1461024c578063201ef2a414610268575b600080fd5b61021a6004803603810190610215919061399b565b610688565b005b61023660048036038101906102319190613873565b61096a565b6040516102439190613ef6565b60405180910390f35b61026660048036038101906102619190613a48565b6109ed565b005b610270610a88565b60405161027d919061414c565b60405180910390f35b6102a0600480360381019061029b919061395b565b610a8d565b6040516102ad91906140c3565b60405180910390f35b6102be610af3565b6040516102cb91906140c3565b60405180910390f35b6102dc610b01565b6040516102e991906140c3565b60405180910390f35b61030c60048036038101906103079190613819565b610b06565b60405161031991906140c3565b60405180910390f35b61032a610b52565b60405161033791906140c3565b60405180910390f35b61035a60048036038101906103559190613acf565b610b59565b6040516103699392919061408c565b60405180910390f35b61037a610bc7565b6040516103879190613edb565b60405180910390f35b6103aa60048036038101906103a59190613acf565b610bda565b6040516103b79190613dfa565b60405180910390f35b6103c8610d0a565b6040516103d591906140c3565b60405180910390f35b6103e6610d10565b6040516103f39190613edb565b60405180910390f35b610404610d26565b604051610411919061414c565b60405180910390f35b610422610d3b565b60405161042f91906140c3565b60405180910390f35b610452600480360381019061044d91906139fb565b610d41565b005b61046e6004803603810190610469919061395b565b611682565b60405161047b91906140c3565b60405180910390f35b61049e60048036038101906104999190613acf565b6116b3565b6040516104ab91906140c3565b60405180910390f35b6104bc6116cb565b6040516104c991906140c3565b60405180910390f35b6104da6116d1565b005b6104f660048036038101906104f19190613a48565b611759565b005b6105006117f2565b60405161050d91906140c3565b60405180910390f35b610530600480360381019061052b91906138fb565b6117f8565b005b61053a611cda565b60405161054791906140c3565b60405180910390f35b610558611cea565b6040516105659190613dfa565b60405180910390f35b6105886004803603810190610583919061395b565b611d13565b60405161059591906140c3565b60405180910390f35b6105b860048036038101906105b39190613819565b611d79565b6040516105c591906140c3565b60405180910390f35b6105e860048036038101906105e3919061395b565b611dc5565b6040516105f591906140c3565b60405180910390f35b610606611df6565b60405161061391906140c3565b60405180910390f35b610624611dfc565b60405161063191906140c3565b60405180910390f35b610654600480360381019061064f9190613afc565b611e02565b6040516106639392919061408c565b60405180910390f35b61068660048036038101906106819190613819565b611e89565b005b610690610d10565b156106d0576040517f08c379a00000000000000000000000000000000000000000000000000000000081526004016106c790613fd1565b60405180910390fd5b6b07c13bc4b2c133c560000000600b541015610744576201518069021e19e0c9bab2400000600c54600d5442610706919061426a565b6107109190614210565b61071a9190614210565b61072491906141df565b600b60008282546107359190614189565b9250508190555042600d819055505b6000805b848490508110156108c657600160009054906101000a900473ffffffffffffffffffffffffffffffffffffffff1673ffffffffffffffffffffffffffffffffffffffff1663af1af34a8686848181106107a4576107a36144e4565b5b90506020020160208101906107b99190613aa2565b6040518263ffffffff1660e01b81526004016107d59190614071565b60206040518083038186803b1580156107ed57600080fd5b505afa158015610801573d6000803e3d6000fd5b505050506040513d601f19601f820116820180604052508101906108259190613a75565b6108705761085e85858381811061083f5761083e6144e4565b5b90506020020160208101906108549190613aa2565b61ffff1684611f81565b826108699190614189565b91506108b3565b6108a5858583818110610886576108856144e4565b5b905060200201602081019061089b9190613aa2565b61ffff1684612607565b826108b09190614189565b91505b80806108be906143a5565b915050610748565b5060008114156108d65750610965565b600160009054906101000a900473ffffffffffffffffffffffffffffffffffffffff1673ffffffffffffffffffffffffffffffffffffffff1663c2fb2108826040518263ffffffff1660e01b815260040161093191906140c3565b600060405180830381600087803b15801561094b57600080fd5b505af115801561095f573d6000803e3d6000fd5b50505050505b505050565b60008073ffffffffffffffffffffffffffffffffffffffff168573ffffffffffffffffffffffffffffffffffffffff16146109da576040517f08c379a00000000000000000000000000000000000000000000000000000000081526004016109d190613f91565b60405180910390fd5b63150b7a0260e01b905095945050505050565b6109f5612f07565b73ffffffffffffffffffffffffffffffffffffffff16610a13611cea565b73ffffffffffffffffffffffffffffffffffffffff1614610a69576040517f08c379a0000000000000000000000000000000000000000000000000000000008152600401610a6090614011565b60405180910390fd5b8015610a7c57610a77612f0f565b610a85565b610a84612fb2565b5b50565b600881565b6000600360008473ffffffffffffffffffffffffffffffffffffffff1673ffffffffffffffffffffffffffffffffffffffff1681526020019081526020016000208281548110610ae057610adf6144e4565b5b9060005260206000200154905092915050565b69021e19e0c9bab240000081565b601481565b6000600460008373ffffffffffffffffffffffffffffffffffffffff1673ffffffffffffffffffffffffffffffffffffffff168152602001908152602001600020805490509050919050565b6202a30081565b60056020528060005260406000206000915090508060000160009054906101000a900461ffff16908060000160029054906101000a900469ffffffffffffffffffff169080600001600c9054906101000a900473ffffffffffffffffffffffffffffffffffffffff16905083565b600e60009054906101000a900460ff1681565b6000806008541415610bef5760009050610d05565b600060085463ffffffff8416610c059190614426565b90506000602084901c9350600060036008610c20919061429e565b60ff1690505b600860ff168111610cfd57806006600083815260200190815260200160002080549050610c539190614210565b82610c5e9190614189565b9150818310610c6c57610cea565b60066000828152602001908152602001600020600660008381526020019081526020016000208054905086610ca19190614426565b81548110610cb257610cb16144e4565b5b90600052602060002001600001600c9054906101000a900473ffffffffffffffffffffffffffffffffffffffff169350505050610d05565b8080610cf5906143a5565b915050610c26565b506000925050505b919050565b600b5481565b60008060149054906101000a900460ff16905090565b600060056008610d36919061429e565b905090565b600d5481565b600e60009054906101000a900460ff16610d90576040517f08c379a0000000000000000000000000000000000000000000000000000000008152600401610d8790613f71565b60405180910390fd5b6000610d9a613652565b610da2613652565b600080600090505b8686905081101561167957868682818110610dc857610dc76144e4565b5b905060200201359450600160009054906101000a900473ffffffffffffffffffffffffffffffffffffffff1673ffffffffffffffffffffffffffffffffffffffff1663af1af34a866040518263ffffffff1660e01b8152600401610e2c91906140c3565b60206040518083038186803b158015610e4457600080fd5b505afa158015610e58573d6000803e3d6000fd5b505050506040513d601f19601f82011682018060405250810190610e7c9190613a75565b61112a57600560008681526020019081526020016000206040518060600160405290816000820160009054906101000a900461ffff1661ffff1661ffff1681526020016000820160029054906101000a900469ffffffffffffffffffff1669ffffffffffffffffffff1669ffffffffffffffffffff16815260200160008201600c9054906101000a900473ffffffffffffffffffffffffffffffffffffffff1673ffffffffffffffffffffffffffffffffffffffff1673ffffffffffffffffffffffffffffffffffffffff16815250509350610f56612f07565b73ffffffffffffffffffffffffffffffffffffffff16846040015173ffffffffffffffffffffffffffffffffffffffff1614610fc7576040517f08c379a0000000000000000000000000000000000000000000000000000000008152600401610fbe90613fb1565b60405180910390fd5b600160009054906101000a900473ffffffffffffffffffffffffffffffffffffffff1673ffffffffffffffffffffffffffffffffffffffff1663b88d4fde3061100e612f07565b886040518463ffffffff1660e01b815260040161102d93929190613e4c565b600060405180830381600087803b15801561104757600080fd5b505af115801561105b573d6000803e3d6000fd5b5050505060056000868152602001908152602001600020600080820160006101000a81549061ffff02191690556000820160026101000a81549069ffffffffffffffffffff021916905560008201600c6101000a81549073ffffffffffffffffffffffffffffffffffffffff021916905550506001600c60008282546110e1919061426a565b925050819055507fe9d8194f830c159f3fa36a3722d86930569b5a9ce5265dda89fd43f488076165856000600160405161111d939291906140de565b60405180910390a1611666565b611132610d26565b60ff1691506006600083815260200190815260200160002060076000878152602001908152602001600020548154811061116f5761116e6144e4565b5b906000526020600020016040518060600160405290816000820160009054906101000a900461ffff1661ffff1661ffff1681526020016000820160029054906101000a900469ffffffffffffffffffff1669ffffffffffffffffffff1669ffffffffffffffffffff16815260200160008201600c9054906101000a900473ffffffffffffffffffffffffffffffffffffffff1673ffffffffffffffffffffffffffffffffffffffff1673ffffffffffffffffffffffffffffffffffffffff1681525050935061123c612f07565b73ffffffffffffffffffffffffffffffffffffffff16846040015173ffffffffffffffffffffffffffffffffffffffff16146112ad576040517f08c379a00000000000000000000000000000000000000000000000000000000081526004016112a490613fb1565b60405180910390fd5b81600860008282546112bf919061426a565b92505081905550600160009054906101000a900473ffffffffffffffffffffffffffffffffffffffff1673ffffffffffffffffffffffffffffffffffffffff1663b88d4fde3061130d612f07565b886040518463ffffffff1660e01b815260040161132c93929190613e4c565b600060405180830381600087803b15801561134657600080fd5b505af115801561135a573d6000803e3d6000fd5b505050506006600083815260200190815260200160002060016006600085815260200190815260200160002080549050611394919061426a565b815481106113a5576113a46144e4565b5b906000526020600020016040518060600160405290816000820160009054906101000a900461ffff1661ffff1661ffff1681526020016000820160029054906101000a900469ffffffffffffffffffff1669ffffffffffffffffffff1669ffffffffffffffffffff16815260200160008201600c9054906101000a900473ffffffffffffffffffffffffffffffffffffffff1673ffffffffffffffffffffffffffffffffffffffff1673ffffffffffffffffffffffffffffffffffffffff1681525050925082600660008481526020019081526020016000206007600088815260200190815260200160002054815481106114a3576114a26144e4565b5b9060005260206000200160008201518160000160006101000a81548161ffff021916908361ffff16021790555060208201518160000160026101000a81548169ffffffffffffffffffff021916908369ffffffffffffffffffff160217905550604082015181600001600c6101000a81548173ffffffffffffffffffffffffffffffffffffffff021916908373ffffffffffffffffffffffffffffffffffffffff160217905550905050600760008681526020019081526020016000205460076000856000015161ffff16815260200190815260200160002081905550600660008381526020019081526020016000208054806115a3576115a26144b5565b5b60019003818190600052602060002001600080820160006101000a81549061ffff02191690556000820160026101000a81549069ffffffffffffffffffff021916905560008201600c6101000a81549073ffffffffffffffffffffffffffffffffffffffff02191690555050905560076000868152602001908152602001600020600090557ff65d435564b020fcb9d6f56608c9333a6cf42914eeddfbac41a764da73667de1856000600160405161165d939291906140de565b60405180910390a15b8080611671906143a5565b915050610daa565b50505050505050565b6004602052816000526040600020818154811061169e57600080fd5b90600052602060002001600091509150505481565b60076020528060005260406000206000915090505481565b60085481565b6116d9612f07565b73ffffffffffffffffffffffffffffffffffffffff166116f7611cea565b73ffffffffffffffffffffffffffffffffffffffff161461174d576040517f08c379a000000000000000000000000000000000000000000000000000000000815260040161174490614011565b60405180910390fd5b6117576000613053565b565b611761612f07565b73ffffffffffffffffffffffffffffffffffffffff1661177f611cea565b73ffffffffffffffffffffffffffffffffffffffff16146117d5576040517f08c379a00000000000000000000000000000000000000000000000000000000081526004016117cc90614011565b60405180910390fd5b80600e60006101000a81548160ff02191690831515021790555050565b600c5481565b611800612f07565b73ffffffffffffffffffffffffffffffffffffffff168373ffffffffffffffffffffffffffffffffffffffff16148061188d5750600160009054906101000a900473ffffffffffffffffffffffffffffffffffffffff1673ffffffffffffffffffffffffffffffffffffffff16611875612f07565b73ffffffffffffffffffffffffffffffffffffffff16145b6118cc576040517f08c379a00000000000000000000000000000000000000000000000000000000081526004016118c390614031565b60405180910390fd5b60005b82829050811015611cd457600160009054906101000a900473ffffffffffffffffffffffffffffffffffffffff1673ffffffffffffffffffffffffffffffffffffffff1661191b612f07565b73ffffffffffffffffffffffffffffffffffffffff1614611b405761193e612f07565b73ffffffffffffffffffffffffffffffffffffffff16600160009054906101000a900473ffffffffffffffffffffffffffffffffffffffff1673ffffffffffffffffffffffffffffffffffffffff16636352211e8585858181106119a5576119a46144e4565b5b90506020020160208101906119ba9190613aa2565b6040518263ffffffff1660e01b81526004016119d69190614071565b60206040518083038186803b1580156119ee57600080fd5b505afa158015611a02573d6000803e3d6000fd5b505050506040513d601f19601f82011682018060405250810190611a269190613846565b73ffffffffffffffffffffffffffffffffffffffff1614611a7c576040517f08c379a0000000000000000000000000000000000000000000000000000000008152600401611a7390614051565b60405180910390fd5b600160009054906101000a900473ffffffffffffffffffffffffffffffffffffffff1673ffffffffffffffffffffffffffffffffffffffff166323b872dd611ac2612f07565b30868686818110611ad657611ad56144e4565b5b9050602002016020810190611aeb9190613aa2565b6040518463ffffffff1660e01b8152600401611b0993929190613e15565b600060405180830381600087803b158015611b2357600080fd5b505af1158015611b37573d6000803e3d6000fd5b50505050611b7a565b6000838383818110611b5557611b546144e4565b5b9050602002016020810190611b6a9190613aa2565b61ffff161415611b7957611cc1565b5b600160009054906101000a900473ffffffffffffffffffffffffffffffffffffffff1673ffffffffffffffffffffffffffffffffffffffff1663af1af34a848484818110611bcb57611bca6144e4565b5b9050602002016020810190611be09190613aa2565b6040518263ffffffff1660e01b8152600401611bfc9190614071565b60206040518083038186803b158015611c1457600080fd5b505afa158015611c28573d6000803e3d6000fd5b505050506040513d601f19601f82011682018060405250810190611c4c9190613a75565b611c8a57611c8584848484818110611c6757611c666144e4565b5b9050602002016020810190611c7c9190613aa2565b61ffff16613117565b611cc0565b611cbf84848484818110611ca157611ca06144e4565b5b9050602002016020810190611cb69190613aa2565b61ffff16613389565b5b5b8080611ccc906143a5565b9150506118cf565b50505050565b6b07c13bc4b2c133c56000000081565b60008060009054906101000a900473ffffffffffffffffffffffffffffffffffffffff16905090565b6000600460008473ffffffffffffffffffffffffffffffffffffffff1673ffffffffffffffffffffffffffffffffffffffff1681526020019081526020016000208281548110611d6657611d656144e4565b5b9060005260206000200154905092915050565b6000600360008373ffffffffffffffffffffffffffffffffffffffff1673ffffffffffffffffffffffffffffffffffffffff168152602001908152602001600020805490509050919050565b60036020528160005260406000208181548110611de157600080fd5b90600052602060002001600091509150505481565b60095481565b600a5481565b60066020528160005260406000208181548110611e1e57600080fd5b90600052602060002001600091509150508060000160009054906101000a900461ffff16908060000160029054906101000a900469ffffffffffffffffffff169080600001600c9054906101000a900473ffffffffffffffffffffffffffffffffffffffff16905083565b611e91612f07565b73ffffffffffffffffffffffffffffffffffffffff16611eaf611cea565b73ffffffffffffffffffffffffffffffffffffffff1614611f05576040517f08c379a0000000000000000000000000000000000000000000000000000000008152600401611efc90614011565b60405180910390fd5b600073ffffffffffffffffffffffffffffffffffffffff168173ffffffffffffffffffffffffffffffffffffffff161415611f75576040517f08c379a0000000000000000000000000000000000000000000000000000000008152600401611f6c90613f51565b60405180910390fd5b611f7e81613053565b50565b600080600560008581526020019081526020016000206040518060600160405290816000820160009054906101000a900461ffff1661ffff1661ffff1681526020016000820160029054906101000a900469ffffffffffffffffffff1669ffffffffffffffffffff1669ffffffffffffffffffff16815260200160008201600c9054906101000a900473ffffffffffffffffffffffffffffffffffffffff1673ffffffffffffffffffffffffffffffffffffffff1673ffffffffffffffffffffffffffffffffffffffff1681525050905061205a612f07565b73ffffffffffffffffffffffffffffffffffffffff16816040015173ffffffffffffffffffffffffffffffffffffffff16146120cb576040517f08c379a00000000000000000000000000000000000000000000000000000000081526004016120c290613fb1565b60405180910390fd5b8280156120f557506202a300816020015169ffffffffffffffffffff16426120f3919061426a565b105b15612135576040517f08c379a000000000000000000000000000000000000000000000000000000000815260040161212c90613ff1565b60405180910390fd5b6b07c13bc4b2c133c560000000600b541015612191576201518069021e19e0c9bab2400000826020015169ffffffffffffffffffff1642612176919061426a565b6121809190614210565b61218a91906141df565b91506121f9565b600d54816020015169ffffffffffffffffffff1611156121b457600091506121f8565b6201518069021e19e0c9bab2400000826020015169ffffffffffffffffffff16600d546121e1919061426a565b6121eb9190614210565b6121f591906141df565b91505b5b82156124815760018061220b866135a4565b1614156122205761221b826135ea565b600091505b600160009054906101000a900473ffffffffffffffffffffffffffffffffffffffff1673ffffffffffffffffffffffffffffffffffffffff1663b88d4fde30612267612f07565b876040518463ffffffff1660e01b815260040161228693929190613e4c565b600060405180830381600087803b1580156122a057600080fd5b505af11580156122b4573d6000803e3d6000fd5b5050505060056000858152602001908152602001600020600080820160006101000a81549061ffff02191690556000820160026101000a81549069ffffffffffffffffffff021916905560008201600c6101000a81549073ffffffffffffffffffffffffffffffffffffffff021916905550506001600c600082825461233a919061426a565b9250508190555060005b60036000612350612f07565b73ffffffffffffffffffffffffffffffffffffffff1673ffffffffffffffffffffffffffffffffffffffff1681526020019081526020016000208054905081101561247b5784600360006123a2612f07565b73ffffffffffffffffffffffffffffffffffffffff1673ffffffffffffffffffffffffffffffffffffffff16815260200190815260200160002082815481106123ee576123ed6144e4565b5b906000526020600020015414156124685760006003600061240d612f07565b73ffffffffffffffffffffffffffffffffffffffff1673ffffffffffffffffffffffffffffffffffffffff1681526020019081526020016000208281548110612459576124586144e4565b5b90600052602060002001819055505b8080612473906143a5565b915050612344565b506125c5565b6124a260646014846124939190614210565b61249d91906141df565b6135ea565b6064601460646124b2919061426a565b836124bd9190614210565b6124c791906141df565b915060405180606001604052808561ffff1681526020014269ffffffffffffffffffff1681526020016124f8612f07565b73ffffffffffffffffffffffffffffffffffffffff168152506005600086815260200190815260200160002060008201518160000160006101000a81548161ffff021916908361ffff16021790555060208201518160000160026101000a81548169ffffffffffffffffffff021916908369ffffffffffffffffffff160217905550604082015181600001600c6101000a81548173ffffffffffffffffffffffffffffffffffffffff021916908373ffffffffffffffffffffffffffffffffffffffff1602179055509050505b7fe9d8194f830c159f3fa36a3722d86930569b5a9ce5265dda89fd43f4880761658483856040516125f893929190614115565b60405180910390a15092915050565b60003073ffffffffffffffffffffffffffffffffffffffff16600160009054906101000a900473ffffffffffffffffffffffffffffffffffffffff1673ffffffffffffffffffffffffffffffffffffffff16636352211e856040518263ffffffff1660e01b815260040161267b91906140c3565b60206040518083038186803b15801561269357600080fd5b505afa1580156126a7573d6000803e3d6000fd5b505050506040513d601f19601f820116820180604052508101906126cb9190613846565b73ffffffffffffffffffffffffffffffffffffffff1614612721576040517f08c379a000000000000000000000000000000000000000000000000000000000815260040161271890613f31565b60405180910390fd5b600061272b610d26565b60ff16905060006006600083815260200190815260200160002060076000878152602001908152602001600020548154811061276a576127696144e4565b5b906000526020600020016040518060600160405290816000820160009054906101000a900461ffff1661ffff1661ffff1681526020016000820160029054906101000a900469ffffffffffffffffffff1669ffffffffffffffffffff1669ffffffffffffffffffff16815260200160008201600c9054906101000a900473ffffffffffffffffffffffffffffffffffffffff1673ffffffffffffffffffffffffffffffffffffffff1673ffffffffffffffffffffffffffffffffffffffff16815250509050612837612f07565b73ffffffffffffffffffffffffffffffffffffffff16816040015173ffffffffffffffffffffffffffffffffffffffff16146128a8576040517f08c379a000000000000000000000000000000000000000000000000000000000815260040161289f90613fb1565b60405180910390fd5b806020015169ffffffffffffffffffff16600a546128c6919061426a565b826128d19190614210565b92508315612d975781600860008282546128eb919061426a565b92505081905550600160009054906101000a900473ffffffffffffffffffffffffffffffffffffffff1673ffffffffffffffffffffffffffffffffffffffff1663b88d4fde30612939612f07565b886040518463ffffffff1660e01b815260040161295893929190613e4c565b600060405180830381600087803b15801561297257600080fd5b505af1158015612986573d6000803e3d6000fd5b50505050600060066000848152602001908152602001600020600160066000868152602001908152602001600020805490506129c2919061426a565b815481106129d3576129d26144e4565b5b906000526020600020016040518060600160405290816000820160009054906101000a900461ffff1661ffff1661ffff1681526020016000820160029054906101000a900469ffffffffffffffffffff1669ffffffffffffffffffff1669ffffffffffffffffffff16815260200160008201600c9054906101000a900473ffffffffffffffffffffffffffffffffffffffff1673ffffffffffffffffffffffffffffffffffffffff1673ffffffffffffffffffffffffffffffffffffffff168152505090508060066000858152602001908152602001600020600760008981526020019081526020016000205481548110612ad157612ad06144e4565b5b9060005260206000200160008201518160000160006101000a81548161ffff021916908361ffff16021790555060208201518160000160026101000a81548169ffffffffffffffffffff021916908369ffffffffffffffffffff160217905550604082015181600001600c6101000a81548173ffffffffffffffffffffffffffffffffffffffff021916908373ffffffffffffffffffffffffffffffffffffffff160217905550905050600760008781526020019081526020016000205460076000836000015161ffff1681526020019081526020016000208190555060066000848152602001908152602001600020805480612bd157612bd06144b5565b5b60019003818190600052602060002001600080820160006101000a81549061ffff02191690556000820160026101000a81549069ffffffffffffffffffff021916905560008201600c6101000a81549073ffffffffffffffffffffffffffffffffffffffff02191690555050905560005b60046000612c4e612f07565b73ffffffffffffffffffffffffffffffffffffffff1673ffffffffffffffffffffffffffffffffffffffff16815260200190815260200160002080549050811015612d79578660046000612ca0612f07565b73ffffffffffffffffffffffffffffffffffffffff1673ffffffffffffffffffffffffffffffffffffffff1681526020019081526020016000208281548110612cec57612ceb6144e4565b5b90600052602060002001541415612d6657600060046000612d0b612f07565b73ffffffffffffffffffffffffffffffffffffffff1673ffffffffffffffffffffffffffffffffffffffff1681526020019081526020016000208281548110612d5757612d566144e4565b5b90600052602060002001819055505b8080612d71906143a5565b915050612c42565b50600760008781526020019081526020016000206000905550612ec4565b60405180606001604052808661ffff168152602001600a5469ffffffffffffffffffff168152602001612dc8612f07565b73ffffffffffffffffffffffffffffffffffffffff1681525060066000848152602001908152602001600020600760008881526020019081526020016000205481548110612e1957612e186144e4565b5b9060005260206000200160008201518160000160006101000a81548161ffff021916908361ffff16021790555060208201518160000160026101000a81548169ffffffffffffffffffff021916908369ffffffffffffffffffff160217905550604082015181600001600c6101000a81548173ffffffffffffffffffffffffffffffffffffffff021916908373ffffffffffffffffffffffffffffffffffffffff1602179055509050505b7ff65d435564b020fcb9d6f56608c9333a6cf42914eeddfbac41a764da73667de1858486604051612ef793929190614115565b60405180910390a1505092915050565b600033905090565b612f17610d10565b15612f57576040517f08c379a0000000000000000000000000000000000000000000000000000000008152600401612f4e90613fd1565b60405180910390fd5b6001600060146101000a81548160ff0219169083151502179055507f62e78cea01bee320cd4e420270b5ea74000d11b0c9f74754ebdbfc544b05a258612f9b612f07565b604051612fa89190613dfa565b60405180910390a1565b612fba610d10565b612ff9576040517f08c379a0000000000000000000000000000000000000000000000000000000008152600401612ff090613f11565b60405180910390fd5b60008060146101000a81548160ff0219169083151502179055507f5db9ee0a495bf2e6ff9c91a7834c1ba4fdd244a5e8aa4e537bd38aeae4b073aa61303c612f07565b6040516130499190613dfa565b60405180910390a1565b60008060009054906101000a900473ffffffffffffffffffffffffffffffffffffffff169050816000806101000a81548173ffffffffffffffffffffffffffffffffffffffff021916908373ffffffffffffffffffffffffffffffffffffffff1602179055508173ffffffffffffffffffffffffffffffffffffffff168173ffffffffffffffffffffffffffffffffffffffff167f8be0079c531659141344cd1fd0a4f28419497f9722a3daafe3b4186f6b6457e060405160405180910390a35050565b61311f610d10565b1561315f576040517f08c379a000000000000000000000000000000000000000000000000000000000815260040161315690613fd1565b60405180910390fd5b6b07c13bc4b2c133c560000000600b5410156131d3576201518069021e19e0c9bab2400000600c54600d5442613195919061426a565b61319f9190614210565b6131a99190614210565b6131b391906141df565b600b60008282546131c49190614189565b9250508190555042600d819055505b60405180606001604052808261ffff1681526020014269ffffffffffffffffffff1681526020018373ffffffffffffffffffffffffffffffffffffffff168152506005600083815260200190815260200160002060008201518160000160006101000a81548161ffff021916908361ffff16021790555060208201518160000160026101000a81548169ffffffffffffffffffff021916908369ffffffffffffffffffff160217905550604082015181600001600c6101000a81548173ffffffffffffffffffffffffffffffffffffffff021916908373ffffffffffffffffffffffffffffffffffffffff160217905550905050600360008373ffffffffffffffffffffffffffffffffffffffff1673ffffffffffffffffffffffffffffffffffffffff1681526020019081526020016000208190806001815401808255809150506001900390600052602060002001600090919091909150556001600c60008282546133409190614189565b925050819055507fb7a59769c6f07375fe9190017d91341aa17c7989a3069cc04e310cda369ee78c828242600060405161337d9493929190613e96565b60405180910390a15050565b6000613393610d26565b60ff16905080600860008282546133aa9190614189565b92505081905550600660008281526020019081526020016000208054905060076000848152602001908152602001600020819055506006600082815260200190815260200160002060405180606001604052808461ffff168152602001600a5469ffffffffffffffffffff1681526020018573ffffffffffffffffffffffffffffffffffffffff168152509080600181540180825580915050600190039060005260206000200160009091909190915060008201518160000160006101000a81548161ffff021916908361ffff16021790555060208201518160000160026101000a81548169ffffffffffffffffffff021916908369ffffffffffffffffffff160217905550604082015181600001600c6101000a81548173ffffffffffffffffffffffffffffffffffffffff021916908373ffffffffffffffffffffffffffffffffffffffff1602179055505050600460008473ffffffffffffffffffffffffffffffffffffffff1673ffffffffffffffffffffffffffffffffffffffff1681526020019081526020016000208290806001815401808255809150506001900390600052602060002001600090919091909150557fb7a59769c6f07375fe9190017d91341aa17c7989a3069cc04e310cda369ee78c8383600a5460016040516135979493929190613e96565b60405180910390a1505050565b6000326001436135b4919061426a565b4042846040516020016135ca9493929190613dac565b6040516020818303038152906040528051906020012060001c9050919050565b600060085414156136135780600960008282546136079190614189565b9250508190555061364f565b600854600954826136249190614189565b61362e91906141df565b600a600082825461363f9190614189565b9250508190555060006009819055505b50565b6040518060600160405280600061ffff168152602001600069ffffffffffffffffffff168152602001600073ffffffffffffffffffffffffffffffffffffffff1681525090565b6000813590506136a881614771565b92915050565b6000815190506136bd81614771565b92915050565b60008083601f8401126136d9576136d8614518565b5b8235905067ffffffffffffffff8111156136f6576136f5614513565b5b6020830191508360208202830111156137125761371161451d565b5b9250929050565b60008083601f84011261372f5761372e614518565b5b8235905067ffffffffffffffff81111561374c5761374b614513565b5b6020830191508360208202830111156137685761376761451d565b5b9250929050565b60008135905061377e81614788565b92915050565b60008151905061379381614788565b92915050565b60008083601f8401126137af576137ae614518565b5b8235905067ffffffffffffffff8111156137cc576137cb614513565b5b6020830191508360018202830111156137e8576137e761451d565b5b9250929050565b6000813590506137fe8161479f565b92915050565b600081359050613813816147b6565b92915050565b60006020828403121561382f5761382e614527565b5b600061383d84828501613699565b91505092915050565b60006020828403121561385c5761385b614527565b5b600061386a848285016136ae565b91505092915050565b60008060008060006080868803121561388f5761388e614527565b5b600061389d88828901613699565b95505060206138ae88828901613699565b94505060406138bf88828901613804565b935050606086013567ffffffffffffffff8111156138e0576138df614522565b5b6138ec88828901613799565b92509250509295509295909350565b60008060006040848603121561391457613913614527565b5b600061392286828701613699565b935050602084013567ffffffffffffffff81111561394357613942614522565b5b61394f868287016136c3565b92509250509250925092565b6000806040838503121561397257613971614527565b5b600061398085828601613699565b925050602061399185828601613804565b9150509250929050565b6000806000604084860312156139b4576139b3614527565b5b600084013567ffffffffffffffff8111156139d2576139d1614522565b5b6139de868287016136c3565b935093505060206139f18682870161376f565b9150509250925092565b60008060208385031215613a1257613a11614527565b5b600083013567ffffffffffffffff811115613a3057613a2f614522565b5b613a3c85828601613719565b92509250509250929050565b600060208284031215613a5e57613a5d614527565b5b6000613a6c8482850161376f565b91505092915050565b600060208284031215613a8b57613a8a614527565b5b6000613a9984828501613784565b91505092915050565b600060208284031215613ab857613ab7614527565b5b6000613ac6848285016137ef565b91505092915050565b600060208284031215613ae557613ae4614527565b5b6000613af384828501613804565b91505092915050565b60008060408385031215613b1357613b12614527565b5b6000613b2185828601613804565b9250506020613b3285828601613804565b9150509250929050565b613b45816142d2565b82525050565b613b5c613b57826142d2565b6143ee565b82525050565b613b6b816142e4565b82525050565b613b82613b7d826142f0565b614400565b82525050565b613b91816142fa565b82525050565b613ba081614381565b82525050565b6000613bb3601483614178565b9150613bbe82614539565b602082019050919050565b6000613bd6601783614178565b9150613be182614562565b602082019050919050565b6000613bf9602683614178565b9150613c048261458b565b604082019050919050565b6000613c1c600f83614178565b9150613c27826145da565b602082019050919050565b6000613c3f602383614178565b9150613c4a82614603565b604082019050919050565b6000613c62601283614178565b9150613c6d82614652565b602082019050919050565b6000613c85601083614178565b9150613c908261467b565b602082019050919050565b6000613ca8602483614178565b9150613cb3826146a4565b604082019050919050565b6000613ccb602083614178565b9150613cd6826146f3565b602082019050919050565b6000613cee601a83614178565b9150613cf98261471c565b602082019050919050565b6000613d11600083614167565b9150613d1c82614745565b600082019050919050565b6000613d34600d83614178565b9150613d3f82614748565b602082019050919050565b613d5381614326565b82525050565b613d6281614393565b82525050565b613d7181614354565b82525050565b613d88613d8382614354565b61441c565b82525050565b613d978161436b565b82525050565b613da68161435e565b82525050565b6000613db88287613b4b565b601482019150613dc88286613b71565b602082019150613dd88285613d77565b602082019150613de88284613d77565b60208201915081905095945050505050565b6000602082019050613e0f6000830184613b3c565b92915050565b6000606082019050613e2a6000830186613b3c565b613e376020830185613b3c565b613e446040830184613d59565b949350505050565b6000608082019050613e616000830186613b3c565b613e6e6020830185613b3c565b613e7b6040830184613d68565b8181036060830152613e8c81613d04565b9050949350505050565b6000608082019050613eab6000830187613b3c565b613eb86020830186613d68565b613ec56040830185613d68565b613ed26060830184613b62565b95945050505050565b6000602082019050613ef06000830184613b62565b92915050565b6000602082019050613f0b6000830184613b88565b92915050565b60006020820190508181036000830152613f2a81613ba6565b9050919050565b60006020820190508181036000830152613f4a81613bc9565b9050919050565b60006020820190508181036000830152613f6a81613bec565b9050919050565b60006020820190508181036000830152613f8a81613c0f565b9050919050565b60006020820190508181036000830152613faa81613c32565b9050919050565b60006020820190508181036000830152613fca81613c55565b9050919050565b60006020820190508181036000830152613fea81613c78565b9050919050565b6000602082019050818103600083015261400a81613c9b565b9050919050565b6000602082019050818103600083015261402a81613cbe565b9050919050565b6000602082019050818103600083015261404a81613ce1565b9050919050565b6000602082019050818103600083015261406a81613d27565b9050919050565b60006020820190506140866000830184613d59565b92915050565b60006060820190506140a16000830186613d4a565b6140ae6020830185613d8e565b6140bb6040830184613b3c565b949350505050565b60006020820190506140d86000830184613d68565b92915050565b60006060820190506140f36000830186613d68565b6141006020830185613b97565b61410d6040830184613b62565b949350505050565b600060608201905061412a6000830186613d68565b6141376020830185613d68565b6141446040830184613b62565b949350505050565b60006020820190506141616000830184613d9d565b92915050565b600082825260208201905092915050565b600082825260208201905092915050565b600061419482614354565b915061419f83614354565b9250827fffffffffffffffffffffffffffffffffffffffffffffffffffffffffffffffff038211156141d4576141d3614457565b5b828201905092915050565b60006141ea82614354565b91506141f583614354565b92508261420557614204614486565b5b828204905092915050565b600061421b82614354565b915061422683614354565b9250817fffffffffffffffffffffffffffffffffffffffffffffffffffffffffffffffff048311821515161561425f5761425e614457565b5b828202905092915050565b600061427582614354565b915061428083614354565b92508282101561429357614292614457565b5b828203905092915050565b60006142a98261435e565b91506142b48361435e565b9250828210156142c7576142c6614457565b5b828203905092915050565b60006142dd82614334565b9050919050565b60008115159050919050565b6000819050919050565b60007fffffffff0000000000000000000000000000000000000000000000000000000082169050919050565b600061ffff82169050919050565b600073ffffffffffffffffffffffffffffffffffffffff82169050919050565b6000819050919050565b600060ff82169050919050565b600069ffffffffffffffffffff82169050919050565b600061438c82614354565b9050919050565b600061439e82614326565b9050919050565b60006143b082614354565b91507fffffffffffffffffffffffffffffffffffffffffffffffffffffffffffffffff8214156143e3576143e2614457565b5b600182019050919050565b60006143f98261440a565b9050919050565b6000819050919050565b60006144158261452c565b9050919050565b6000819050919050565b600061443182614354565b915061443c83614354565b92508261444c5761444b614486565b5b828206905092915050565b7f4e487b7100000000000000000000000000000000000000000000000000000000600052601160045260246000fd5b7f4e487b7100000000000000000000000000000000000000000000000000000000600052601260045260246000fd5b7f4e487b7100000000000000000000000000000000000000000000000000000000600052603160045260246000fd5b7f4e487b7100000000000000000000000000000000000000000000000000000000600052603260045260246000fd5b600080fd5b600080fd5b600080fd5b600080fd5b600080fd5b60008160601b9050919050565b7f5061757361626c653a206e6f7420706175736564000000000000000000000000600082015250565b7f41494e5420412050415254204f4620544845205041434b000000000000000000600082015250565b7f4f776e61626c653a206e6577206f776e657220697320746865207a65726f206160008201527f6464726573730000000000000000000000000000000000000000000000000000602082015250565b7f5245534355452044495341424c45440000000000000000000000000000000000600082015250565b7f43616e6e6f742073656e6420746f6b656e7320746f204261726e20646972656360008201527f746c790000000000000000000000000000000000000000000000000000000000602082015250565b7f5357495045522c204e4f2053574950494e470000000000000000000000000000600082015250565b7f5061757361626c653a2070617573656400000000000000000000000000000000600082015250565b7f474f4e4e4120424520434f4c4420574954484f55542054574f2044415927532060008201527f574f4f4c00000000000000000000000000000000000000000000000000000000602082015250565b7f4f776e61626c653a2063616c6c6572206973206e6f7420746865206f776e6572600082015250565b7f444f4e54204749564520594f555220544f4b454e532041574159000000000000600082015250565b50565b7f41494e5420594f20544f4b454e00000000000000000000000000000000000000600082015250565b61477a816142d2565b811461478557600080fd5b50565b614791816142e4565b811461479c57600080fd5b50565b6147a881614326565b81146147b357600080fd5b50565b6147bf81614354565b81146147ca57600080fd5b5056fea26469706673582212203bdd4ccabcf10f22b4c1af7b652c79f5b7e4c90f50ee5819eea6c2bdb1e0b60364736f6c63430008070033",
			"opcodes": "PUSH1 0x80 PUSH1 0x40 MSTORE PUSH1 0x0 PUSH1 0x8 SSTORE PUSH1 0x0 PUSH1 0x9 SSTORE PUSH1 0x0 PUSH1 0xA SSTORE PUSH1 0x0 PUSH1 0xE PUSH1 0x0 PUSH2 0x100 EXP DUP2 SLOAD DUP2 PUSH1 0xFF MUL NOT AND SWAP1 DUP4 ISZERO ISZERO MUL OR SWAP1 SSTORE POP CALLVALUE DUP1 ISZERO PUSH3 0x3B JUMPI PUSH1 0x0 DUP1 REVERT JUMPDEST POP PUSH1 0x40 MLOAD PUSH3 0x4AB5 CODESIZE SUB DUP1 PUSH3 0x4AB5 DUP4 CODECOPY DUP2 DUP2 ADD PUSH1 0x40 MSTORE DUP2 ADD SWAP1 PUSH3 0x61 SWAP2 SWAP1 PUSH3 0x208 JUMP JUMPDEST PUSH3 0x81 PUSH3 0x75 PUSH3 0x125 PUSH1 0x20 SHL PUSH1 0x20 SHR JUMP JUMPDEST PUSH3 0x12D PUSH1 0x20 SHL PUSH1 0x20 SHR JUMP JUMPDEST PUSH1 0x0 DUP1 PUSH1 0x14 PUSH2 0x100 EXP DUP2 SLOAD DUP2 PUSH1 0xFF MUL NOT AND SWAP1 DUP4 ISZERO ISZERO MUL OR SWAP1 SSTORE POP DUP2 PUSH1 0x1 PUSH1 0x0 PUSH2 0x100 EXP DUP2 SLOAD DUP2 PUSH20 0xFFFFFFFFFFFFFFFFFFFFFFFFFFFFFFFFFFFFFFFF MUL NOT AND SWAP1 DUP4 PUSH20 0xFFFFFFFFFFFFFFFFFFFFFFFFFFFFFFFFFFFFFFFF AND MUL OR SWAP1 SSTORE POP DUP1 PUSH1 0x2 PUSH1 0x0 PUSH2 0x100 EXP DUP2 SLOAD DUP2 PUSH20 0xFFFFFFFFFFFFFFFFFFFFFFFFFFFFFFFFFFFFFFFF MUL NOT AND SWAP1 DUP4 PUSH20 0xFFFFFFFFFFFFFFFFFFFFFFFFFFFFFFFFFFFFFFFF AND MUL OR SWAP1 SSTORE POP POP POP PUSH3 0x2A2 JUMP JUMPDEST PUSH1 0x0 CALLER SWAP1 POP SWAP1 JUMP JUMPDEST PUSH1 0x0 DUP1 PUSH1 0x0 SWAP1 SLOAD SWAP1 PUSH2 0x100 EXP SWAP1 DIV PUSH20 0xFFFFFFFFFFFFFFFFFFFFFFFFFFFFFFFFFFFFFFFF AND SWAP1 POP DUP2 PUSH1 0x0 DUP1 PUSH2 0x100 EXP DUP2 SLOAD DUP2 PUSH20 0xFFFFFFFFFFFFFFFFFFFFFFFFFFFFFFFFFFFFFFFF MUL NOT AND SWAP1 DUP4 PUSH20 0xFFFFFFFFFFFFFFFFFFFFFFFFFFFFFFFFFFFFFFFF AND MUL OR SWAP1 SSTORE POP DUP2 PUSH20 0xFFFFFFFFFFFFFFFFFFFFFFFFFFFFFFFFFFFFFFFF AND DUP2 PUSH20 0xFFFFFFFFFFFFFFFFFFFFFFFFFFFFFFFFFFFFFFFF AND PUSH32 0x8BE0079C531659141344CD1FD0A4F28419497F9722A3DAAFE3B4186F6B6457E0 PUSH1 0x40 MLOAD PUSH1 0x40 MLOAD DUP1 SWAP2 SUB SWAP1 LOG3 POP POP JUMP JUMPDEST PUSH1 0x0 DUP2 MLOAD SWAP1 POP PUSH3 0x202 DUP2 PUSH3 0x288 JUMP JUMPDEST SWAP3 SWAP2 POP POP JUMP JUMPDEST PUSH1 0x0 DUP1 PUSH1 0x40 DUP4 DUP6 SUB SLT ISZERO PUSH3 0x222 JUMPI PUSH3 0x221 PUSH3 0x283 JUMP JUMPDEST JUMPDEST PUSH1 0x0 PUSH3 0x232 DUP6 DUP3 DUP7 ADD PUSH3 0x1F1 JUMP JUMPDEST SWAP3 POP POP PUSH1 0x20 PUSH3 0x245 DUP6 DUP3 DUP7 ADD PUSH3 0x1F1 JUMP JUMPDEST SWAP2 POP POP SWAP3 POP SWAP3 SWAP1 POP JUMP JUMPDEST PUSH1 0x0 PUSH3 0x25C DUP3 PUSH3 0x263 JUMP JUMPDEST SWAP1 POP SWAP2 SWAP1 POP JUMP JUMPDEST PUSH1 0x0 PUSH20 0xFFFFFFFFFFFFFFFFFFFFFFFFFFFFFFFFFFFFFFFF DUP3 AND SWAP1 POP SWAP2 SWAP1 POP JUMP JUMPDEST PUSH1 0x0 DUP1 REVERT JUMPDEST PUSH3 0x293 DUP2 PUSH3 0x24F JUMP JUMPDEST DUP2 EQ PUSH3 0x29F JUMPI PUSH1 0x0 DUP1 REVERT JUMPDEST POP JUMP JUMPDEST PUSH2 0x4803 DUP1 PUSH3 0x2B2 PUSH1 0x0 CODECOPY PUSH1 0x0 RETURN INVALID PUSH1 0x80 PUSH1 0x40 MSTORE CALLVALUE DUP1 ISZERO PUSH2 0x10 JUMPI PUSH1 0x0 DUP1 REVERT JUMPDEST POP PUSH1 0x4 CALLDATASIZE LT PUSH2 0x1FB JUMPI PUSH1 0x0 CALLDATALOAD PUSH1 0xE0 SHR DUP1 PUSH4 0x6A3EF057 GT PUSH2 0x11A JUMPI DUP1 PUSH4 0x88FF498B GT PUSH2 0xAD JUMPI DUP1 PUSH4 0xB884F74B GT PUSH2 0x7C JUMPI DUP1 PUSH4 0xB884F74B EQ PUSH2 0x5CE JUMPI DUP1 PUSH4 0xC0C472C0 EQ PUSH2 0x5FE JUMPI DUP1 PUSH4 0xDB796B89 EQ PUSH2 0x61C JUMPI DUP1 PUSH4 0xDD55FCB3 EQ PUSH2 0x63A JUMPI DUP1 PUSH4 0xF2FDE38B EQ PUSH2 0x66C JUMPI PUSH2 0x1FB JUMP JUMPDEST DUP1 PUSH4 0x88FF498B EQ PUSH2 0x532 JUMPI DUP1 PUSH4 0x8DA5CB5B EQ PUSH2 0x550 JUMPI DUP1 PUSH4 0xA1176C9D EQ PUSH2 0x56E JUMPI DUP1 PUSH4 0xA619143D EQ PUSH2 0x59E JUMPI PUSH2 0x1FB JUMP JUMPDEST DUP1 PUSH4 0x715018A6 GT PUSH2 0xE9 JUMPI DUP1 PUSH4 0x715018A6 EQ PUSH2 0x4D2 JUMPI DUP1 PUSH4 0x76531008 EQ PUSH2 0x4DC JUMPI DUP1 PUSH4 0x76FBE719 EQ PUSH2 0x4F8 JUMPI DUP1 PUSH4 0x81D449C1 EQ PUSH2 0x516 JUMPI PUSH2 0x1FB JUMP JUMPDEST DUP1 PUSH4 0x6A3EF057 EQ PUSH2 0x438 JUMPI DUP1 PUSH4 0x6B5E5864 EQ PUSH2 0x454 JUMPI DUP1 PUSH4 0x6F234FB5 EQ PUSH2 0x484 JUMPI DUP1 PUSH4 0x6F257875 EQ PUSH2 0x4B4 JUMPI PUSH2 0x1FB JUMP JUMPDEST DUP1 PUSH4 0x37A386B9 GT PUSH2 0x192 JUMPI DUP1 PUSH4 0x51211436 GT PUSH2 0x161 JUMPI DUP1 PUSH4 0x51211436 EQ PUSH2 0x3C0 JUMPI DUP1 PUSH4 0x5C975ABB EQ PUSH2 0x3DE JUMPI DUP1 PUSH4 0x5D4AEAB3 EQ PUSH2 0x3FC JUMPI DUP1 PUSH4 0x607AF397 EQ PUSH2 0x41A JUMPI PUSH2 0x1FB JUMP JUMPDEST DUP1 PUSH4 0x37A386B9 EQ PUSH2 0x322 JUMPI DUP1 PUSH4 0x387F8BDD EQ PUSH2 0x340 JUMPI DUP1 PUSH4 0x39DB714F EQ PUSH2 0x372 JUMPI DUP1 PUSH4 0x3C989E6A EQ PUSH2 0x390 JUMPI PUSH2 0x1FB JUMP JUMPDEST DUP1 PUSH4 0x23825A5A GT PUSH2 0x1CE JUMPI DUP1 PUSH4 0x23825A5A EQ PUSH2 0x286 JUMPI DUP1 PUSH4 0x2435D651 EQ PUSH2 0x2B6 JUMPI DUP1 PUSH4 0x28B3E697 EQ PUSH2 0x2D4 JUMPI DUP1 PUSH4 0x2F7282C8 EQ PUSH2 0x2F2 JUMPI PUSH2 0x1FB JUMP JUMPDEST DUP1 PUSH4 0x13324AA9 EQ PUSH2 0x200 JUMPI DUP1 PUSH4 0x150B7A02 EQ PUSH2 0x21C JUMPI DUP1 PUSH4 0x16C38B3C EQ PUSH2 0x24C JUMPI DUP1 PUSH4 0x201EF2A4 EQ PUSH2 0x268 JUMPI JUMPDEST PUSH1 0x0 DUP1 REVERT JUMPDEST PUSH2 0x21A PUSH1 0x4 DUP1 CALLDATASIZE SUB DUP2 ADD SWAP1 PUSH2 0x215 SWAP2 SWAP1 PUSH2 0x399B JUMP JUMPDEST PUSH2 0x688 JUMP JUMPDEST STOP JUMPDEST PUSH2 0x236 PUSH1 0x4 DUP1 CALLDATASIZE SUB DUP2 ADD SWAP1 PUSH2 0x231 SWAP2 SWAP1 PUSH2 0x3873 JUMP JUMPDEST PUSH2 0x96A JUMP JUMPDEST PUSH1 0x40 MLOAD PUSH2 0x243 SWAP2 SWAP1 PUSH2 0x3EF6 JUMP JUMPDEST PUSH1 0x40 MLOAD DUP1 SWAP2 SUB SWAP1 RETURN JUMPDEST PUSH2 0x266 PUSH1 0x4 DUP1 CALLDATASIZE SUB DUP2 ADD SWAP1 PUSH2 0x261 SWAP2 SWAP1 PUSH2 0x3A48 JUMP JUMPDEST PUSH2 0x9ED JUMP JUMPDEST STOP JUMPDEST PUSH2 0x270 PUSH2 0xA88 JUMP JUMPDEST PUSH1 0x40 MLOAD PUSH2 0x27D SWAP2 SWAP1 PUSH2 0x414C JUMP JUMPDEST PUSH1 0x40 MLOAD DUP1 SWAP2 SUB SWAP1 RETURN JUMPDEST PUSH2 0x2A0 PUSH1 0x4 DUP1 CALLDATASIZE SUB DUP2 ADD SWAP1 PUSH2 0x29B SWAP2 SWAP1 PUSH2 0x395B JUMP JUMPDEST PUSH2 0xA8D JUMP JUMPDEST PUSH1 0x40 MLOAD PUSH2 0x2AD SWAP2 SWAP1 PUSH2 0x40C3 JUMP JUMPDEST PUSH1 0x40 MLOAD DUP1 SWAP2 SUB SWAP1 RETURN JUMPDEST PUSH2 0x2BE PUSH2 0xAF3 JUMP JUMPDEST PUSH1 0x40 MLOAD PUSH2 0x2CB SWAP2 SWAP1 PUSH2 0x40C3 JUMP JUMPDEST PUSH1 0x40 MLOAD DUP1 SWAP2 SUB SWAP1 RETURN JUMPDEST PUSH2 0x2DC PUSH2 0xB01 JUMP JUMPDEST PUSH1 0x40 MLOAD PUSH2 0x2E9 SWAP2 SWAP1 PUSH2 0x40C3 JUMP JUMPDEST PUSH1 0x40 MLOAD DUP1 SWAP2 SUB SWAP1 RETURN JUMPDEST PUSH2 0x30C PUSH1 0x4 DUP1 CALLDATASIZE SUB DUP2 ADD SWAP1 PUSH2 0x307 SWAP2 SWAP1 PUSH2 0x3819 JUMP JUMPDEST PUSH2 0xB06 JUMP JUMPDEST PUSH1 0x40 MLOAD PUSH2 0x319 SWAP2 SWAP1 PUSH2 0x40C3 JUMP JUMPDEST PUSH1 0x40 MLOAD DUP1 SWAP2 SUB SWAP1 RETURN JUMPDEST PUSH2 0x32A PUSH2 0xB52 JUMP JUMPDEST PUSH1 0x40 MLOAD PUSH2 0x337 SWAP2 SWAP1 PUSH2 0x40C3 JUMP JUMPDEST PUSH1 0x40 MLOAD DUP1 SWAP2 SUB SWAP1 RETURN JUMPDEST PUSH2 0x35A PUSH1 0x4 DUP1 CALLDATASIZE SUB DUP2 ADD SWAP1 PUSH2 0x355 SWAP2 SWAP1 PUSH2 0x3ACF JUMP JUMPDEST PUSH2 0xB59 JUMP JUMPDEST PUSH1 0x40 MLOAD PUSH2 0x369 SWAP4 SWAP3 SWAP2 SWAP1 PUSH2 0x408C JUMP JUMPDEST PUSH1 0x40 MLOAD DUP1 SWAP2 SUB SWAP1 RETURN JUMPDEST PUSH2 0x37A PUSH2 0xBC7 JUMP JUMPDEST PUSH1 0x40 MLOAD PUSH2 0x387 SWAP2 SWAP1 PUSH2 0x3EDB JUMP JUMPDEST PUSH1 0x40 MLOAD DUP1 SWAP2 SUB SWAP1 RETURN JUMPDEST PUSH2 0x3AA PUSH1 0x4 DUP1 CALLDATASIZE SUB DUP2 ADD SWAP1 PUSH2 0x3A5 SWAP2 SWAP1 PUSH2 0x3ACF JUMP JUMPDEST PUSH2 0xBDA JUMP JUMPDEST PUSH1 0x40 MLOAD PUSH2 0x3B7 SWAP2 SWAP1 PUSH2 0x3DFA JUMP JUMPDEST PUSH1 0x40 MLOAD DUP1 SWAP2 SUB SWAP1 RETURN JUMPDEST PUSH2 0x3C8 PUSH2 0xD0A JUMP JUMPDEST PUSH1 0x40 MLOAD PUSH2 0x3D5 SWAP2 SWAP1 PUSH2 0x40C3 JUMP JUMPDEST PUSH1 0x40 MLOAD DUP1 SWAP2 SUB SWAP1 RETURN JUMPDEST PUSH2 0x3E6 PUSH2 0xD10 JUMP JUMPDEST PUSH1 0x40 MLOAD PUSH2 0x3F3 SWAP2 SWAP1 PUSH2 0x3EDB JUMP JUMPDEST PUSH1 0x40 MLOAD DUP1 SWAP2 SUB SWAP1 RETURN JUMPDEST PUSH2 0x404 PUSH2 0xD26 JUMP JUMPDEST PUSH1 0x40 MLOAD PUSH2 0x411 SWAP2 SWAP1 PUSH2 0x414C JUMP JUMPDEST PUSH1 0x40 MLOAD DUP1 SWAP2 SUB SWAP1 RETURN JUMPDEST PUSH2 0x422 PUSH2 0xD3B JUMP JUMPDEST PUSH1 0x40 MLOAD PUSH2 0x42F SWAP2 SWAP1 PUSH2 0x40C3 JUMP JUMPDEST PUSH1 0x40 MLOAD DUP1 SWAP2 SUB SWAP1 RETURN JUMPDEST PUSH2 0x452 PUSH1 0x4 DUP1 CALLDATASIZE SUB DUP2 ADD SWAP1 PUSH2 0x44D SWAP2 SWAP1 PUSH2 0x39FB JUMP JUMPDEST PUSH2 0xD41 JUMP JUMPDEST STOP JUMPDEST PUSH2 0x46E PUSH1 0x4 DUP1 CALLDATASIZE SUB DUP2 ADD SWAP1 PUSH2 0x469 SWAP2 SWAP1 PUSH2 0x395B JUMP JUMPDEST PUSH2 0x1682 JUMP JUMPDEST PUSH1 0x40 MLOAD PUSH2 0x47B SWAP2 SWAP1 PUSH2 0x40C3 JUMP JUMPDEST PUSH1 0x40 MLOAD DUP1 SWAP2 SUB SWAP1 RETURN JUMPDEST PUSH2 0x49E PUSH1 0x4 DUP1 CALLDATASIZE SUB DUP2 ADD SWAP1 PUSH2 0x499 SWAP2 SWAP1 PUSH2 0x3ACF JUMP JUMPDEST PUSH2 0x16B3 JUMP JUMPDEST PUSH1 0x40 MLOAD PUSH2 0x4AB SWAP2 SWAP1 PUSH2 0x40C3 JUMP JUMPDEST PUSH1 0x40 MLOAD DUP1 SWAP2 SUB SWAP1 RETURN JUMPDEST PUSH2 0x4BC PUSH2 0x16CB JUMP JUMPDEST PUSH1 0x40 MLOAD PUSH2 0x4C9 SWAP2 SWAP1 PUSH2 0x40C3 JUMP JUMPDEST PUSH1 0x40 MLOAD DUP1 SWAP2 SUB SWAP1 RETURN JUMPDEST PUSH2 0x4DA PUSH2 0x16D1 JUMP JUMPDEST STOP JUMPDEST PUSH2 0x4F6 PUSH1 0x4 DUP1 CALLDATASIZE SUB DUP2 ADD SWAP1 PUSH2 0x4F1 SWAP2 SWAP1 PUSH2 0x3A48 JUMP JUMPDEST PUSH2 0x1759 JUMP JUMPDEST STOP JUMPDEST PUSH2 0x500 PUSH2 0x17F2 JUMP JUMPDEST PUSH1 0x40 MLOAD PUSH2 0x50D SWAP2 SWAP1 PUSH2 0x40C3 JUMP JUMPDEST PUSH1 0x40 MLOAD DUP1 SWAP2 SUB SWAP1 RETURN JUMPDEST PUSH2 0x530 PUSH1 0x4 DUP1 CALLDATASIZE SUB DUP2 ADD SWAP1 PUSH2 0x52B SWAP2 SWAP1 PUSH2 0x38FB JUMP JUMPDEST PUSH2 0x17F8 JUMP JUMPDEST STOP JUMPDEST PUSH2 0x53A PUSH2 0x1CDA JUMP JUMPDEST PUSH1 0x40 MLOAD PUSH2 0x547 SWAP2 SWAP1 PUSH2 0x40C3 JUMP JUMPDEST PUSH1 0x40 MLOAD DUP1 SWAP2 SUB SWAP1 RETURN JUMPDEST PUSH2 0x558 PUSH2 0x1CEA JUMP JUMPDEST PUSH1 0x40 MLOAD PUSH2 0x565 SWAP2 SWAP1 PUSH2 0x3DFA JUMP JUMPDEST PUSH1 0x40 MLOAD DUP1 SWAP2 SUB SWAP1 RETURN JUMPDEST PUSH2 0x588 PUSH1 0x4 DUP1 CALLDATASIZE SUB DUP2 ADD SWAP1 PUSH2 0x583 SWAP2 SWAP1 PUSH2 0x395B JUMP JUMPDEST PUSH2 0x1D13 JUMP JUMPDEST PUSH1 0x40 MLOAD PUSH2 0x595 SWAP2 SWAP1 PUSH2 0x40C3 JUMP JUMPDEST PUSH1 0x40 MLOAD DUP1 SWAP2 SUB SWAP1 RETURN JUMPDEST PUSH2 0x5B8 PUSH1 0x4 DUP1 CALLDATASIZE SUB DUP2 ADD SWAP1 PUSH2 0x5B3 SWAP2 SWAP1 PUSH2 0x3819 JUMP JUMPDEST PUSH2 0x1D79 JUMP JUMPDEST PUSH1 0x40 MLOAD PUSH2 0x5C5 SWAP2 SWAP1 PUSH2 0x40C3 JUMP JUMPDEST PUSH1 0x40 MLOAD DUP1 SWAP2 SUB SWAP1 RETURN JUMPDEST PUSH2 0x5E8 PUSH1 0x4 DUP1 CALLDATASIZE SUB DUP2 ADD SWAP1 PUSH2 0x5E3 SWAP2 SWAP1 PUSH2 0x395B JUMP JUMPDEST PUSH2 0x1DC5 JUMP JUMPDEST PUSH1 0x40 MLOAD PUSH2 0x5F5 SWAP2 SWAP1 PUSH2 0x40C3 JUMP JUMPDEST PUSH1 0x40 MLOAD DUP1 SWAP2 SUB SWAP1 RETURN JUMPDEST PUSH2 0x606 PUSH2 0x1DF6 JUMP JUMPDEST PUSH1 0x40 MLOAD PUSH2 0x613 SWAP2 SWAP1 PUSH2 0x40C3 JUMP JUMPDEST PUSH1 0x40 MLOAD DUP1 SWAP2 SUB SWAP1 RETURN JUMPDEST PUSH2 0x624 PUSH2 0x1DFC JUMP JUMPDEST PUSH1 0x40 MLOAD PUSH2 0x631 SWAP2 SWAP1 PUSH2 0x40C3 JUMP JUMPDEST PUSH1 0x40 MLOAD DUP1 SWAP2 SUB SWAP1 RETURN JUMPDEST PUSH2 0x654 PUSH1 0x4 DUP1 CALLDATASIZE SUB DUP2 ADD SWAP1 PUSH2 0x64F SWAP2 SWAP1 PUSH2 0x3AFC JUMP JUMPDEST PUSH2 0x1E02 JUMP JUMPDEST PUSH1 0x40 MLOAD PUSH2 0x663 SWAP4 SWAP3 SWAP2 SWAP1 PUSH2 0x408C JUMP JUMPDEST PUSH1 0x40 MLOAD DUP1 SWAP2 SUB SWAP1 RETURN JUMPDEST PUSH2 0x686 PUSH1 0x4 DUP1 CALLDATASIZE SUB DUP2 ADD SWAP1 PUSH2 0x681 SWAP2 SWAP1 PUSH2 0x3819 JUMP JUMPDEST PUSH2 0x1E89 JUMP JUMPDEST STOP JUMPDEST PUSH2 0x690 PUSH2 0xD10 JUMP JUMPDEST ISZERO PUSH2 0x6D0 JUMPI PUSH1 0x40 MLOAD PUSH32 0x8C379A000000000000000000000000000000000000000000000000000000000 DUP2 MSTORE PUSH1 0x4 ADD PUSH2 0x6C7 SWAP1 PUSH2 0x3FD1 JUMP JUMPDEST PUSH1 0x40 MLOAD DUP1 SWAP2 SUB SWAP1 REVERT JUMPDEST PUSH12 0x7C13BC4B2C133C560000000 PUSH1 0xB SLOAD LT ISZERO PUSH2 0x744 JUMPI PUSH3 0x15180 PUSH10 0x21E19E0C9BAB2400000 PUSH1 0xC SLOAD PUSH1 0xD SLOAD TIMESTAMP PUSH2 0x706 SWAP2 SWAP1 PUSH2 0x426A JUMP JUMPDEST PUSH2 0x710 SWAP2 SWAP1 PUSH2 0x4210 JUMP JUMPDEST PUSH2 0x71A SWAP2 SWAP1 PUSH2 0x4210 JUMP JUMPDEST PUSH2 0x724 SWAP2 SWAP1 PUSH2 0x41DF JUMP JUMPDEST PUSH1 0xB PUSH1 0x0 DUP3 DUP3 SLOAD PUSH2 0x735 SWAP2 SWAP1 PUSH2 0x4189 JUMP JUMPDEST SWAP3 POP POP DUP2 SWAP1 SSTORE POP TIMESTAMP PUSH1 0xD DUP2 SWAP1 SSTORE POP JUMPDEST PUSH1 0x0 DUP1 JUMPDEST DUP5 DUP5 SWAP1 POP DUP2 LT ISZERO PUSH2 0x8C6 JUMPI PUSH1 0x1 PUSH1 0x0 SWAP1 SLOAD SWAP1 PUSH2 0x100 EXP SWAP1 DIV PUSH20 0xFFFFFFFFFFFFFFFFFFFFFFFFFFFFFFFFFFFFFFFF AND PUSH20 0xFFFFFFFFFFFFFFFFFFFFFFFFFFFFFFFFFFFFFFFF AND PUSH4 0xAF1AF34A DUP7 DUP7 DUP5 DUP2 DUP2 LT PUSH2 0x7A4 JUMPI PUSH2 0x7A3 PUSH2 0x44E4 JUMP JUMPDEST JUMPDEST SWAP1 POP PUSH1 0x20 MUL ADD PUSH1 0x20 DUP2 ADD SWAP1 PUSH2 0x7B9 SWAP2 SWAP1 PUSH2 0x3AA2 JUMP JUMPDEST PUSH1 0x40 MLOAD DUP3 PUSH4 0xFFFFFFFF AND PUSH1 0xE0 SHL DUP2 MSTORE PUSH1 0x4 ADD PUSH2 0x7D5 SWAP2 SWAP1 PUSH2 0x4071 JUMP JUMPDEST PUSH1 0x20 PUSH1 0x40 MLOAD DUP1 DUP4 SUB DUP2 DUP7 DUP1 EXTCODESIZE ISZERO DUP1 ISZERO PUSH2 0x7ED JUMPI PUSH1 0x0 DUP1 REVERT JUMPDEST POP GAS STATICCALL ISZERO DUP1 ISZERO PUSH2 0x801 JUMPI RETURNDATASIZE PUSH1 0x0 DUP1 RETURNDATACOPY RETURNDATASIZE PUSH1 0x0 REVERT JUMPDEST POP POP POP POP PUSH1 0x40 MLOAD RETURNDATASIZE PUSH1 0x1F NOT PUSH1 0x1F DUP3 ADD AND DUP3 ADD DUP1 PUSH1 0x40 MSTORE POP DUP2 ADD SWAP1 PUSH2 0x825 SWAP2 SWAP1 PUSH2 0x3A75 JUMP JUMPDEST PUSH2 0x870 JUMPI PUSH2 0x85E DUP6 DUP6 DUP4 DUP2 DUP2 LT PUSH2 0x83F JUMPI PUSH2 0x83E PUSH2 0x44E4 JUMP JUMPDEST JUMPDEST SWAP1 POP PUSH1 0x20 MUL ADD PUSH1 0x20 DUP2 ADD SWAP1 PUSH2 0x854 SWAP2 SWAP1 PUSH2 0x3AA2 JUMP JUMPDEST PUSH2 0xFFFF AND DUP5 PUSH2 0x1F81 JUMP JUMPDEST DUP3 PUSH2 0x869 SWAP2 SWAP1 PUSH2 0x4189 JUMP JUMPDEST SWAP2 POP PUSH2 0x8B3 JUMP JUMPDEST PUSH2 0x8A5 DUP6 DUP6 DUP4 DUP2 DUP2 LT PUSH2 0x886 JUMPI PUSH2 0x885 PUSH2 0x44E4 JUMP JUMPDEST JUMPDEST SWAP1 POP PUSH1 0x20 MUL ADD PUSH1 0x20 DUP2 ADD SWAP1 PUSH2 0x89B SWAP2 SWAP1 PUSH2 0x3AA2 JUMP JUMPDEST PUSH2 0xFFFF AND DUP5 PUSH2 0x2607 JUMP JUMPDEST DUP3 PUSH2 0x8B0 SWAP2 SWAP1 PUSH2 0x4189 JUMP JUMPDEST SWAP2 POP JUMPDEST DUP1 DUP1 PUSH2 0x8BE SWAP1 PUSH2 0x43A5 JUMP JUMPDEST SWAP2 POP POP PUSH2 0x748 JUMP JUMPDEST POP PUSH1 0x0 DUP2 EQ ISZERO PUSH2 0x8D6 JUMPI POP PUSH2 0x965 JUMP JUMPDEST PUSH1 0x1 PUSH1 0x0 SWAP1 SLOAD SWAP1 PUSH2 0x100 EXP SWAP1 DIV PUSH20 0xFFFFFFFFFFFFFFFFFFFFFFFFFFFFFFFFFFFFFFFF AND PUSH20 0xFFFFFFFFFFFFFFFFFFFFFFFFFFFFFFFFFFFFFFFF AND PUSH4 0xC2FB2108 DUP3 PUSH1 0x40 MLOAD DUP3 PUSH4 0xFFFFFFFF AND PUSH1 0xE0 SHL DUP2 MSTORE PUSH1 0x4 ADD PUSH2 0x931 SWAP2 SWAP1 PUSH2 0x40C3 JUMP JUMPDEST PUSH1 0x0 PUSH1 0x40 MLOAD DUP1 DUP4 SUB DUP2 PUSH1 0x0 DUP8 DUP1 EXTCODESIZE ISZERO DUP1 ISZERO PUSH2 0x94B JUMPI PUSH1 0x0 DUP1 REVERT JUMPDEST POP GAS CALL ISZERO DUP1 ISZERO PUSH2 0x95F JUMPI RETURNDATASIZE PUSH1 0x0 DUP1 RETURNDATACOPY RETURNDATASIZE PUSH1 0x0 REVERT JUMPDEST POP POP POP POP POP JUMPDEST POP POP POP JUMP JUMPDEST PUSH1 0x0 DUP1 PUSH20 0xFFFFFFFFFFFFFFFFFFFFFFFFFFFFFFFFFFFFFFFF AND DUP6 PUSH20 0xFFFFFFFFFFFFFFFFFFFFFFFFFFFFFFFFFFFFFFFF AND EQ PUSH2 0x9DA JUMPI PUSH1 0x40 MLOAD PUSH32 0x8C379A000000000000000000000000000000000000000000000000000000000 DUP2 MSTORE PUSH1 0x4 ADD PUSH2 0x9D1 SWAP1 PUSH2 0x3F91 JUMP JUMPDEST PUSH1 0x40 MLOAD DUP1 SWAP2 SUB SWAP1 REVERT JUMPDEST PUSH4 0x150B7A02 PUSH1 0xE0 SHL SWAP1 POP SWAP6 SWAP5 POP POP POP POP POP JUMP JUMPDEST PUSH2 0x9F5 PUSH2 0x2F07 JUMP JUMPDEST PUSH20 0xFFFFFFFFFFFFFFFFFFFFFFFFFFFFFFFFFFFFFFFF AND PUSH2 0xA13 PUSH2 0x1CEA JUMP JUMPDEST PUSH20 0xFFFFFFFFFFFFFFFFFFFFFFFFFFFFFFFFFFFFFFFF AND EQ PUSH2 0xA69 JUMPI PUSH1 0x40 MLOAD PUSH32 0x8C379A000000000000000000000000000000000000000000000000000000000 DUP2 MSTORE PUSH1 0x4 ADD PUSH2 0xA60 SWAP1 PUSH2 0x4011 JUMP JUMPDEST PUSH1 0x40 MLOAD DUP1 SWAP2 SUB SWAP1 REVERT JUMPDEST DUP1 ISZERO PUSH2 0xA7C JUMPI PUSH2 0xA77 PUSH2 0x2F0F JUMP JUMPDEST PUSH2 0xA85 JUMP JUMPDEST PUSH2 0xA84 PUSH2 0x2FB2 JUMP JUMPDEST JUMPDEST POP JUMP JUMPDEST PUSH1 0x8 DUP2 JUMP JUMPDEST PUSH1 0x0 PUSH1 0x3 PUSH1 0x0 DUP5 PUSH20 0xFFFFFFFFFFFFFFFFFFFFFFFFFFFFFFFFFFFFFFFF AND PUSH20 0xFFFFFFFFFFFFFFFFFFFFFFFFFFFFFFFFFFFFFFFF AND DUP2 MSTORE PUSH1 0x20 ADD SWAP1 DUP2 MSTORE PUSH1 0x20 ADD PUSH1 0x0 KECCAK256 DUP3 DUP2 SLOAD DUP2 LT PUSH2 0xAE0 JUMPI PUSH2 0xADF PUSH2 0x44E4 JUMP JUMPDEST JUMPDEST SWAP1 PUSH1 0x0 MSTORE PUSH1 0x20 PUSH1 0x0 KECCAK256 ADD SLOAD SWAP1 POP SWAP3 SWAP2 POP POP JUMP JUMPDEST PUSH10 0x21E19E0C9BAB2400000 DUP2 JUMP JUMPDEST PUSH1 0x14 DUP2 JUMP JUMPDEST PUSH1 0x0 PUSH1 0x4 PUSH1 0x0 DUP4 PUSH20 0xFFFFFFFFFFFFFFFFFFFFFFFFFFFFFFFFFFFFFFFF AND PUSH20 0xFFFFFFFFFFFFFFFFFFFFFFFFFFFFFFFFFFFFFFFF AND DUP2 MSTORE PUSH1 0x20 ADD SWAP1 DUP2 MSTORE PUSH1 0x20 ADD PUSH1 0x0 KECCAK256 DUP1 SLOAD SWAP1 POP SWAP1 POP SWAP2 SWAP1 POP JUMP JUMPDEST PUSH3 0x2A300 DUP2 JUMP JUMPDEST PUSH1 0x5 PUSH1 0x20 MSTORE DUP1 PUSH1 0x0 MSTORE PUSH1 0x40 PUSH1 0x0 KECCAK256 PUSH1 0x0 SWAP2 POP SWAP1 POP DUP1 PUSH1 0x0 ADD PUSH1 0x0 SWAP1 SLOAD SWAP1 PUSH2 0x100 EXP SWAP1 DIV PUSH2 0xFFFF AND SWAP1 DUP1 PUSH1 0x0 ADD PUSH1 0x2 SWAP1 SLOAD SWAP1 PUSH2 0x100 EXP SWAP1 DIV PUSH10 0xFFFFFFFFFFFFFFFFFFFF AND SWAP1 DUP1 PUSH1 0x0 ADD PUSH1 0xC SWAP1 SLOAD SWAP1 PUSH2 0x100 EXP SWAP1 DIV PUSH20 0xFFFFFFFFFFFFFFFFFFFFFFFFFFFFFFFFFFFFFFFF AND SWAP1 POP DUP4 JUMP JUMPDEST PUSH1 0xE PUSH1 0x0 SWAP1 SLOAD SWAP1 PUSH2 0x100 EXP SWAP1 DIV PUSH1 0xFF AND DUP2 JUMP JUMPDEST PUSH1 0x0 DUP1 PUSH1 0x8 SLOAD EQ ISZERO PUSH2 0xBEF JUMPI PUSH1 0x0 SWAP1 POP PUSH2 0xD05 JUMP JUMPDEST PUSH1 0x0 PUSH1 0x8 SLOAD PUSH4 0xFFFFFFFF DUP5 AND PUSH2 0xC05 SWAP2 SWAP1 PUSH2 0x4426 JUMP JUMPDEST SWAP1 POP PUSH1 0x0 PUSH1 0x20 DUP5 SWAP1 SHR SWAP4 POP PUSH1 0x0 PUSH1 0x3 PUSH1 0x8 PUSH2 0xC20 SWAP2 SWAP1 PUSH2 0x429E JUMP JUMPDEST PUSH1 0xFF AND SWAP1 POP JUMPDEST PUSH1 0x8 PUSH1 0xFF AND DUP2 GT PUSH2 0xCFD JUMPI DUP1 PUSH1 0x6 PUSH1 0x0 DUP4 DUP2 MSTORE PUSH1 0x20 ADD SWAP1 DUP2 MSTORE PUSH1 0x20 ADD PUSH1 0x0 KECCAK256 DUP1 SLOAD SWAP1 POP PUSH2 0xC53 SWAP2 SWAP1 PUSH2 0x4210 JUMP JUMPDEST DUP3 PUSH2 0xC5E SWAP2 SWAP1 PUSH2 0x4189 JUMP JUMPDEST SWAP2 POP DUP2 DUP4 LT PUSH2 0xC6C JUMPI PUSH2 0xCEA JUMP JUMPDEST PUSH1 0x6 PUSH1 0x0 DUP3 DUP2 MSTORE PUSH1 0x20 ADD SWAP1 DUP2 MSTORE PUSH1 0x20 ADD PUSH1 0x0 KECCAK256 PUSH1 0x6 PUSH1 0x0 DUP4 DUP2 MSTORE PUSH1 0x20 ADD SWAP1 DUP2 MSTORE PUSH1 0x20 ADD PUSH1 0x0 KECCAK256 DUP1 SLOAD SWAP1 POP DUP7 PUSH2 0xCA1 SWAP2 SWAP1 PUSH2 0x4426 JUMP JUMPDEST DUP2 SLOAD DUP2 LT PUSH2 0xCB2 JUMPI PUSH2 0xCB1 PUSH2 0x44E4 JUMP JUMPDEST JUMPDEST SWAP1 PUSH1 0x0 MSTORE PUSH1 0x20 PUSH1 0x0 KECCAK256 ADD PUSH1 0x0 ADD PUSH1 0xC SWAP1 SLOAD SWAP1 PUSH2 0x100 EXP SWAP1 DIV PUSH20 0xFFFFFFFFFFFFFFFFFFFFFFFFFFFFFFFFFFFFFFFF AND SWAP4 POP POP POP POP PUSH2 0xD05 JUMP JUMPDEST DUP1 DUP1 PUSH2 0xCF5 SWAP1 PUSH2 0x43A5 JUMP JUMPDEST SWAP2 POP POP PUSH2 0xC26 JUMP JUMPDEST POP PUSH1 0x0 SWAP3 POP POP POP JUMPDEST SWAP2 SWAP1 POP JUMP JUMPDEST PUSH1 0xB SLOAD DUP2 JUMP JUMPDEST PUSH1 0x0 DUP1 PUSH1 0x14 SWAP1 SLOAD SWAP1 PUSH2 0x100 EXP SWAP1 DIV PUSH1 0xFF AND SWAP1 POP SWAP1 JUMP JUMPDEST PUSH1 0x0 PUSH1 0x5 PUSH1 0x8 PUSH2 0xD36 SWAP2 SWAP1 PUSH2 0x429E JUMP JUMPDEST SWAP1 POP SWAP1 JUMP JUMPDEST PUSH1 0xD SLOAD DUP2 JUMP JUMPDEST PUSH1 0xE PUSH1 0x0 SWAP1 SLOAD SWAP1 PUSH2 0x100 EXP SWAP1 DIV PUSH1 0xFF AND PUSH2 0xD90 JUMPI PUSH1 0x40 MLOAD PUSH32 0x8C379A000000000000000000000000000000000000000000000000000000000 DUP2 MSTORE PUSH1 0x4 ADD PUSH2 0xD87 SWAP1 PUSH2 0x3F71 JUMP JUMPDEST PUSH1 0x40 MLOAD DUP1 SWAP2 SUB SWAP1 REVERT JUMPDEST PUSH1 0x0 PUSH2 0xD9A PUSH2 0x3652 JUMP JUMPDEST PUSH2 0xDA2 PUSH2 0x3652 JUMP JUMPDEST PUSH1 0x0 DUP1 PUSH1 0x0 SWAP1 POP JUMPDEST DUP7 DUP7 SWAP1 POP DUP2 LT ISZERO PUSH2 0x1679 JUMPI DUP7 DUP7 DUP3 DUP2 DUP2 LT PUSH2 0xDC8 JUMPI PUSH2 0xDC7 PUSH2 0x44E4 JUMP JUMPDEST JUMPDEST SWAP1 POP PUSH1 0x20 MUL ADD CALLDATALOAD SWAP5 POP PUSH1 0x1 PUSH1 0x0 SWAP1 SLOAD SWAP1 PUSH2 0x100 EXP SWAP1 DIV PUSH20 0xFFFFFFFFFFFFFFFFFFFFFFFFFFFFFFFFFFFFFFFF AND PUSH20 0xFFFFFFFFFFFFFFFFFFFFFFFFFFFFFFFFFFFFFFFF AND PUSH4 0xAF1AF34A DUP7 PUSH1 0x40 MLOAD DUP3 PUSH4 0xFFFFFFFF AND PUSH1 0xE0 SHL DUP2 MSTORE PUSH1 0x4 ADD PUSH2 0xE2C SWAP2 SWAP1 PUSH2 0x40C3 JUMP JUMPDEST PUSH1 0x20 PUSH1 0x40 MLOAD DUP1 DUP4 SUB DUP2 DUP7 DUP1 EXTCODESIZE ISZERO DUP1 ISZERO PUSH2 0xE44 JUMPI PUSH1 0x0 DUP1 REVERT JUMPDEST POP GAS STATICCALL ISZERO DUP1 ISZERO PUSH2 0xE58 JUMPI RETURNDATASIZE PUSH1 0x0 DUP1 RETURNDATACOPY RETURNDATASIZE PUSH1 0x0 REVERT JUMPDEST POP POP POP POP PUSH1 0x40 MLOAD RETURNDATASIZE PUSH1 0x1F NOT PUSH1 0x1F DUP3 ADD AND DUP3 ADD DUP1 PUSH1 0x40 MSTORE POP DUP2 ADD SWAP1 PUSH2 0xE7C SWAP2 SWAP1 PUSH2 0x3A75 JUMP JUMPDEST PUSH2 0x112A JUMPI PUSH1 0x5 PUSH1 0x0 DUP7 DUP2 MSTORE PUSH1 0x20 ADD SWAP1 DUP2 MSTORE PUSH1 0x20 ADD PUSH1 0x0 KECCAK256 PUSH1 0x40 MLOAD DUP1 PUSH1 0x60 ADD PUSH1 0x40 MSTORE SWAP1 DUP2 PUSH1 0x0 DUP3 ADD PUSH1 0x0 SWAP1 SLOAD SWAP1 PUSH2 0x100 EXP SWAP1 DIV PUSH2 0xFFFF AND PUSH2 0xFFFF AND PUSH2 0xFFFF AND DUP2 MSTORE PUSH1 0x20 ADD PUSH1 0x0 DUP3 ADD PUSH1 0x2 SWAP1 SLOAD SWAP1 PUSH2 0x100 EXP SWAP1 DIV PUSH10 0xFFFFFFFFFFFFFFFFFFFF AND PUSH10 0xFFFFFFFFFFFFFFFFFFFF AND PUSH10 0xFFFFFFFFFFFFFFFFFFFF AND DUP2 MSTORE PUSH1 0x20 ADD PUSH1 0x0 DUP3 ADD PUSH1 0xC SWAP1 SLOAD SWAP1 PUSH2 0x100 EXP SWAP1 DIV PUSH20 0xFFFFFFFFFFFFFFFFFFFFFFFFFFFFFFFFFFFFFFFF AND PUSH20 0xFFFFFFFFFFFFFFFFFFFFFFFFFFFFFFFFFFFFFFFF AND PUSH20 0xFFFFFFFFFFFFFFFFFFFFFFFFFFFFFFFFFFFFFFFF AND DUP2 MSTORE POP POP SWAP4 POP PUSH2 0xF56 PUSH2 0x2F07 JUMP JUMPDEST PUSH20 0xFFFFFFFFFFFFFFFFFFFFFFFFFFFFFFFFFFFFFFFF AND DUP5 PUSH1 0x40 ADD MLOAD PUSH20 0xFFFFFFFFFFFFFFFFFFFFFFFFFFFFFFFFFFFFFFFF AND EQ PUSH2 0xFC7 JUMPI PUSH1 0x40 MLOAD PUSH32 0x8C379A000000000000000000000000000000000000000000000000000000000 DUP2 MSTORE PUSH1 0x4 ADD PUSH2 0xFBE SWAP1 PUSH2 0x3FB1 JUMP JUMPDEST PUSH1 0x40 MLOAD DUP1 SWAP2 SUB SWAP1 REVERT JUMPDEST PUSH1 0x1 PUSH1 0x0 SWAP1 SLOAD SWAP1 PUSH2 0x100 EXP SWAP1 DIV PUSH20 0xFFFFFFFFFFFFFFFFFFFFFFFFFFFFFFFFFFFFFFFF AND PUSH20 0xFFFFFFFFFFFFFFFFFFFFFFFFFFFFFFFFFFFFFFFF AND PUSH4 0xB88D4FDE ADDRESS PUSH2 0x100E PUSH2 0x2F07 JUMP JUMPDEST DUP9 PUSH1 0x40 MLOAD DUP5 PUSH4 0xFFFFFFFF AND PUSH1 0xE0 SHL DUP2 MSTORE PUSH1 0x4 ADD PUSH2 0x102D SWAP4 SWAP3 SWAP2 SWAP1 PUSH2 0x3E4C JUMP JUMPDEST PUSH1 0x0 PUSH1 0x40 MLOAD DUP1 DUP4 SUB DUP2 PUSH1 0x0 DUP8 DUP1 EXTCODESIZE ISZERO DUP1 ISZERO PUSH2 0x1047 JUMPI PUSH1 0x0 DUP1 REVERT JUMPDEST POP GAS CALL ISZERO DUP1 ISZERO PUSH2 0x105B JUMPI RETURNDATASIZE PUSH1 0x0 DUP1 RETURNDATACOPY RETURNDATASIZE PUSH1 0x0 REVERT JUMPDEST POP POP POP POP PUSH1 0x5 PUSH1 0x0 DUP7 DUP2 MSTORE PUSH1 0x20 ADD SWAP1 DUP2 MSTORE PUSH1 0x20 ADD PUSH1 0x0 KECCAK256 PUSH1 0x0 DUP1 DUP3 ADD PUSH1 0x0 PUSH2 0x100 EXP DUP2 SLOAD SWAP1 PUSH2 0xFFFF MUL NOT AND SWAP1 SSTORE PUSH1 0x0 DUP3 ADD PUSH1 0x2 PUSH2 0x100 EXP DUP2 SLOAD SWAP1 PUSH10 0xFFFFFFFFFFFFFFFFFFFF MUL NOT AND SWAP1 SSTORE PUSH1 0x0 DUP3 ADD PUSH1 0xC PUSH2 0x100 EXP DUP2 SLOAD SWAP1 PUSH20 0xFFFFFFFFFFFFFFFFFFFFFFFFFFFFFFFFFFFFFFFF MUL NOT AND SWAP1 SSTORE POP POP PUSH1 0x1 PUSH1 0xC PUSH1 0x0 DUP3 DUP3 SLOAD PUSH2 0x10E1 SWAP2 SWAP1 PUSH2 0x426A JUMP JUMPDEST SWAP3 POP POP DUP2 SWAP1 SSTORE POP PUSH32 0xE9D8194F830C159F3FA36A3722D86930569B5A9CE5265DDA89FD43F488076165 DUP6 PUSH1 0x0 PUSH1 0x1 PUSH1 0x40 MLOAD PUSH2 0x111D SWAP4 SWAP3 SWAP2 SWAP1 PUSH2 0x40DE JUMP JUMPDEST PUSH1 0x40 MLOAD DUP1 SWAP2 SUB SWAP1 LOG1 PUSH2 0x1666 JUMP JUMPDEST PUSH2 0x1132 PUSH2 0xD26 JUMP JUMPDEST PUSH1 0xFF AND SWAP2 POP PUSH1 0x6 PUSH1 0x0 DUP4 DUP2 MSTORE PUSH1 0x20 ADD SWAP1 DUP2 MSTORE PUSH1 0x20 ADD PUSH1 0x0 KECCAK256 PUSH1 0x7 PUSH1 0x0 DUP8 DUP2 MSTORE PUSH1 0x20 ADD SWAP1 DUP2 MSTORE PUSH1 0x20 ADD PUSH1 0x0 KECCAK256 SLOAD DUP2 SLOAD DUP2 LT PUSH2 0x116F JUMPI PUSH2 0x116E PUSH2 0x44E4 JUMP JUMPDEST JUMPDEST SWAP1 PUSH1 0x0 MSTORE PUSH1 0x20 PUSH1 0x0 KECCAK256 ADD PUSH1 0x40 MLOAD DUP1 PUSH1 0x60 ADD PUSH1 0x40 MSTORE SWAP1 DUP2 PUSH1 0x0 DUP3 ADD PUSH1 0x0 SWAP1 SLOAD SWAP1 PUSH2 0x100 EXP SWAP1 DIV PUSH2 0xFFFF AND PUSH2 0xFFFF AND PUSH2 0xFFFF AND DUP2 MSTORE PUSH1 0x20 ADD PUSH1 0x0 DUP3 ADD PUSH1 0x2 SWAP1 SLOAD SWAP1 PUSH2 0x100 EXP SWAP1 DIV PUSH10 0xFFFFFFFFFFFFFFFFFFFF AND PUSH10 0xFFFFFFFFFFFFFFFFFFFF AND PUSH10 0xFFFFFFFFFFFFFFFFFFFF AND DUP2 MSTORE PUSH1 0x20 ADD PUSH1 0x0 DUP3 ADD PUSH1 0xC SWAP1 SLOAD SWAP1 PUSH2 0x100 EXP SWAP1 DIV PUSH20 0xFFFFFFFFFFFFFFFFFFFFFFFFFFFFFFFFFFFFFFFF AND PUSH20 0xFFFFFFFFFFFFFFFFFFFFFFFFFFFFFFFFFFFFFFFF AND PUSH20 0xFFFFFFFFFFFFFFFFFFFFFFFFFFFFFFFFFFFFFFFF AND DUP2 MSTORE POP POP SWAP4 POP PUSH2 0x123C PUSH2 0x2F07 JUMP JUMPDEST PUSH20 0xFFFFFFFFFFFFFFFFFFFFFFFFFFFFFFFFFFFFFFFF AND DUP5 PUSH1 0x40 ADD MLOAD PUSH20 0xFFFFFFFFFFFFFFFFFFFFFFFFFFFFFFFFFFFFFFFF AND EQ PUSH2 0x12AD JUMPI PUSH1 0x40 MLOAD PUSH32 0x8C379A000000000000000000000000000000000000000000000000000000000 DUP2 MSTORE PUSH1 0x4 ADD PUSH2 0x12A4 SWAP1 PUSH2 0x3FB1 JUMP JUMPDEST PUSH1 0x40 MLOAD DUP1 SWAP2 SUB SWAP1 REVERT JUMPDEST DUP2 PUSH1 0x8 PUSH1 0x0 DUP3 DUP3 SLOAD PUSH2 0x12BF SWAP2 SWAP1 PUSH2 0x426A JUMP JUMPDEST SWAP3 POP POP DUP2 SWAP1 SSTORE POP PUSH1 0x1 PUSH1 0x0 SWAP1 SLOAD SWAP1 PUSH2 0x100 EXP SWAP1 DIV PUSH20 0xFFFFFFFFFFFFFFFFFFFFFFFFFFFFFFFFFFFFFFFF AND PUSH20 0xFFFFFFFFFFFFFFFFFFFFFFFFFFFFFFFFFFFFFFFF AND PUSH4 0xB88D4FDE ADDRESS PUSH2 0x130D PUSH2 0x2F07 JUMP JUMPDEST DUP9 PUSH1 0x40 MLOAD DUP5 PUSH4 0xFFFFFFFF AND PUSH1 0xE0 SHL DUP2 MSTORE PUSH1 0x4 ADD PUSH2 0x132C SWAP4 SWAP3 SWAP2 SWAP1 PUSH2 0x3E4C JUMP JUMPDEST PUSH1 0x0 PUSH1 0x40 MLOAD DUP1 DUP4 SUB DUP2 PUSH1 0x0 DUP8 DUP1 EXTCODESIZE ISZERO DUP1 ISZERO PUSH2 0x1346 JUMPI PUSH1 0x0 DUP1 REVERT JUMPDEST POP GAS CALL ISZERO DUP1 ISZERO PUSH2 0x135A JUMPI RETURNDATASIZE PUSH1 0x0 DUP1 RETURNDATACOPY RETURNDATASIZE PUSH1 0x0 REVERT JUMPDEST POP POP POP POP PUSH1 0x6 PUSH1 0x0 DUP4 DUP2 MSTORE PUSH1 0x20 ADD SWAP1 DUP2 MSTORE PUSH1 0x20 ADD PUSH1 0x0 KECCAK256 PUSH1 0x1 PUSH1 0x6 PUSH1 0x0 DUP6 DUP2 MSTORE PUSH1 0x20 ADD SWAP1 DUP2 MSTORE PUSH1 0x20 ADD PUSH1 0x0 KECCAK256 DUP1 SLOAD SWAP1 POP PUSH2 0x1394 SWAP2 SWAP1 PUSH2 0x426A JUMP JUMPDEST DUP2 SLOAD DUP2 LT PUSH2 0x13A5 JUMPI PUSH2 0x13A4 PUSH2 0x44E4 JUMP JUMPDEST JUMPDEST SWAP1 PUSH1 0x0 MSTORE PUSH1 0x20 PUSH1 0x0 KECCAK256 ADD PUSH1 0x40 MLOAD DUP1 PUSH1 0x60 ADD PUSH1 0x40 MSTORE SWAP1 DUP2 PUSH1 0x0 DUP3 ADD PUSH1 0x0 SWAP1 SLOAD SWAP1 PUSH2 0x100 EXP SWAP1 DIV PUSH2 0xFFFF AND PUSH2 0xFFFF AND PUSH2 0xFFFF AND DUP2 MSTORE PUSH1 0x20 ADD PUSH1 0x0 DUP3 ADD PUSH1 0x2 SWAP1 SLOAD SWAP1 PUSH2 0x100 EXP SWAP1 DIV PUSH10 0xFFFFFFFFFFFFFFFFFFFF AND PUSH10 0xFFFFFFFFFFFFFFFFFFFF AND PUSH10 0xFFFFFFFFFFFFFFFFFFFF AND DUP2 MSTORE PUSH1 0x20 ADD PUSH1 0x0 DUP3 ADD PUSH1 0xC SWAP1 SLOAD SWAP1 PUSH2 0x100 EXP SWAP1 DIV PUSH20 0xFFFFFFFFFFFFFFFFFFFFFFFFFFFFFFFFFFFFFFFF AND PUSH20 0xFFFFFFFFFFFFFFFFFFFFFFFFFFFFFFFFFFFFFFFF AND PUSH20 0xFFFFFFFFFFFFFFFFFFFFFFFFFFFFFFFFFFFFFFFF AND DUP2 MSTORE POP POP SWAP3 POP DUP3 PUSH1 0x6 PUSH1 0x0 DUP5 DUP2 MSTORE PUSH1 0x20 ADD SWAP1 DUP2 MSTORE PUSH1 0x20 ADD PUSH1 0x0 KECCAK256 PUSH1 0x7 PUSH1 0x0 DUP9 DUP2 MSTORE PUSH1 0x20 ADD SWAP1 DUP2 MSTORE PUSH1 0x20 ADD PUSH1 0x0 KECCAK256 SLOAD DUP2 SLOAD DUP2 LT PUSH2 0x14A3 JUMPI PUSH2 0x14A2 PUSH2 0x44E4 JUMP JUMPDEST JUMPDEST SWAP1 PUSH1 0x0 MSTORE PUSH1 0x20 PUSH1 0x0 KECCAK256 ADD PUSH1 0x0 DUP3 ADD MLOAD DUP2 PUSH1 0x0 ADD PUSH1 0x0 PUSH2 0x100 EXP DUP2 SLOAD DUP2 PUSH2 0xFFFF MUL NOT AND SWAP1 DUP4 PUSH2 0xFFFF AND MUL OR SWAP1 SSTORE POP PUSH1 0x20 DUP3 ADD MLOAD DUP2 PUSH1 0x0 ADD PUSH1 0x2 PUSH2 0x100 EXP DUP2 SLOAD DUP2 PUSH10 0xFFFFFFFFFFFFFFFFFFFF MUL NOT AND SWAP1 DUP4 PUSH10 0xFFFFFFFFFFFFFFFFFFFF AND MUL OR SWAP1 SSTORE POP PUSH1 0x40 DUP3 ADD MLOAD DUP2 PUSH1 0x0 ADD PUSH1 0xC PUSH2 0x100 EXP DUP2 SLOAD DUP2 PUSH20 0xFFFFFFFFFFFFFFFFFFFFFFFFFFFFFFFFFFFFFFFF MUL NOT AND SWAP1 DUP4 PUSH20 0xFFFFFFFFFFFFFFFFFFFFFFFFFFFFFFFFFFFFFFFF AND MUL OR SWAP1 SSTORE POP SWAP1 POP POP PUSH1 0x7 PUSH1 0x0 DUP7 DUP2 MSTORE PUSH1 0x20 ADD SWAP1 DUP2 MSTORE PUSH1 0x20 ADD PUSH1 0x0 KECCAK256 SLOAD PUSH1 0x7 PUSH1 0x0 DUP6 PUSH1 0x0 ADD MLOAD PUSH2 0xFFFF AND DUP2 MSTORE PUSH1 0x20 ADD SWAP1 DUP2 MSTORE PUSH1 0x20 ADD PUSH1 0x0 KECCAK256 DUP2 SWAP1 SSTORE POP PUSH1 0x6 PUSH1 0x0 DUP4 DUP2 MSTORE PUSH1 0x20 ADD SWAP1 DUP2 MSTORE PUSH1 0x20 ADD PUSH1 0x0 KECCAK256 DUP1 SLOAD DUP1 PUSH2 0x15A3 JUMPI PUSH2 0x15A2 PUSH2 0x44B5 JUMP JUMPDEST JUMPDEST PUSH1 0x1 SWAP1 SUB DUP2 DUP2 SWAP1 PUSH1 0x0 MSTORE PUSH1 0x20 PUSH1 0x0 KECCAK256 ADD PUSH1 0x0 DUP1 DUP3 ADD PUSH1 0x0 PUSH2 0x100 EXP DUP2 SLOAD SWAP1 PUSH2 0xFFFF MUL NOT AND SWAP1 SSTORE PUSH1 0x0 DUP3 ADD PUSH1 0x2 PUSH2 0x100 EXP DUP2 SLOAD SWAP1 PUSH10 0xFFFFFFFFFFFFFFFFFFFF MUL NOT AND SWAP1 SSTORE PUSH1 0x0 DUP3 ADD PUSH1 0xC PUSH2 0x100 EXP DUP2 SLOAD SWAP1 PUSH20 0xFFFFFFFFFFFFFFFFFFFFFFFFFFFFFFFFFFFFFFFF MUL NOT AND SWAP1 SSTORE POP POP SWAP1 SSTORE PUSH1 0x7 PUSH1 0x0 DUP7 DUP2 MSTORE PUSH1 0x20 ADD SWAP1 DUP2 MSTORE PUSH1 0x20 ADD PUSH1 0x0 KECCAK256 PUSH1 0x0 SWAP1 SSTORE PUSH32 0xF65D435564B020FCB9D6F56608C9333A6CF42914EEDDFBAC41A764DA73667DE1 DUP6 PUSH1 0x0 PUSH1 0x1 PUSH1 0x40 MLOAD PUSH2 0x165D SWAP4 SWAP3 SWAP2 SWAP1 PUSH2 0x40DE JUMP JUMPDEST PUSH1 0x40 MLOAD DUP1 SWAP2 SUB SWAP1 LOG1 JUMPDEST DUP1 DUP1 PUSH2 0x1671 SWAP1 PUSH2 0x43A5 JUMP JUMPDEST SWAP2 POP POP PUSH2 0xDAA JUMP JUMPDEST POP POP POP POP POP POP POP JUMP JUMPDEST PUSH1 0x4 PUSH1 0x20 MSTORE DUP2 PUSH1 0x0 MSTORE PUSH1 0x40 PUSH1 0x0 KECCAK256 DUP2 DUP2 SLOAD DUP2 LT PUSH2 0x169E JUMPI PUSH1 0x0 DUP1 REVERT JUMPDEST SWAP1 PUSH1 0x0 MSTORE PUSH1 0x20 PUSH1 0x0 KECCAK256 ADD PUSH1 0x0 SWAP2 POP SWAP2 POP POP SLOAD DUP2 JUMP JUMPDEST PUSH1 0x7 PUSH1 0x20 MSTORE DUP1 PUSH1 0x0 MSTORE PUSH1 0x40 PUSH1 0x0 KECCAK256 PUSH1 0x0 SWAP2 POP SWAP1 POP SLOAD DUP2 JUMP JUMPDEST PUSH1 0x8 SLOAD DUP2 JUMP JUMPDEST PUSH2 0x16D9 PUSH2 0x2F07 JUMP JUMPDEST PUSH20 0xFFFFFFFFFFFFFFFFFFFFFFFFFFFFFFFFFFFFFFFF AND PUSH2 0x16F7 PUSH2 0x1CEA JUMP JUMPDEST PUSH20 0xFFFFFFFFFFFFFFFFFFFFFFFFFFFFFFFFFFFFFFFF AND EQ PUSH2 0x174D JUMPI PUSH1 0x40 MLOAD PUSH32 0x8C379A000000000000000000000000000000000000000000000000000000000 DUP2 MSTORE PUSH1 0x4 ADD PUSH2 0x1744 SWAP1 PUSH2 0x4011 JUMP JUMPDEST PUSH1 0x40 MLOAD DUP1 SWAP2 SUB SWAP1 REVERT JUMPDEST PUSH2 0x1757 PUSH1 0x0 PUSH2 0x3053 JUMP JUMPDEST JUMP JUMPDEST PUSH2 0x1761 PUSH2 0x2F07 JUMP JUMPDEST PUSH20 0xFFFFFFFFFFFFFFFFFFFFFFFFFFFFFFFFFFFFFFFF AND PUSH2 0x177F PUSH2 0x1CEA JUMP JUMPDEST PUSH20 0xFFFFFFFFFFFFFFFFFFFFFFFFFFFFFFFFFFFFFFFF AND EQ PUSH2 0x17D5 JUMPI PUSH1 0x40 MLOAD PUSH32 0x8C379A000000000000000000000000000000000000000000000000000000000 DUP2 MSTORE PUSH1 0x4 ADD PUSH2 0x17CC SWAP1 PUSH2 0x4011 JUMP JUMPDEST PUSH1 0x40 MLOAD DUP1 SWAP2 SUB SWAP1 REVERT JUMPDEST DUP1 PUSH1 0xE PUSH1 0x0 PUSH2 0x100 EXP DUP2 SLOAD DUP2 PUSH1 0xFF MUL NOT AND SWAP1 DUP4 ISZERO ISZERO MUL OR SWAP1 SSTORE POP POP JUMP JUMPDEST PUSH1 0xC SLOAD DUP2 JUMP JUMPDEST PUSH2 0x1800 PUSH2 0x2F07 JUMP JUMPDEST PUSH20 0xFFFFFFFFFFFFFFFFFFFFFFFFFFFFFFFFFFFFFFFF AND DUP4 PUSH20 0xFFFFFFFFFFFFFFFFFFFFFFFFFFFFFFFFFFFFFFFF AND EQ DUP1 PUSH2 0x188D JUMPI POP PUSH1 0x1 PUSH1 0x0 SWAP1 SLOAD SWAP1 PUSH2 0x100 EXP SWAP1 DIV PUSH20 0xFFFFFFFFFFFFFFFFFFFFFFFFFFFFFFFFFFFFFFFF AND PUSH20 0xFFFFFFFFFFFFFFFFFFFFFFFFFFFFFFFFFFFFFFFF AND PUSH2 0x1875 PUSH2 0x2F07 JUMP JUMPDEST PUSH20 0xFFFFFFFFFFFFFFFFFFFFFFFFFFFFFFFFFFFFFFFF AND EQ JUMPDEST PUSH2 0x18CC JUMPI PUSH1 0x40 MLOAD PUSH32 0x8C379A000000000000000000000000000000000000000000000000000000000 DUP2 MSTORE PUSH1 0x4 ADD PUSH2 0x18C3 SWAP1 PUSH2 0x4031 JUMP JUMPDEST PUSH1 0x40 MLOAD DUP1 SWAP2 SUB SWAP1 REVERT JUMPDEST PUSH1 0x0 JUMPDEST DUP3 DUP3 SWAP1 POP DUP2 LT ISZERO PUSH2 0x1CD4 JUMPI PUSH1 0x1 PUSH1 0x0 SWAP1 SLOAD SWAP1 PUSH2 0x100 EXP SWAP1 DIV PUSH20 0xFFFFFFFFFFFFFFFFFFFFFFFFFFFFFFFFFFFFFFFF AND PUSH20 0xFFFFFFFFFFFFFFFFFFFFFFFFFFFFFFFFFFFFFFFF AND PUSH2 0x191B PUSH2 0x2F07 JUMP JUMPDEST PUSH20 0xFFFFFFFFFFFFFFFFFFFFFFFFFFFFFFFFFFFFFFFF AND EQ PUSH2 0x1B40 JUMPI PUSH2 0x193E PUSH2 0x2F07 JUMP JUMPDEST PUSH20 0xFFFFFFFFFFFFFFFFFFFFFFFFFFFFFFFFFFFFFFFF AND PUSH1 0x1 PUSH1 0x0 SWAP1 SLOAD SWAP1 PUSH2 0x100 EXP SWAP1 DIV PUSH20 0xFFFFFFFFFFFFFFFFFFFFFFFFFFFFFFFFFFFFFFFF AND PUSH20 0xFFFFFFFFFFFFFFFFFFFFFFFFFFFFFFFFFFFFFFFF AND PUSH4 0x6352211E DUP6 DUP6 DUP6 DUP2 DUP2 LT PUSH2 0x19A5 JUMPI PUSH2 0x19A4 PUSH2 0x44E4 JUMP JUMPDEST JUMPDEST SWAP1 POP PUSH1 0x20 MUL ADD PUSH1 0x20 DUP2 ADD SWAP1 PUSH2 0x19BA SWAP2 SWAP1 PUSH2 0x3AA2 JUMP JUMPDEST PUSH1 0x40 MLOAD DUP3 PUSH4 0xFFFFFFFF AND PUSH1 0xE0 SHL DUP2 MSTORE PUSH1 0x4 ADD PUSH2 0x19D6 SWAP2 SWAP1 PUSH2 0x4071 JUMP JUMPDEST PUSH1 0x20 PUSH1 0x40 MLOAD DUP1 DUP4 SUB DUP2 DUP7 DUP1 EXTCODESIZE ISZERO DUP1 ISZERO PUSH2 0x19EE JUMPI PUSH1 0x0 DUP1 REVERT JUMPDEST POP GAS STATICCALL ISZERO DUP1 ISZERO PUSH2 0x1A02 JUMPI RETURNDATASIZE PUSH1 0x0 DUP1 RETURNDATACOPY RETURNDATASIZE PUSH1 0x0 REVERT JUMPDEST POP POP POP POP PUSH1 0x40 MLOAD RETURNDATASIZE PUSH1 0x1F NOT PUSH1 0x1F DUP3 ADD AND DUP3 ADD DUP1 PUSH1 0x40 MSTORE POP DUP2 ADD SWAP1 PUSH2 0x1A26 SWAP2 SWAP1 PUSH2 0x3846 JUMP JUMPDEST PUSH20 0xFFFFFFFFFFFFFFFFFFFFFFFFFFFFFFFFFFFFFFFF AND EQ PUSH2 0x1A7C JUMPI PUSH1 0x40 MLOAD PUSH32 0x8C379A000000000000000000000000000000000000000000000000000000000 DUP2 MSTORE PUSH1 0x4 ADD PUSH2 0x1A73 SWAP1 PUSH2 0x4051 JUMP JUMPDEST PUSH1 0x40 MLOAD DUP1 SWAP2 SUB SWAP1 REVERT JUMPDEST PUSH1 0x1 PUSH1 0x0 SWAP1 SLOAD SWAP1 PUSH2 0x100 EXP SWAP1 DIV PUSH20 0xFFFFFFFFFFFFFFFFFFFFFFFFFFFFFFFFFFFFFFFF AND PUSH20 0xFFFFFFFFFFFFFFFFFFFFFFFFFFFFFFFFFFFFFFFF AND PUSH4 0x23B872DD PUSH2 0x1AC2 PUSH2 0x2F07 JUMP JUMPDEST ADDRESS DUP7 DUP7 DUP7 DUP2 DUP2 LT PUSH2 0x1AD6 JUMPI PUSH2 0x1AD5 PUSH2 0x44E4 JUMP JUMPDEST JUMPDEST SWAP1 POP PUSH1 0x20 MUL ADD PUSH1 0x20 DUP2 ADD SWAP1 PUSH2 0x1AEB SWAP2 SWAP1 PUSH2 0x3AA2 JUMP JUMPDEST PUSH1 0x40 MLOAD DUP5 PUSH4 0xFFFFFFFF AND PUSH1 0xE0 SHL DUP2 MSTORE PUSH1 0x4 ADD PUSH2 0x1B09 SWAP4 SWAP3 SWAP2 SWAP1 PUSH2 0x3E15 JUMP JUMPDEST PUSH1 0x0 PUSH1 0x40 MLOAD DUP1 DUP4 SUB DUP2 PUSH1 0x0 DUP8 DUP1 EXTCODESIZE ISZERO DUP1 ISZERO PUSH2 0x1B23 JUMPI PUSH1 0x0 DUP1 REVERT JUMPDEST POP GAS CALL ISZERO DUP1 ISZERO PUSH2 0x1B37 JUMPI RETURNDATASIZE PUSH1 0x0 DUP1 RETURNDATACOPY RETURNDATASIZE PUSH1 0x0 REVERT JUMPDEST POP POP POP POP PUSH2 0x1B7A JUMP JUMPDEST PUSH1 0x0 DUP4 DUP4 DUP4 DUP2 DUP2 LT PUSH2 0x1B55 JUMPI PUSH2 0x1B54 PUSH2 0x44E4 JUMP JUMPDEST JUMPDEST SWAP1 POP PUSH1 0x20 MUL ADD PUSH1 0x20 DUP2 ADD SWAP1 PUSH2 0x1B6A SWAP2 SWAP1 PUSH2 0x3AA2 JUMP JUMPDEST PUSH2 0xFFFF AND EQ ISZERO PUSH2 0x1B79 JUMPI PUSH2 0x1CC1 JUMP JUMPDEST JUMPDEST PUSH1 0x1 PUSH1 0x0 SWAP1 SLOAD SWAP1 PUSH2 0x100 EXP SWAP1 DIV PUSH20 0xFFFFFFFFFFFFFFFFFFFFFFFFFFFFFFFFFFFFFFFF AND PUSH20 0xFFFFFFFFFFFFFFFFFFFFFFFFFFFFFFFFFFFFFFFF AND PUSH4 0xAF1AF34A DUP5 DUP5 DUP5 DUP2 DUP2 LT PUSH2 0x1BCB JUMPI PUSH2 0x1BCA PUSH2 0x44E4 JUMP JUMPDEST JUMPDEST SWAP1 POP PUSH1 0x20 MUL ADD PUSH1 0x20 DUP2 ADD SWAP1 PUSH2 0x1BE0 SWAP2 SWAP1 PUSH2 0x3AA2 JUMP JUMPDEST PUSH1 0x40 MLOAD DUP3 PUSH4 0xFFFFFFFF AND PUSH1 0xE0 SHL DUP2 MSTORE PUSH1 0x4 ADD PUSH2 0x1BFC SWAP2 SWAP1 PUSH2 0x4071 JUMP JUMPDEST PUSH1 0x20 PUSH1 0x40 MLOAD DUP1 DUP4 SUB DUP2 DUP7 DUP1 EXTCODESIZE ISZERO DUP1 ISZERO PUSH2 0x1C14 JUMPI PUSH1 0x0 DUP1 REVERT JUMPDEST POP GAS STATICCALL ISZERO DUP1 ISZERO PUSH2 0x1C28 JUMPI RETURNDATASIZE PUSH1 0x0 DUP1 RETURNDATACOPY RETURNDATASIZE PUSH1 0x0 REVERT JUMPDEST POP POP POP POP PUSH1 0x40 MLOAD RETURNDATASIZE PUSH1 0x1F NOT PUSH1 0x1F DUP3 ADD AND DUP3 ADD DUP1 PUSH1 0x40 MSTORE POP DUP2 ADD SWAP1 PUSH2 0x1C4C SWAP2 SWAP1 PUSH2 0x3A75 JUMP JUMPDEST PUSH2 0x1C8A JUMPI PUSH2 0x1C85 DUP5 DUP5 DUP5 DUP5 DUP2 DUP2 LT PUSH2 0x1C67 JUMPI PUSH2 0x1C66 PUSH2 0x44E4 JUMP JUMPDEST JUMPDEST SWAP1 POP PUSH1 0x20 MUL ADD PUSH1 0x20 DUP2 ADD SWAP1 PUSH2 0x1C7C SWAP2 SWAP1 PUSH2 0x3AA2 JUMP JUMPDEST PUSH2 0xFFFF AND PUSH2 0x3117 JUMP JUMPDEST PUSH2 0x1CC0 JUMP JUMPDEST PUSH2 0x1CBF DUP5 DUP5 DUP5 DUP5 DUP2 DUP2 LT PUSH2 0x1CA1 JUMPI PUSH2 0x1CA0 PUSH2 0x44E4 JUMP JUMPDEST JUMPDEST SWAP1 POP PUSH1 0x20 MUL ADD PUSH1 0x20 DUP2 ADD SWAP1 PUSH2 0x1CB6 SWAP2 SWAP1 PUSH2 0x3AA2 JUMP JUMPDEST PUSH2 0xFFFF AND PUSH2 0x3389 JUMP JUMPDEST JUMPDEST JUMPDEST DUP1 DUP1 PUSH2 0x1CCC SWAP1 PUSH2 0x43A5 JUMP JUMPDEST SWAP2 POP POP PUSH2 0x18CF JUMP JUMPDEST POP POP POP POP JUMP JUMPDEST PUSH12 0x7C13BC4B2C133C560000000 DUP2 JUMP JUMPDEST PUSH1 0x0 DUP1 PUSH1 0x0 SWAP1 SLOAD SWAP1 PUSH2 0x100 EXP SWAP1 DIV PUSH20 0xFFFFFFFFFFFFFFFFFFFFFFFFFFFFFFFFFFFFFFFF AND SWAP1 POP SWAP1 JUMP JUMPDEST PUSH1 0x0 PUSH1 0x4 PUSH1 0x0 DUP5 PUSH20 0xFFFFFFFFFFFFFFFFFFFFFFFFFFFFFFFFFFFFFFFF AND PUSH20 0xFFFFFFFFFFFFFFFFFFFFFFFFFFFFFFFFFFFFFFFF AND DUP2 MSTORE PUSH1 0x20 ADD SWAP1 DUP2 MSTORE PUSH1 0x20 ADD PUSH1 0x0 KECCAK256 DUP3 DUP2 SLOAD DUP2 LT PUSH2 0x1D66 JUMPI PUSH2 0x1D65 PUSH2 0x44E4 JUMP JUMPDEST JUMPDEST SWAP1 PUSH1 0x0 MSTORE PUSH1 0x20 PUSH1 0x0 KECCAK256 ADD SLOAD SWAP1 POP SWAP3 SWAP2 POP POP JUMP JUMPDEST PUSH1 0x0 PUSH1 0x3 PUSH1 0x0 DUP4 PUSH20 0xFFFFFFFFFFFFFFFFFFFFFFFFFFFFFFFFFFFFFFFF AND PUSH20 0xFFFFFFFFFFFFFFFFFFFFFFFFFFFFFFFFFFFFFFFF AND DUP2 MSTORE PUSH1 0x20 ADD SWAP1 DUP2 MSTORE PUSH1 0x20 ADD PUSH1 0x0 KECCAK256 DUP1 SLOAD SWAP1 POP SWAP1 POP SWAP2 SWAP1 POP JUMP JUMPDEST PUSH1 0x3 PUSH1 0x20 MSTORE DUP2 PUSH1 0x0 MSTORE PUSH1 0x40 PUSH1 0x0 KECCAK256 DUP2 DUP2 SLOAD DUP2 LT PUSH2 0x1DE1 JUMPI PUSH1 0x0 DUP1 REVERT JUMPDEST SWAP1 PUSH1 0x0 MSTORE PUSH1 0x20 PUSH1 0x0 KECCAK256 ADD PUSH1 0x0 SWAP2 POP SWAP2 POP POP SLOAD DUP2 JUMP JUMPDEST PUSH1 0x9 SLOAD DUP2 JUMP JUMPDEST PUSH1 0xA SLOAD DUP2 JUMP JUMPDEST PUSH1 0x6 PUSH1 0x20 MSTORE DUP2 PUSH1 0x0 MSTORE PUSH1 0x40 PUSH1 0x0 KECCAK256 DUP2 DUP2 SLOAD DUP2 LT PUSH2 0x1E1E JUMPI PUSH1 0x0 DUP1 REVERT JUMPDEST SWAP1 PUSH1 0x0 MSTORE PUSH1 0x20 PUSH1 0x0 KECCAK256 ADD PUSH1 0x0 SWAP2 POP SWAP2 POP POP DUP1 PUSH1 0x0 ADD PUSH1 0x0 SWAP1 SLOAD SWAP1 PUSH2 0x100 EXP SWAP1 DIV PUSH2 0xFFFF AND SWAP1 DUP1 PUSH1 0x0 ADD PUSH1 0x2 SWAP1 SLOAD SWAP1 PUSH2 0x100 EXP SWAP1 DIV PUSH10 0xFFFFFFFFFFFFFFFFFFFF AND SWAP1 DUP1 PUSH1 0x0 ADD PUSH1 0xC SWAP1 SLOAD SWAP1 PUSH2 0x100 EXP SWAP1 DIV PUSH20 0xFFFFFFFFFFFFFFFFFFFFFFFFFFFFFFFFFFFFFFFF AND SWAP1 POP DUP4 JUMP JUMPDEST PUSH2 0x1E91 PUSH2 0x2F07 JUMP JUMPDEST PUSH20 0xFFFFFFFFFFFFFFFFFFFFFFFFFFFFFFFFFFFFFFFF AND PUSH2 0x1EAF PUSH2 0x1CEA JUMP JUMPDEST PUSH20 0xFFFFFFFFFFFFFFFFFFFFFFFFFFFFFFFFFFFFFFFF AND EQ PUSH2 0x1F05 JUMPI PUSH1 0x40 MLOAD PUSH32 0x8C379A000000000000000000000000000000000000000000000000000000000 DUP2 MSTORE PUSH1 0x4 ADD PUSH2 0x1EFC SWAP1 PUSH2 0x4011 JUMP JUMPDEST PUSH1 0x40 MLOAD DUP1 SWAP2 SUB SWAP1 REVERT JUMPDEST PUSH1 0x0 PUSH20 0xFFFFFFFFFFFFFFFFFFFFFFFFFFFFFFFFFFFFFFFF AND DUP2 PUSH20 0xFFFFFFFFFFFFFFFFFFFFFFFFFFFFFFFFFFFFFFFF AND EQ ISZERO PUSH2 0x1F75 JUMPI PUSH1 0x40 MLOAD PUSH32 0x8C379A000000000000000000000000000000000000000000000000000000000 DUP2 MSTORE PUSH1 0x4 ADD PUSH2 0x1F6C SWAP1 PUSH2 0x3F51 JUMP JUMPDEST PUSH1 0x40 MLOAD DUP1 SWAP2 SUB SWAP1 REVERT JUMPDEST PUSH2 0x1F7E DUP2 PUSH2 0x3053 JUMP JUMPDEST POP JUMP JUMPDEST PUSH1 0x0 DUP1 PUSH1 0x5 PUSH1 0x0 DUP6 DUP2 MSTORE PUSH1 0x20 ADD SWAP1 DUP2 MSTORE PUSH1 0x20 ADD PUSH1 0x0 KECCAK256 PUSH1 0x40 MLOAD DUP1 PUSH1 0x60 ADD PUSH1 0x40 MSTORE SWAP1 DUP2 PUSH1 0x0 DUP3 ADD PUSH1 0x0 SWAP1 SLOAD SWAP1 PUSH2 0x100 EXP SWAP1 DIV PUSH2 0xFFFF AND PUSH2 0xFFFF AND PUSH2 0xFFFF AND DUP2 MSTORE PUSH1 0x20 ADD PUSH1 0x0 DUP3 ADD PUSH1 0x2 SWAP1 SLOAD SWAP1 PUSH2 0x100 EXP SWAP1 DIV PUSH10 0xFFFFFFFFFFFFFFFFFFFF AND PUSH10 0xFFFFFFFFFFFFFFFFFFFF AND PUSH10 0xFFFFFFFFFFFFFFFFFFFF AND DUP2 MSTORE PUSH1 0x20 ADD PUSH1 0x0 DUP3 ADD PUSH1 0xC SWAP1 SLOAD SWAP1 PUSH2 0x100 EXP SWAP1 DIV PUSH20 0xFFFFFFFFFFFFFFFFFFFFFFFFFFFFFFFFFFFFFFFF AND PUSH20 0xFFFFFFFFFFFFFFFFFFFFFFFFFFFFFFFFFFFFFFFF AND PUSH20 0xFFFFFFFFFFFFFFFFFFFFFFFFFFFFFFFFFFFFFFFF AND DUP2 MSTORE POP POP SWAP1 POP PUSH2 0x205A PUSH2 0x2F07 JUMP JUMPDEST PUSH20 0xFFFFFFFFFFFFFFFFFFFFFFFFFFFFFFFFFFFFFFFF AND DUP2 PUSH1 0x40 ADD MLOAD PUSH20 0xFFFFFFFFFFFFFFFFFFFFFFFFFFFFFFFFFFFFFFFF AND EQ PUSH2 0x20CB JUMPI PUSH1 0x40 MLOAD PUSH32 0x8C379A000000000000000000000000000000000000000000000000000000000 DUP2 MSTORE PUSH1 0x4 ADD PUSH2 0x20C2 SWAP1 PUSH2 0x3FB1 JUMP JUMPDEST PUSH1 0x40 MLOAD DUP1 SWAP2 SUB SWAP1 REVERT JUMPDEST DUP3 DUP1 ISZERO PUSH2 0x20F5 JUMPI POP PUSH3 0x2A300 DUP2 PUSH1 0x20 ADD MLOAD PUSH10 0xFFFFFFFFFFFFFFFFFFFF AND TIMESTAMP PUSH2 0x20F3 SWAP2 SWAP1 PUSH2 0x426A JUMP JUMPDEST LT JUMPDEST ISZERO PUSH2 0x2135 JUMPI PUSH1 0x40 MLOAD PUSH32 0x8C379A000000000000000000000000000000000000000000000000000000000 DUP2 MSTORE PUSH1 0x4 ADD PUSH2 0x212C SWAP1 PUSH2 0x3FF1 JUMP JUMPDEST PUSH1 0x40 MLOAD DUP1 SWAP2 SUB SWAP1 REVERT JUMPDEST PUSH12 0x7C13BC4B2C133C560000000 PUSH1 0xB SLOAD LT ISZERO PUSH2 0x2191 JUMPI PUSH3 0x15180 PUSH10 0x21E19E0C9BAB2400000 DUP3 PUSH1 0x20 ADD MLOAD PUSH10 0xFFFFFFFFFFFFFFFFFFFF AND TIMESTAMP PUSH2 0x2176 SWAP2 SWAP1 PUSH2 0x426A JUMP JUMPDEST PUSH2 0x2180 SWAP2 SWAP1 PUSH2 0x4210 JUMP JUMPDEST PUSH2 0x218A SWAP2 SWAP1 PUSH2 0x41DF JUMP JUMPDEST SWAP2 POP PUSH2 0x21F9 JUMP JUMPDEST PUSH1 0xD SLOAD DUP2 PUSH1 0x20 ADD MLOAD PUSH10 0xFFFFFFFFFFFFFFFFFFFF AND GT ISZERO PUSH2 0x21B4 JUMPI PUSH1 0x0 SWAP2 POP PUSH2 0x21F8 JUMP JUMPDEST PUSH3 0x15180 PUSH10 0x21E19E0C9BAB2400000 DUP3 PUSH1 0x20 ADD MLOAD PUSH10 0xFFFFFFFFFFFFFFFFFFFF AND PUSH1 0xD SLOAD PUSH2 0x21E1 SWAP2 SWAP1 PUSH2 0x426A JUMP JUMPDEST PUSH2 0x21EB SWAP2 SWAP1 PUSH2 0x4210 JUMP JUMPDEST PUSH2 0x21F5 SWAP2 SWAP1 PUSH2 0x41DF JUMP JUMPDEST SWAP2 POP JUMPDEST JUMPDEST DUP3 ISZERO PUSH2 0x2481 JUMPI PUSH1 0x1 DUP1 PUSH2 0x220B DUP7 PUSH2 0x35A4 JUMP JUMPDEST AND EQ ISZERO PUSH2 0x2220 JUMPI PUSH2 0x221B DUP3 PUSH2 0x35EA JUMP JUMPDEST PUSH1 0x0 SWAP2 POP JUMPDEST PUSH1 0x1 PUSH1 0x0 SWAP1 SLOAD SWAP1 PUSH2 0x100 EXP SWAP1 DIV PUSH20 0xFFFFFFFFFFFFFFFFFFFFFFFFFFFFFFFFFFFFFFFF AND PUSH20 0xFFFFFFFFFFFFFFFFFFFFFFFFFFFFFFFFFFFFFFFF AND PUSH4 0xB88D4FDE ADDRESS PUSH2 0x2267 PUSH2 0x2F07 JUMP JUMPDEST DUP8 PUSH1 0x40 MLOAD DUP5 PUSH4 0xFFFFFFFF AND PUSH1 0xE0 SHL DUP2 MSTORE PUSH1 0x4 ADD PUSH2 0x2286 SWAP4 SWAP3 SWAP2 SWAP1 PUSH2 0x3E4C JUMP JUMPDEST PUSH1 0x0 PUSH1 0x40 MLOAD DUP1 DUP4 SUB DUP2 PUSH1 0x0 DUP8 DUP1 EXTCODESIZE ISZERO DUP1 ISZERO PUSH2 0x22A0 JUMPI PUSH1 0x0 DUP1 REVERT JUMPDEST POP GAS CALL ISZERO DUP1 ISZERO PUSH2 0x22B4 JUMPI RETURNDATASIZE PUSH1 0x0 DUP1 RETURNDATACOPY RETURNDATASIZE PUSH1 0x0 REVERT JUMPDEST POP POP POP POP PUSH1 0x5 PUSH1 0x0 DUP6 DUP2 MSTORE PUSH1 0x20 ADD SWAP1 DUP2 MSTORE PUSH1 0x20 ADD PUSH1 0x0 KECCAK256 PUSH1 0x0 DUP1 DUP3 ADD PUSH1 0x0 PUSH2 0x100 EXP DUP2 SLOAD SWAP1 PUSH2 0xFFFF MUL NOT AND SWAP1 SSTORE PUSH1 0x0 DUP3 ADD PUSH1 0x2 PUSH2 0x100 EXP DUP2 SLOAD SWAP1 PUSH10 0xFFFFFFFFFFFFFFFFFFFF MUL NOT AND SWAP1 SSTORE PUSH1 0x0 DUP3 ADD PUSH1 0xC PUSH2 0x100 EXP DUP2 SLOAD SWAP1 PUSH20 0xFFFFFFFFFFFFFFFFFFFFFFFFFFFFFFFFFFFFFFFF MUL NOT AND SWAP1 SSTORE POP POP PUSH1 0x1 PUSH1 0xC PUSH1 0x0 DUP3 DUP3 SLOAD PUSH2 0x233A SWAP2 SWAP1 PUSH2 0x426A JUMP JUMPDEST SWAP3 POP POP DUP2 SWAP1 SSTORE POP PUSH1 0x0 JUMPDEST PUSH1 0x3 PUSH1 0x0 PUSH2 0x2350 PUSH2 0x2F07 JUMP JUMPDEST PUSH20 0xFFFFFFFFFFFFFFFFFFFFFFFFFFFFFFFFFFFFFFFF AND PUSH20 0xFFFFFFFFFFFFFFFFFFFFFFFFFFFFFFFFFFFFFFFF AND DUP2 MSTORE PUSH1 0x20 ADD SWAP1 DUP2 MSTORE PUSH1 0x20 ADD PUSH1 0x0 KECCAK256 DUP1 SLOAD SWAP1 POP DUP2 LT ISZERO PUSH2 0x247B JUMPI DUP5 PUSH1 0x3 PUSH1 0x0 PUSH2 0x23A2 PUSH2 0x2F07 JUMP JUMPDEST PUSH20 0xFFFFFFFFFFFFFFFFFFFFFFFFFFFFFFFFFFFFFFFF AND PUSH20 0xFFFFFFFFFFFFFFFFFFFFFFFFFFFFFFFFFFFFFFFF AND DUP2 MSTORE PUSH1 0x20 ADD SWAP1 DUP2 MSTORE PUSH1 0x20 ADD PUSH1 0x0 KECCAK256 DUP3 DUP2 SLOAD DUP2 LT PUSH2 0x23EE JUMPI PUSH2 0x23ED PUSH2 0x44E4 JUMP JUMPDEST JUMPDEST SWAP1 PUSH1 0x0 MSTORE PUSH1 0x20 PUSH1 0x0 KECCAK256 ADD SLOAD EQ ISZERO PUSH2 0x2468 JUMPI PUSH1 0x0 PUSH1 0x3 PUSH1 0x0 PUSH2 0x240D PUSH2 0x2F07 JUMP JUMPDEST PUSH20 0xFFFFFFFFFFFFFFFFFFFFFFFFFFFFFFFFFFFFFFFF AND PUSH20 0xFFFFFFFFFFFFFFFFFFFFFFFFFFFFFFFFFFFFFFFF AND DUP2 MSTORE PUSH1 0x20 ADD SWAP1 DUP2 MSTORE PUSH1 0x20 ADD PUSH1 0x0 KECCAK256 DUP3 DUP2 SLOAD DUP2 LT PUSH2 0x2459 JUMPI PUSH2 0x2458 PUSH2 0x44E4 JUMP JUMPDEST JUMPDEST SWAP1 PUSH1 0x0 MSTORE PUSH1 0x20 PUSH1 0x0 KECCAK256 ADD DUP2 SWAP1 SSTORE POP JUMPDEST DUP1 DUP1 PUSH2 0x2473 SWAP1 PUSH2 0x43A5 JUMP JUMPDEST SWAP2 POP POP PUSH2 0x2344 JUMP JUMPDEST POP PUSH2 0x25C5 JUMP JUMPDEST PUSH2 0x24A2 PUSH1 0x64 PUSH1 0x14 DUP5 PUSH2 0x2493 SWAP2 SWAP1 PUSH2 0x4210 JUMP JUMPDEST PUSH2 0x249D SWAP2 SWAP1 PUSH2 0x41DF JUMP JUMPDEST PUSH2 0x35EA JUMP JUMPDEST PUSH1 0x64 PUSH1 0x14 PUSH1 0x64 PUSH2 0x24B2 SWAP2 SWAP1 PUSH2 0x426A JUMP JUMPDEST DUP4 PUSH2 0x24BD SWAP2 SWAP1 PUSH2 0x4210 JUMP JUMPDEST PUSH2 0x24C7 SWAP2 SWAP1 PUSH2 0x41DF JUMP JUMPDEST SWAP2 POP PUSH1 0x40 MLOAD DUP1 PUSH1 0x60 ADD PUSH1 0x40 MSTORE DUP1 DUP6 PUSH2 0xFFFF AND DUP2 MSTORE PUSH1 0x20 ADD TIMESTAMP PUSH10 0xFFFFFFFFFFFFFFFFFFFF AND DUP2 MSTORE PUSH1 0x20 ADD PUSH2 0x24F8 PUSH2 0x2F07 JUMP JUMPDEST PUSH20 0xFFFFFFFFFFFFFFFFFFFFFFFFFFFFFFFFFFFFFFFF AND DUP2 MSTORE POP PUSH1 0x5 PUSH1 0x0 DUP7 DUP2 MSTORE PUSH1 0x20 ADD SWAP1 DUP2 MSTORE PUSH1 0x20 ADD PUSH1 0x0 KECCAK256 PUSH1 0x0 DUP3 ADD MLOAD DUP2 PUSH1 0x0 ADD PUSH1 0x0 PUSH2 0x100 EXP DUP2 SLOAD DUP2 PUSH2 0xFFFF MUL NOT AND SWAP1 DUP4 PUSH2 0xFFFF AND MUL OR SWAP1 SSTORE POP PUSH1 0x20 DUP3 ADD MLOAD DUP2 PUSH1 0x0 ADD PUSH1 0x2 PUSH2 0x100 EXP DUP2 SLOAD DUP2 PUSH10 0xFFFFFFFFFFFFFFFFFFFF MUL NOT AND SWAP1 DUP4 PUSH10 0xFFFFFFFFFFFFFFFFFFFF AND MUL OR SWAP1 SSTORE POP PUSH1 0x40 DUP3 ADD MLOAD DUP2 PUSH1 0x0 ADD PUSH1 0xC PUSH2 0x100 EXP DUP2 SLOAD DUP2 PUSH20 0xFFFFFFFFFFFFFFFFFFFFFFFFFFFFFFFFFFFFFFFF MUL NOT AND SWAP1 DUP4 PUSH20 0xFFFFFFFFFFFFFFFFFFFFFFFFFFFFFFFFFFFFFFFF AND MUL OR SWAP1 SSTORE POP SWAP1 POP POP JUMPDEST PUSH32 0xE9D8194F830C159F3FA36A3722D86930569B5A9CE5265DDA89FD43F488076165 DUP5 DUP4 DUP6 PUSH1 0x40 MLOAD PUSH2 0x25F8 SWAP4 SWAP3 SWAP2 SWAP1 PUSH2 0x4115 JUMP JUMPDEST PUSH1 0x40 MLOAD DUP1 SWAP2 SUB SWAP1 LOG1 POP SWAP3 SWAP2 POP POP JUMP JUMPDEST PUSH1 0x0 ADDRESS PUSH20 0xFFFFFFFFFFFFFFFFFFFFFFFFFFFFFFFFFFFFFFFF AND PUSH1 0x1 PUSH1 0x0 SWAP1 SLOAD SWAP1 PUSH2 0x100 EXP SWAP1 DIV PUSH20 0xFFFFFFFFFFFFFFFFFFFFFFFFFFFFFFFFFFFFFFFF AND PUSH20 0xFFFFFFFFFFFFFFFFFFFFFFFFFFFFFFFFFFFFFFFF AND PUSH4 0x6352211E DUP6 PUSH1 0x40 MLOAD DUP3 PUSH4 0xFFFFFFFF AND PUSH1 0xE0 SHL DUP2 MSTORE PUSH1 0x4 ADD PUSH2 0x267B SWAP2 SWAP1 PUSH2 0x40C3 JUMP JUMPDEST PUSH1 0x20 PUSH1 0x40 MLOAD DUP1 DUP4 SUB DUP2 DUP7 DUP1 EXTCODESIZE ISZERO DUP1 ISZERO PUSH2 0x2693 JUMPI PUSH1 0x0 DUP1 REVERT JUMPDEST POP GAS STATICCALL ISZERO DUP1 ISZERO PUSH2 0x26A7 JUMPI RETURNDATASIZE PUSH1 0x0 DUP1 RETURNDATACOPY RETURNDATASIZE PUSH1 0x0 REVERT JUMPDEST POP POP POP POP PUSH1 0x40 MLOAD RETURNDATASIZE PUSH1 0x1F NOT PUSH1 0x1F DUP3 ADD AND DUP3 ADD DUP1 PUSH1 0x40 MSTORE POP DUP2 ADD SWAP1 PUSH2 0x26CB SWAP2 SWAP1 PUSH2 0x3846 JUMP JUMPDEST PUSH20 0xFFFFFFFFFFFFFFFFFFFFFFFFFFFFFFFFFFFFFFFF AND EQ PUSH2 0x2721 JUMPI PUSH1 0x40 MLOAD PUSH32 0x8C379A000000000000000000000000000000000000000000000000000000000 DUP2 MSTORE PUSH1 0x4 ADD PUSH2 0x2718 SWAP1 PUSH2 0x3F31 JUMP JUMPDEST PUSH1 0x40 MLOAD DUP1 SWAP2 SUB SWAP1 REVERT JUMPDEST PUSH1 0x0 PUSH2 0x272B PUSH2 0xD26 JUMP JUMPDEST PUSH1 0xFF AND SWAP1 POP PUSH1 0x0 PUSH1 0x6 PUSH1 0x0 DUP4 DUP2 MSTORE PUSH1 0x20 ADD SWAP1 DUP2 MSTORE PUSH1 0x20 ADD PUSH1 0x0 KECCAK256 PUSH1 0x7 PUSH1 0x0 DUP8 DUP2 MSTORE PUSH1 0x20 ADD SWAP1 DUP2 MSTORE PUSH1 0x20 ADD PUSH1 0x0 KECCAK256 SLOAD DUP2 SLOAD DUP2 LT PUSH2 0x276A JUMPI PUSH2 0x2769 PUSH2 0x44E4 JUMP JUMPDEST JUMPDEST SWAP1 PUSH1 0x0 MSTORE PUSH1 0x20 PUSH1 0x0 KECCAK256 ADD PUSH1 0x40 MLOAD DUP1 PUSH1 0x60 ADD PUSH1 0x40 MSTORE SWAP1 DUP2 PUSH1 0x0 DUP3 ADD PUSH1 0x0 SWAP1 SLOAD SWAP1 PUSH2 0x100 EXP SWAP1 DIV PUSH2 0xFFFF AND PUSH2 0xFFFF AND PUSH2 0xFFFF AND DUP2 MSTORE PUSH1 0x20 ADD PUSH1 0x0 DUP3 ADD PUSH1 0x2 SWAP1 SLOAD SWAP1 PUSH2 0x100 EXP SWAP1 DIV PUSH10 0xFFFFFFFFFFFFFFFFFFFF AND PUSH10 0xFFFFFFFFFFFFFFFFFFFF AND PUSH10 0xFFFFFFFFFFFFFFFFFFFF AND DUP2 MSTORE PUSH1 0x20 ADD PUSH1 0x0 DUP3 ADD PUSH1 0xC SWAP1 SLOAD SWAP1 PUSH2 0x100 EXP SWAP1 DIV PUSH20 0xFFFFFFFFFFFFFFFFFFFFFFFFFFFFFFFFFFFFFFFF AND PUSH20 0xFFFFFFFFFFFFFFFFFFFFFFFFFFFFFFFFFFFFFFFF AND PUSH20 0xFFFFFFFFFFFFFFFFFFFFFFFFFFFFFFFFFFFFFFFF AND DUP2 MSTORE POP POP SWAP1 POP PUSH2 0x2837 PUSH2 0x2F07 JUMP JUMPDEST PUSH20 0xFFFFFFFFFFFFFFFFFFFFFFFFFFFFFFFFFFFFFFFF AND DUP2 PUSH1 0x40 ADD MLOAD PUSH20 0xFFFFFFFFFFFFFFFFFFFFFFFFFFFFFFFFFFFFFFFF AND EQ PUSH2 0x28A8 JUMPI PUSH1 0x40 MLOAD PUSH32 0x8C379A000000000000000000000000000000000000000000000000000000000 DUP2 MSTORE PUSH1 0x4 ADD PUSH2 0x289F SWAP1 PUSH2 0x3FB1 JUMP JUMPDEST PUSH1 0x40 MLOAD DUP1 SWAP2 SUB SWAP1 REVERT JUMPDEST DUP1 PUSH1 0x20 ADD MLOAD PUSH10 0xFFFFFFFFFFFFFFFFFFFF AND PUSH1 0xA SLOAD PUSH2 0x28C6 SWAP2 SWAP1 PUSH2 0x426A JUMP JUMPDEST DUP3 PUSH2 0x28D1 SWAP2 SWAP1 PUSH2 0x4210 JUMP JUMPDEST SWAP3 POP DUP4 ISZERO PUSH2 0x2D97 JUMPI DUP2 PUSH1 0x8 PUSH1 0x0 DUP3 DUP3 SLOAD PUSH2 0x28EB SWAP2 SWAP1 PUSH2 0x426A JUMP JUMPDEST SWAP3 POP POP DUP2 SWAP1 SSTORE POP PUSH1 0x1 PUSH1 0x0 SWAP1 SLOAD SWAP1 PUSH2 0x100 EXP SWAP1 DIV PUSH20 0xFFFFFFFFFFFFFFFFFFFFFFFFFFFFFFFFFFFFFFFF AND PUSH20 0xFFFFFFFFFFFFFFFFFFFFFFFFFFFFFFFFFFFFFFFF AND PUSH4 0xB88D4FDE ADDRESS PUSH2 0x2939 PUSH2 0x2F07 JUMP JUMPDEST DUP9 PUSH1 0x40 MLOAD DUP5 PUSH4 0xFFFFFFFF AND PUSH1 0xE0 SHL DUP2 MSTORE PUSH1 0x4 ADD PUSH2 0x2958 SWAP4 SWAP3 SWAP2 SWAP1 PUSH2 0x3E4C JUMP JUMPDEST PUSH1 0x0 PUSH1 0x40 MLOAD DUP1 DUP4 SUB DUP2 PUSH1 0x0 DUP8 DUP1 EXTCODESIZE ISZERO DUP1 ISZERO PUSH2 0x2972 JUMPI PUSH1 0x0 DUP1 REVERT JUMPDEST POP GAS CALL ISZERO DUP1 ISZERO PUSH2 0x2986 JUMPI RETURNDATASIZE PUSH1 0x0 DUP1 RETURNDATACOPY RETURNDATASIZE PUSH1 0x0 REVERT JUMPDEST POP POP POP POP PUSH1 0x0 PUSH1 0x6 PUSH1 0x0 DUP5 DUP2 MSTORE PUSH1 0x20 ADD SWAP1 DUP2 MSTORE PUSH1 0x20 ADD PUSH1 0x0 KECCAK256 PUSH1 0x1 PUSH1 0x6 PUSH1 0x0 DUP7 DUP2 MSTORE PUSH1 0x20 ADD SWAP1 DUP2 MSTORE PUSH1 0x20 ADD PUSH1 0x0 KECCAK256 DUP1 SLOAD SWAP1 POP PUSH2 0x29C2 SWAP2 SWAP1 PUSH2 0x426A JUMP JUMPDEST DUP2 SLOAD DUP2 LT PUSH2 0x29D3 JUMPI PUSH2 0x29D2 PUSH2 0x44E4 JUMP JUMPDEST JUMPDEST SWAP1 PUSH1 0x0 MSTORE PUSH1 0x20 PUSH1 0x0 KECCAK256 ADD PUSH1 0x40 MLOAD DUP1 PUSH1 0x60 ADD PUSH1 0x40 MSTORE SWAP1 DUP2 PUSH1 0x0 DUP3 ADD PUSH1 0x0 SWAP1 SLOAD SWAP1 PUSH2 0x100 EXP SWAP1 DIV PUSH2 0xFFFF AND PUSH2 0xFFFF AND PUSH2 0xFFFF AND DUP2 MSTORE PUSH1 0x20 ADD PUSH1 0x0 DUP3 ADD PUSH1 0x2 SWAP1 SLOAD SWAP1 PUSH2 0x100 EXP SWAP1 DIV PUSH10 0xFFFFFFFFFFFFFFFFFFFF AND PUSH10 0xFFFFFFFFFFFFFFFFFFFF AND PUSH10 0xFFFFFFFFFFFFFFFFFFFF AND DUP2 MSTORE PUSH1 0x20 ADD PUSH1 0x0 DUP3 ADD PUSH1 0xC SWAP1 SLOAD SWAP1 PUSH2 0x100 EXP SWAP1 DIV PUSH20 0xFFFFFFFFFFFFFFFFFFFFFFFFFFFFFFFFFFFFFFFF AND PUSH20 0xFFFFFFFFFFFFFFFFFFFFFFFFFFFFFFFFFFFFFFFF AND PUSH20 0xFFFFFFFFFFFFFFFFFFFFFFFFFFFFFFFFFFFFFFFF AND DUP2 MSTORE POP POP SWAP1 POP DUP1 PUSH1 0x6 PUSH1 0x0 DUP6 DUP2 MSTORE PUSH1 0x20 ADD SWAP1 DUP2 MSTORE PUSH1 0x20 ADD PUSH1 0x0 KECCAK256 PUSH1 0x7 PUSH1 0x0 DUP10 DUP2 MSTORE PUSH1 0x20 ADD SWAP1 DUP2 MSTORE PUSH1 0x20 ADD PUSH1 0x0 KECCAK256 SLOAD DUP2 SLOAD DUP2 LT PUSH2 0x2AD1 JUMPI PUSH2 0x2AD0 PUSH2 0x44E4 JUMP JUMPDEST JUMPDEST SWAP1 PUSH1 0x0 MSTORE PUSH1 0x20 PUSH1 0x0 KECCAK256 ADD PUSH1 0x0 DUP3 ADD MLOAD DUP2 PUSH1 0x0 ADD PUSH1 0x0 PUSH2 0x100 EXP DUP2 SLOAD DUP2 PUSH2 0xFFFF MUL NOT AND SWAP1 DUP4 PUSH2 0xFFFF AND MUL OR SWAP1 SSTORE POP PUSH1 0x20 DUP3 ADD MLOAD DUP2 PUSH1 0x0 ADD PUSH1 0x2 PUSH2 0x100 EXP DUP2 SLOAD DUP2 PUSH10 0xFFFFFFFFFFFFFFFFFFFF MUL NOT AND SWAP1 DUP4 PUSH10 0xFFFFFFFFFFFFFFFFFFFF AND MUL OR SWAP1 SSTORE POP PUSH1 0x40 DUP3 ADD MLOAD DUP2 PUSH1 0x0 ADD PUSH1 0xC PUSH2 0x100 EXP DUP2 SLOAD DUP2 PUSH20 0xFFFFFFFFFFFFFFFFFFFFFFFFFFFFFFFFFFFFFFFF MUL NOT AND SWAP1 DUP4 PUSH20 0xFFFFFFFFFFFFFFFFFFFFFFFFFFFFFFFFFFFFFFFF AND MUL OR SWAP1 SSTORE POP SWAP1 POP POP PUSH1 0x7 PUSH1 0x0 DUP8 DUP2 MSTORE PUSH1 0x20 ADD SWAP1 DUP2 MSTORE PUSH1 0x20 ADD PUSH1 0x0 KECCAK256 SLOAD PUSH1 0x7 PUSH1 0x0 DUP4 PUSH1 0x0 ADD MLOAD PUSH2 0xFFFF AND DUP2 MSTORE PUSH1 0x20 ADD SWAP1 DUP2 MSTORE PUSH1 0x20 ADD PUSH1 0x0 KECCAK256 DUP2 SWAP1 SSTORE POP PUSH1 0x6 PUSH1 0x0 DUP5 DUP2 MSTORE PUSH1 0x20 ADD SWAP1 DUP2 MSTORE PUSH1 0x20 ADD PUSH1 0x0 KECCAK256 DUP1 SLOAD DUP1 PUSH2 0x2BD1 JUMPI PUSH2 0x2BD0 PUSH2 0x44B5 JUMP JUMPDEST JUMPDEST PUSH1 0x1 SWAP1 SUB DUP2 DUP2 SWAP1 PUSH1 0x0 MSTORE PUSH1 0x20 PUSH1 0x0 KECCAK256 ADD PUSH1 0x0 DUP1 DUP3 ADD PUSH1 0x0 PUSH2 0x100 EXP DUP2 SLOAD SWAP1 PUSH2 0xFFFF MUL NOT AND SWAP1 SSTORE PUSH1 0x0 DUP3 ADD PUSH1 0x2 PUSH2 0x100 EXP DUP2 SLOAD SWAP1 PUSH10 0xFFFFFFFFFFFFFFFFFFFF MUL NOT AND SWAP1 SSTORE PUSH1 0x0 DUP3 ADD PUSH1 0xC PUSH2 0x100 EXP DUP2 SLOAD SWAP1 PUSH20 0xFFFFFFFFFFFFFFFFFFFFFFFFFFFFFFFFFFFFFFFF MUL NOT AND SWAP1 SSTORE POP POP SWAP1 SSTORE PUSH1 0x0 JUMPDEST PUSH1 0x4 PUSH1 0x0 PUSH2 0x2C4E PUSH2 0x2F07 JUMP JUMPDEST PUSH20 0xFFFFFFFFFFFFFFFFFFFFFFFFFFFFFFFFFFFFFFFF AND PUSH20 0xFFFFFFFFFFFFFFFFFFFFFFFFFFFFFFFFFFFFFFFF AND DUP2 MSTORE PUSH1 0x20 ADD SWAP1 DUP2 MSTORE PUSH1 0x20 ADD PUSH1 0x0 KECCAK256 DUP1 SLOAD SWAP1 POP DUP2 LT ISZERO PUSH2 0x2D79 JUMPI DUP7 PUSH1 0x4 PUSH1 0x0 PUSH2 0x2CA0 PUSH2 0x2F07 JUMP JUMPDEST PUSH20 0xFFFFFFFFFFFFFFFFFFFFFFFFFFFFFFFFFFFFFFFF AND PUSH20 0xFFFFFFFFFFFFFFFFFFFFFFFFFFFFFFFFFFFFFFFF AND DUP2 MSTORE PUSH1 0x20 ADD SWAP1 DUP2 MSTORE PUSH1 0x20 ADD PUSH1 0x0 KECCAK256 DUP3 DUP2 SLOAD DUP2 LT PUSH2 0x2CEC JUMPI PUSH2 0x2CEB PUSH2 0x44E4 JUMP JUMPDEST JUMPDEST SWAP1 PUSH1 0x0 MSTORE PUSH1 0x20 PUSH1 0x0 KECCAK256 ADD SLOAD EQ ISZERO PUSH2 0x2D66 JUMPI PUSH1 0x0 PUSH1 0x4 PUSH1 0x0 PUSH2 0x2D0B PUSH2 0x2F07 JUMP JUMPDEST PUSH20 0xFFFFFFFFFFFFFFFFFFFFFFFFFFFFFFFFFFFFFFFF AND PUSH20 0xFFFFFFFFFFFFFFFFFFFFFFFFFFFFFFFFFFFFFFFF AND DUP2 MSTORE PUSH1 0x20 ADD SWAP1 DUP2 MSTORE PUSH1 0x20 ADD PUSH1 0x0 KECCAK256 DUP3 DUP2 SLOAD DUP2 LT PUSH2 0x2D57 JUMPI PUSH2 0x2D56 PUSH2 0x44E4 JUMP JUMPDEST JUMPDEST SWAP1 PUSH1 0x0 MSTORE PUSH1 0x20 PUSH1 0x0 KECCAK256 ADD DUP2 SWAP1 SSTORE POP JUMPDEST DUP1 DUP1 PUSH2 0x2D71 SWAP1 PUSH2 0x43A5 JUMP JUMPDEST SWAP2 POP POP PUSH2 0x2C42 JUMP JUMPDEST POP PUSH1 0x7 PUSH1 0x0 DUP8 DUP2 MSTORE PUSH1 0x20 ADD SWAP1 DUP2 MSTORE PUSH1 0x20 ADD PUSH1 0x0 KECCAK256 PUSH1 0x0 SWAP1 SSTORE POP PUSH2 0x2EC4 JUMP JUMPDEST PUSH1 0x40 MLOAD DUP1 PUSH1 0x60 ADD PUSH1 0x40 MSTORE DUP1 DUP7 PUSH2 0xFFFF AND DUP2 MSTORE PUSH1 0x20 ADD PUSH1 0xA SLOAD PUSH10 0xFFFFFFFFFFFFFFFFFFFF AND DUP2 MSTORE PUSH1 0x20 ADD PUSH2 0x2DC8 PUSH2 0x2F07 JUMP JUMPDEST PUSH20 0xFFFFFFFFFFFFFFFFFFFFFFFFFFFFFFFFFFFFFFFF AND DUP2 MSTORE POP PUSH1 0x6 PUSH1 0x0 DUP5 DUP2 MSTORE PUSH1 0x20 ADD SWAP1 DUP2 MSTORE PUSH1 0x20 ADD PUSH1 0x0 KECCAK256 PUSH1 0x7 PUSH1 0x0 DUP9 DUP2 MSTORE PUSH1 0x20 ADD SWAP1 DUP2 MSTORE PUSH1 0x20 ADD PUSH1 0x0 KECCAK256 SLOAD DUP2 SLOAD DUP2 LT PUSH2 0x2E19 JUMPI PUSH2 0x2E18 PUSH2 0x44E4 JUMP JUMPDEST JUMPDEST SWAP1 PUSH1 0x0 MSTORE PUSH1 0x20 PUSH1 0x0 KECCAK256 ADD PUSH1 0x0 DUP3 ADD MLOAD DUP2 PUSH1 0x0 ADD PUSH1 0x0 PUSH2 0x100 EXP DUP2 SLOAD DUP2 PUSH2 0xFFFF MUL NOT AND SWAP1 DUP4 PUSH2 0xFFFF AND MUL OR SWAP1 SSTORE POP PUSH1 0x20 DUP3 ADD MLOAD DUP2 PUSH1 0x0 ADD PUSH1 0x2 PUSH2 0x100 EXP DUP2 SLOAD DUP2 PUSH10 0xFFFFFFFFFFFFFFFFFFFF MUL NOT AND SWAP1 DUP4 PUSH10 0xFFFFFFFFFFFFFFFFFFFF AND MUL OR SWAP1 SSTORE POP PUSH1 0x40 DUP3 ADD MLOAD DUP2 PUSH1 0x0 ADD PUSH1 0xC PUSH2 0x100 EXP DUP2 SLOAD DUP2 PUSH20 0xFFFFFFFFFFFFFFFFFFFFFFFFFFFFFFFFFFFFFFFF MUL NOT AND SWAP1 DUP4 PUSH20 0xFFFFFFFFFFFFFFFFFFFFFFFFFFFFFFFFFFFFFFFF AND MUL OR SWAP1 SSTORE POP SWAP1 POP POP JUMPDEST PUSH32 0xF65D435564B020FCB9D6F56608C9333A6CF42914EEDDFBAC41A764DA73667DE1 DUP6 DUP5 DUP7 PUSH1 0x40 MLOAD PUSH2 0x2EF7 SWAP4 SWAP3 SWAP2 SWAP1 PUSH2 0x4115 JUMP JUMPDEST PUSH1 0x40 MLOAD DUP1 SWAP2 SUB SWAP1 LOG1 POP POP SWAP3 SWAP2 POP POP JUMP JUMPDEST PUSH1 0x0 CALLER SWAP1 POP SWAP1 JUMP JUMPDEST PUSH2 0x2F17 PUSH2 0xD10 JUMP JUMPDEST ISZERO PUSH2 0x2F57 JUMPI PUSH1 0x40 MLOAD PUSH32 0x8C379A000000000000000000000000000000000000000000000000000000000 DUP2 MSTORE PUSH1 0x4 ADD PUSH2 0x2F4E SWAP1 PUSH2 0x3FD1 JUMP JUMPDEST PUSH1 0x40 MLOAD DUP1 SWAP2 SUB SWAP1 REVERT JUMPDEST PUSH1 0x1 PUSH1 0x0 PUSH1 0x14 PUSH2 0x100 EXP DUP2 SLOAD DUP2 PUSH1 0xFF MUL NOT AND SWAP1 DUP4 ISZERO ISZERO MUL OR SWAP1 SSTORE POP PUSH32 0x62E78CEA01BEE320CD4E420270B5EA74000D11B0C9F74754EBDBFC544B05A258 PUSH2 0x2F9B PUSH2 0x2F07 JUMP JUMPDEST PUSH1 0x40 MLOAD PUSH2 0x2FA8 SWAP2 SWAP1 PUSH2 0x3DFA JUMP JUMPDEST PUSH1 0x40 MLOAD DUP1 SWAP2 SUB SWAP1 LOG1 JUMP JUMPDEST PUSH2 0x2FBA PUSH2 0xD10 JUMP JUMPDEST PUSH2 0x2FF9 JUMPI PUSH1 0x40 MLOAD PUSH32 0x8C379A000000000000000000000000000000000000000000000000000000000 DUP2 MSTORE PUSH1 0x4 ADD PUSH2 0x2FF0 SWAP1 PUSH2 0x3F11 JUMP JUMPDEST PUSH1 0x40 MLOAD DUP1 SWAP2 SUB SWAP1 REVERT JUMPDEST PUSH1 0x0 DUP1 PUSH1 0x14 PUSH2 0x100 EXP DUP2 SLOAD DUP2 PUSH1 0xFF MUL NOT AND SWAP1 DUP4 ISZERO ISZERO MUL OR SWAP1 SSTORE POP PUSH32 0x5DB9EE0A495BF2E6FF9C91A7834C1BA4FDD244A5E8AA4E537BD38AEAE4B073AA PUSH2 0x303C PUSH2 0x2F07 JUMP JUMPDEST PUSH1 0x40 MLOAD PUSH2 0x3049 SWAP2 SWAP1 PUSH2 0x3DFA JUMP JUMPDEST PUSH1 0x40 MLOAD DUP1 SWAP2 SUB SWAP1 LOG1 JUMP JUMPDEST PUSH1 0x0 DUP1 PUSH1 0x0 SWAP1 SLOAD SWAP1 PUSH2 0x100 EXP SWAP1 DIV PUSH20 0xFFFFFFFFFFFFFFFFFFFFFFFFFFFFFFFFFFFFFFFF AND SWAP1 POP DUP2 PUSH1 0x0 DUP1 PUSH2 0x100 EXP DUP2 SLOAD DUP2 PUSH20 0xFFFFFFFFFFFFFFFFFFFFFFFFFFFFFFFFFFFFFFFF MUL NOT AND SWAP1 DUP4 PUSH20 0xFFFFFFFFFFFFFFFFFFFFFFFFFFFFFFFFFFFFFFFF AND MUL OR SWAP1 SSTORE POP DUP2 PUSH20 0xFFFFFFFFFFFFFFFFFFFFFFFFFFFFFFFFFFFFFFFF AND DUP2 PUSH20 0xFFFFFFFFFFFFFFFFFFFFFFFFFFFFFFFFFFFFFFFF AND PUSH32 0x8BE0079C531659141344CD1FD0A4F28419497F9722A3DAAFE3B4186F6B6457E0 PUSH1 0x40 MLOAD PUSH1 0x40 MLOAD DUP1 SWAP2 SUB SWAP1 LOG3 POP POP JUMP JUMPDEST PUSH2 0x311F PUSH2 0xD10 JUMP JUMPDEST ISZERO PUSH2 0x315F JUMPI PUSH1 0x40 MLOAD PUSH32 0x8C379A000000000000000000000000000000000000000000000000000000000 DUP2 MSTORE PUSH1 0x4 ADD PUSH2 0x3156 SWAP1 PUSH2 0x3FD1 JUMP JUMPDEST PUSH1 0x40 MLOAD DUP1 SWAP2 SUB SWAP1 REVERT JUMPDEST PUSH12 0x7C13BC4B2C133C560000000 PUSH1 0xB SLOAD LT ISZERO PUSH2 0x31D3 JUMPI PUSH3 0x15180 PUSH10 0x21E19E0C9BAB2400000 PUSH1 0xC SLOAD PUSH1 0xD SLOAD TIMESTAMP PUSH2 0x3195 SWAP2 SWAP1 PUSH2 0x426A JUMP JUMPDEST PUSH2 0x319F SWAP2 SWAP1 PUSH2 0x4210 JUMP JUMPDEST PUSH2 0x31A9 SWAP2 SWAP1 PUSH2 0x4210 JUMP JUMPDEST PUSH2 0x31B3 SWAP2 SWAP1 PUSH2 0x41DF JUMP JUMPDEST PUSH1 0xB PUSH1 0x0 DUP3 DUP3 SLOAD PUSH2 0x31C4 SWAP2 SWAP1 PUSH2 0x4189 JUMP JUMPDEST SWAP3 POP POP DUP2 SWAP1 SSTORE POP TIMESTAMP PUSH1 0xD DUP2 SWAP1 SSTORE POP JUMPDEST PUSH1 0x40 MLOAD DUP1 PUSH1 0x60 ADD PUSH1 0x40 MSTORE DUP1 DUP3 PUSH2 0xFFFF AND DUP2 MSTORE PUSH1 0x20 ADD TIMESTAMP PUSH10 0xFFFFFFFFFFFFFFFFFFFF AND DUP2 MSTORE PUSH1 0x20 ADD DUP4 PUSH20 0xFFFFFFFFFFFFFFFFFFFFFFFFFFFFFFFFFFFFFFFF AND DUP2 MSTORE POP PUSH1 0x5 PUSH1 0x0 DUP4 DUP2 MSTORE PUSH1 0x20 ADD SWAP1 DUP2 MSTORE PUSH1 0x20 ADD PUSH1 0x0 KECCAK256 PUSH1 0x0 DUP3 ADD MLOAD DUP2 PUSH1 0x0 ADD PUSH1 0x0 PUSH2 0x100 EXP DUP2 SLOAD DUP2 PUSH2 0xFFFF MUL NOT AND SWAP1 DUP4 PUSH2 0xFFFF AND MUL OR SWAP1 SSTORE POP PUSH1 0x20 DUP3 ADD MLOAD DUP2 PUSH1 0x0 ADD PUSH1 0x2 PUSH2 0x100 EXP DUP2 SLOAD DUP2 PUSH10 0xFFFFFFFFFFFFFFFFFFFF MUL NOT AND SWAP1 DUP4 PUSH10 0xFFFFFFFFFFFFFFFFFFFF AND MUL OR SWAP1 SSTORE POP PUSH1 0x40 DUP3 ADD MLOAD DUP2 PUSH1 0x0 ADD PUSH1 0xC PUSH2 0x100 EXP DUP2 SLOAD DUP2 PUSH20 0xFFFFFFFFFFFFFFFFFFFFFFFFFFFFFFFFFFFFFFFF MUL NOT AND SWAP1 DUP4 PUSH20 0xFFFFFFFFFFFFFFFFFFFFFFFFFFFFFFFFFFFFFFFF AND MUL OR SWAP1 SSTORE POP SWAP1 POP POP PUSH1 0x3 PUSH1 0x0 DUP4 PUSH20 0xFFFFFFFFFFFFFFFFFFFFFFFFFFFFFFFFFFFFFFFF AND PUSH20 0xFFFFFFFFFFFFFFFFFFFFFFFFFFFFFFFFFFFFFFFF AND DUP2 MSTORE PUSH1 0x20 ADD SWAP1 DUP2 MSTORE PUSH1 0x20 ADD PUSH1 0x0 KECCAK256 DUP2 SWAP1 DUP1 PUSH1 0x1 DUP2 SLOAD ADD DUP1 DUP3 SSTORE DUP1 SWAP2 POP POP PUSH1 0x1 SWAP1 SUB SWAP1 PUSH1 0x0 MSTORE PUSH1 0x20 PUSH1 0x0 KECCAK256 ADD PUSH1 0x0 SWAP1 SWAP2 SWAP1 SWAP2 SWAP1 SWAP2 POP SSTORE PUSH1 0x1 PUSH1 0xC PUSH1 0x0 DUP3 DUP3 SLOAD PUSH2 0x3340 SWAP2 SWAP1 PUSH2 0x4189 JUMP JUMPDEST SWAP3 POP POP DUP2 SWAP1 SSTORE POP PUSH32 0xB7A59769C6F07375FE9190017D91341AA17C7989A3069CC04E310CDA369EE78C DUP3 DUP3 TIMESTAMP PUSH1 0x0 PUSH1 0x40 MLOAD PUSH2 0x337D SWAP5 SWAP4 SWAP3 SWAP2 SWAP1 PUSH2 0x3E96 JUMP JUMPDEST PUSH1 0x40 MLOAD DUP1 SWAP2 SUB SWAP1 LOG1 POP POP JUMP JUMPDEST PUSH1 0x0 PUSH2 0x3393 PUSH2 0xD26 JUMP JUMPDEST PUSH1 0xFF AND SWAP1 POP DUP1 PUSH1 0x8 PUSH1 0x0 DUP3 DUP3 SLOAD PUSH2 0x33AA SWAP2 SWAP1 PUSH2 0x4189 JUMP JUMPDEST SWAP3 POP POP DUP2 SWAP1 SSTORE POP PUSH1 0x6 PUSH1 0x0 DUP3 DUP2 MSTORE PUSH1 0x20 ADD SWAP1 DUP2 MSTORE PUSH1 0x20 ADD PUSH1 0x0 KECCAK256 DUP1 SLOAD SWAP1 POP PUSH1 0x7 PUSH1 0x0 DUP5 DUP2 MSTORE PUSH1 0x20 ADD SWAP1 DUP2 MSTORE PUSH1 0x20 ADD PUSH1 0x0 KECCAK256 DUP2 SWAP1 SSTORE POP PUSH1 0x6 PUSH1 0x0 DUP3 DUP2 MSTORE PUSH1 0x20 ADD SWAP1 DUP2 MSTORE PUSH1 0x20 ADD PUSH1 0x0 KECCAK256 PUSH1 0x40 MLOAD DUP1 PUSH1 0x60 ADD PUSH1 0x40 MSTORE DUP1 DUP5 PUSH2 0xFFFF AND DUP2 MSTORE PUSH1 0x20 ADD PUSH1 0xA SLOAD PUSH10 0xFFFFFFFFFFFFFFFFFFFF AND DUP2 MSTORE PUSH1 0x20 ADD DUP6 PUSH20 0xFFFFFFFFFFFFFFFFFFFFFFFFFFFFFFFFFFFFFFFF AND DUP2 MSTORE POP SWAP1 DUP1 PUSH1 0x1 DUP2 SLOAD ADD DUP1 DUP3 SSTORE DUP1 SWAP2 POP POP PUSH1 0x1 SWAP1 SUB SWAP1 PUSH1 0x0 MSTORE PUSH1 0x20 PUSH1 0x0 KECCAK256 ADD PUSH1 0x0 SWAP1 SWAP2 SWAP1 SWAP2 SWAP1 SWAP2 POP PUSH1 0x0 DUP3 ADD MLOAD DUP2 PUSH1 0x0 ADD PUSH1 0x0 PUSH2 0x100 EXP DUP2 SLOAD DUP2 PUSH2 0xFFFF MUL NOT AND SWAP1 DUP4 PUSH2 0xFFFF AND MUL OR SWAP1 SSTORE POP PUSH1 0x20 DUP3 ADD MLOAD DUP2 PUSH1 0x0 ADD PUSH1 0x2 PUSH2 0x100 EXP DUP2 SLOAD DUP2 PUSH10 0xFFFFFFFFFFFFFFFFFFFF MUL NOT AND SWAP1 DUP4 PUSH10 0xFFFFFFFFFFFFFFFFFFFF AND MUL OR SWAP1 SSTORE POP PUSH1 0x40 DUP3 ADD MLOAD DUP2 PUSH1 0x0 ADD PUSH1 0xC PUSH2 0x100 EXP DUP2 SLOAD DUP2 PUSH20 0xFFFFFFFFFFFFFFFFFFFFFFFFFFFFFFFFFFFFFFFF MUL NOT AND SWAP1 DUP4 PUSH20 0xFFFFFFFFFFFFFFFFFFFFFFFFFFFFFFFFFFFFFFFF AND MUL OR SWAP1 SSTORE POP POP POP PUSH1 0x4 PUSH1 0x0 DUP5 PUSH20 0xFFFFFFFFFFFFFFFFFFFFFFFFFFFFFFFFFFFFFFFF AND PUSH20 0xFFFFFFFFFFFFFFFFFFFFFFFFFFFFFFFFFFFFFFFF AND DUP2 MSTORE PUSH1 0x20 ADD SWAP1 DUP2 MSTORE PUSH1 0x20 ADD PUSH1 0x0 KECCAK256 DUP3 SWAP1 DUP1 PUSH1 0x1 DUP2 SLOAD ADD DUP1 DUP3 SSTORE DUP1 SWAP2 POP POP PUSH1 0x1 SWAP1 SUB SWAP1 PUSH1 0x0 MSTORE PUSH1 0x20 PUSH1 0x0 KECCAK256 ADD PUSH1 0x0 SWAP1 SWAP2 SWAP1 SWAP2 SWAP1 SWAP2 POP SSTORE PUSH32 0xB7A59769C6F07375FE9190017D91341AA17C7989A3069CC04E310CDA369EE78C DUP4 DUP4 PUSH1 0xA SLOAD PUSH1 0x1 PUSH1 0x40 MLOAD PUSH2 0x3597 SWAP5 SWAP4 SWAP3 SWAP2 SWAP1 PUSH2 0x3E96 JUMP JUMPDEST PUSH1 0x40 MLOAD DUP1 SWAP2 SUB SWAP1 LOG1 POP POP POP JUMP JUMPDEST PUSH1 0x0 ORIGIN PUSH1 0x1 NUMBER PUSH2 0x35B4 SWAP2 SWAP1 PUSH2 0x426A JUMP JUMPDEST BLOCKHASH TIMESTAMP DUP5 PUSH1 0x40 MLOAD PUSH1 0x20 ADD PUSH2 0x35CA SWAP5 SWAP4 SWAP3 SWAP2 SWAP1 PUSH2 0x3DAC JUMP JUMPDEST PUSH1 0x40 MLOAD PUSH1 0x20 DUP2 DUP4 SUB SUB DUP2 MSTORE SWAP1 PUSH1 0x40 MSTORE DUP1 MLOAD SWAP1 PUSH1 0x20 ADD KECCAK256 PUSH1 0x0 SHR SWAP1 POP SWAP2 SWAP1 POP JUMP JUMPDEST PUSH1 0x0 PUSH1 0x8 SLOAD EQ ISZERO PUSH2 0x3613 JUMPI DUP1 PUSH1 0x9 PUSH1 0x0 DUP3 DUP3 SLOAD PUSH2 0x3607 SWAP2 SWAP1 PUSH2 0x4189 JUMP JUMPDEST SWAP3 POP POP DUP2 SWAP1 SSTORE POP PUSH2 0x364F JUMP JUMPDEST PUSH1 0x8 SLOAD PUSH1 0x9 SLOAD DUP3 PUSH2 0x3624 SWAP2 SWAP1 PUSH2 0x4189 JUMP JUMPDEST PUSH2 0x362E SWAP2 SWAP1 PUSH2 0x41DF JUMP JUMPDEST PUSH1 0xA PUSH1 0x0 DUP3 DUP3 SLOAD PUSH2 0x363F SWAP2 SWAP1 PUSH2 0x4189 JUMP JUMPDEST SWAP3 POP POP DUP2 SWAP1 SSTORE POP PUSH1 0x0 PUSH1 0x9 DUP2 SWAP1 SSTORE POP JUMPDEST POP JUMP JUMPDEST PUSH1 0x40 MLOAD DUP1 PUSH1 0x60 ADD PUSH1 0x40 MSTORE DUP1 PUSH1 0x0 PUSH2 0xFFFF AND DUP2 MSTORE PUSH1 0x20 ADD PUSH1 0x0 PUSH10 0xFFFFFFFFFFFFFFFFFFFF AND DUP2 MSTORE PUSH1 0x20 ADD PUSH1 0x0 PUSH20 0xFFFFFFFFFFFFFFFFFFFFFFFFFFFFFFFFFFFFFFFF AND DUP2 MSTORE POP SWAP1 JUMP JUMPDEST PUSH1 0x0 DUP2 CALLDATALOAD SWAP1 POP PUSH2 0x36A8 DUP2 PUSH2 0x4771 JUMP JUMPDEST SWAP3 SWAP2 POP POP JUMP JUMPDEST PUSH1 0x0 DUP2 MLOAD SWAP1 POP PUSH2 0x36BD DUP2 PUSH2 0x4771 JUMP JUMPDEST SWAP3 SWAP2 POP POP JUMP JUMPDEST PUSH1 0x0 DUP1 DUP4 PUSH1 0x1F DUP5 ADD SLT PUSH2 0x36D9 JUMPI PUSH2 0x36D8 PUSH2 0x4518 JUMP JUMPDEST JUMPDEST DUP3 CALLDATALOAD SWAP1 POP PUSH8 0xFFFFFFFFFFFFFFFF DUP2 GT ISZERO PUSH2 0x36F6 JUMPI PUSH2 0x36F5 PUSH2 0x4513 JUMP JUMPDEST JUMPDEST PUSH1 0x20 DUP4 ADD SWAP2 POP DUP4 PUSH1 0x20 DUP3 MUL DUP4 ADD GT ISZERO PUSH2 0x3712 JUMPI PUSH2 0x3711 PUSH2 0x451D JUMP JUMPDEST JUMPDEST SWAP3 POP SWAP3 SWAP1 POP JUMP JUMPDEST PUSH1 0x0 DUP1 DUP4 PUSH1 0x1F DUP5 ADD SLT PUSH2 0x372F JUMPI PUSH2 0x372E PUSH2 0x4518 JUMP JUMPDEST JUMPDEST DUP3 CALLDATALOAD SWAP1 POP PUSH8 0xFFFFFFFFFFFFFFFF DUP2 GT ISZERO PUSH2 0x374C JUMPI PUSH2 0x374B PUSH2 0x4513 JUMP JUMPDEST JUMPDEST PUSH1 0x20 DUP4 ADD SWAP2 POP DUP4 PUSH1 0x20 DUP3 MUL DUP4 ADD GT ISZERO PUSH2 0x3768 JUMPI PUSH2 0x3767 PUSH2 0x451D JUMP JUMPDEST JUMPDEST SWAP3 POP SWAP3 SWAP1 POP JUMP JUMPDEST PUSH1 0x0 DUP2 CALLDATALOAD SWAP1 POP PUSH2 0x377E DUP2 PUSH2 0x4788 JUMP JUMPDEST SWAP3 SWAP2 POP POP JUMP JUMPDEST PUSH1 0x0 DUP2 MLOAD SWAP1 POP PUSH2 0x3793 DUP2 PUSH2 0x4788 JUMP JUMPDEST SWAP3 SWAP2 POP POP JUMP JUMPDEST PUSH1 0x0 DUP1 DUP4 PUSH1 0x1F DUP5 ADD SLT PUSH2 0x37AF JUMPI PUSH2 0x37AE PUSH2 0x4518 JUMP JUMPDEST JUMPDEST DUP3 CALLDATALOAD SWAP1 POP PUSH8 0xFFFFFFFFFFFFFFFF DUP2 GT ISZERO PUSH2 0x37CC JUMPI PUSH2 0x37CB PUSH2 0x4513 JUMP JUMPDEST JUMPDEST PUSH1 0x20 DUP4 ADD SWAP2 POP DUP4 PUSH1 0x1 DUP3 MUL DUP4 ADD GT ISZERO PUSH2 0x37E8 JUMPI PUSH2 0x37E7 PUSH2 0x451D JUMP JUMPDEST JUMPDEST SWAP3 POP SWAP3 SWAP1 POP JUMP JUMPDEST PUSH1 0x0 DUP2 CALLDATALOAD SWAP1 POP PUSH2 0x37FE DUP2 PUSH2 0x479F JUMP JUMPDEST SWAP3 SWAP2 POP POP JUMP JUMPDEST PUSH1 0x0 DUP2 CALLDATALOAD SWAP1 POP PUSH2 0x3813 DUP2 PUSH2 0x47B6 JUMP JUMPDEST SWAP3 SWAP2 POP POP JUMP JUMPDEST PUSH1 0x0 PUSH1 0x20 DUP3 DUP5 SUB SLT ISZERO PUSH2 0x382F JUMPI PUSH2 0x382E PUSH2 0x4527 JUMP JUMPDEST JUMPDEST PUSH1 0x0 PUSH2 0x383D DUP5 DUP3 DUP6 ADD PUSH2 0x3699 JUMP JUMPDEST SWAP2 POP POP SWAP3 SWAP2 POP POP JUMP JUMPDEST PUSH1 0x0 PUSH1 0x20 DUP3 DUP5 SUB SLT ISZERO PUSH2 0x385C JUMPI PUSH2 0x385B PUSH2 0x4527 JUMP JUMPDEST JUMPDEST PUSH1 0x0 PUSH2 0x386A DUP5 DUP3 DUP6 ADD PUSH2 0x36AE JUMP JUMPDEST SWAP2 POP POP SWAP3 SWAP2 POP POP JUMP JUMPDEST PUSH1 0x0 DUP1 PUSH1 0x0 DUP1 PUSH1 0x0 PUSH1 0x80 DUP7 DUP9 SUB SLT ISZERO PUSH2 0x388F JUMPI PUSH2 0x388E PUSH2 0x4527 JUMP JUMPDEST JUMPDEST PUSH1 0x0 PUSH2 0x389D DUP9 DUP3 DUP10 ADD PUSH2 0x3699 JUMP JUMPDEST SWAP6 POP POP PUSH1 0x20 PUSH2 0x38AE DUP9 DUP3 DUP10 ADD PUSH2 0x3699 JUMP JUMPDEST SWAP5 POP POP PUSH1 0x40 PUSH2 0x38BF DUP9 DUP3 DUP10 ADD PUSH2 0x3804 JUMP JUMPDEST SWAP4 POP POP PUSH1 0x60 DUP7 ADD CALLDATALOAD PUSH8 0xFFFFFFFFFFFFFFFF DUP2 GT ISZERO PUSH2 0x38E0 JUMPI PUSH2 0x38DF PUSH2 0x4522 JUMP JUMPDEST JUMPDEST PUSH2 0x38EC DUP9 DUP3 DUP10 ADD PUSH2 0x3799 JUMP JUMPDEST SWAP3 POP SWAP3 POP POP SWAP3 SWAP6 POP SWAP3 SWAP6 SWAP1 SWAP4 POP JUMP JUMPDEST PUSH1 0x0 DUP1 PUSH1 0x0 PUSH1 0x40 DUP5 DUP7 SUB SLT ISZERO PUSH2 0x3914 JUMPI PUSH2 0x3913 PUSH2 0x4527 JUMP JUMPDEST JUMPDEST PUSH1 0x0 PUSH2 0x3922 DUP7 DUP3 DUP8 ADD PUSH2 0x3699 JUMP JUMPDEST SWAP4 POP POP PUSH1 0x20 DUP5 ADD CALLDATALOAD PUSH8 0xFFFFFFFFFFFFFFFF DUP2 GT ISZERO PUSH2 0x3943 JUMPI PUSH2 0x3942 PUSH2 0x4522 JUMP JUMPDEST JUMPDEST PUSH2 0x394F DUP7 DUP3 DUP8 ADD PUSH2 0x36C3 JUMP JUMPDEST SWAP3 POP SWAP3 POP POP SWAP3 POP SWAP3 POP SWAP3 JUMP JUMPDEST PUSH1 0x0 DUP1 PUSH1 0x40 DUP4 DUP6 SUB SLT ISZERO PUSH2 0x3972 JUMPI PUSH2 0x3971 PUSH2 0x4527 JUMP JUMPDEST JUMPDEST PUSH1 0x0 PUSH2 0x3980 DUP6 DUP3 DUP7 ADD PUSH2 0x3699 JUMP JUMPDEST SWAP3 POP POP PUSH1 0x20 PUSH2 0x3991 DUP6 DUP3 DUP7 ADD PUSH2 0x3804 JUMP JUMPDEST SWAP2 POP POP SWAP3 POP SWAP3 SWAP1 POP JUMP JUMPDEST PUSH1 0x0 DUP1 PUSH1 0x0 PUSH1 0x40 DUP5 DUP7 SUB SLT ISZERO PUSH2 0x39B4 JUMPI PUSH2 0x39B3 PUSH2 0x4527 JUMP JUMPDEST JUMPDEST PUSH1 0x0 DUP5 ADD CALLDATALOAD PUSH8 0xFFFFFFFFFFFFFFFF DUP2 GT ISZERO PUSH2 0x39D2 JUMPI PUSH2 0x39D1 PUSH2 0x4522 JUMP JUMPDEST JUMPDEST PUSH2 0x39DE DUP7 DUP3 DUP8 ADD PUSH2 0x36C3 JUMP JUMPDEST SWAP4 POP SWAP4 POP POP PUSH1 0x20 PUSH2 0x39F1 DUP7 DUP3 DUP8 ADD PUSH2 0x376F JUMP JUMPDEST SWAP2 POP POP SWAP3 POP SWAP3 POP SWAP3 JUMP JUMPDEST PUSH1 0x0 DUP1 PUSH1 0x20 DUP4 DUP6 SUB SLT ISZERO PUSH2 0x3A12 JUMPI PUSH2 0x3A11 PUSH2 0x4527 JUMP JUMPDEST JUMPDEST PUSH1 0x0 DUP4 ADD CALLDATALOAD PUSH8 0xFFFFFFFFFFFFFFFF DUP2 GT ISZERO PUSH2 0x3A30 JUMPI PUSH2 0x3A2F PUSH2 0x4522 JUMP JUMPDEST JUMPDEST PUSH2 0x3A3C DUP6 DUP3 DUP7 ADD PUSH2 0x3719 JUMP JUMPDEST SWAP3 POP SWAP3 POP POP SWAP3 POP SWAP3 SWAP1 POP JUMP JUMPDEST PUSH1 0x0 PUSH1 0x20 DUP3 DUP5 SUB SLT ISZERO PUSH2 0x3A5E JUMPI PUSH2 0x3A5D PUSH2 0x4527 JUMP JUMPDEST JUMPDEST PUSH1 0x0 PUSH2 0x3A6C DUP5 DUP3 DUP6 ADD PUSH2 0x376F JUMP JUMPDEST SWAP2 POP POP SWAP3 SWAP2 POP POP JUMP JUMPDEST PUSH1 0x0 PUSH1 0x20 DUP3 DUP5 SUB SLT ISZERO PUSH2 0x3A8B JUMPI PUSH2 0x3A8A PUSH2 0x4527 JUMP JUMPDEST JUMPDEST PUSH1 0x0 PUSH2 0x3A99 DUP5 DUP3 DUP6 ADD PUSH2 0x3784 JUMP JUMPDEST SWAP2 POP POP SWAP3 SWAP2 POP POP JUMP JUMPDEST PUSH1 0x0 PUSH1 0x20 DUP3 DUP5 SUB SLT ISZERO PUSH2 0x3AB8 JUMPI PUSH2 0x3AB7 PUSH2 0x4527 JUMP JUMPDEST JUMPDEST PUSH1 0x0 PUSH2 0x3AC6 DUP5 DUP3 DUP6 ADD PUSH2 0x37EF JUMP JUMPDEST SWAP2 POP POP SWAP3 SWAP2 POP POP JUMP JUMPDEST PUSH1 0x0 PUSH1 0x20 DUP3 DUP5 SUB SLT ISZERO PUSH2 0x3AE5 JUMPI PUSH2 0x3AE4 PUSH2 0x4527 JUMP JUMPDEST JUMPDEST PUSH1 0x0 PUSH2 0x3AF3 DUP5 DUP3 DUP6 ADD PUSH2 0x3804 JUMP JUMPDEST SWAP2 POP POP SWAP3 SWAP2 POP POP JUMP JUMPDEST PUSH1 0x0 DUP1 PUSH1 0x40 DUP4 DUP6 SUB SLT ISZERO PUSH2 0x3B13 JUMPI PUSH2 0x3B12 PUSH2 0x4527 JUMP JUMPDEST JUMPDEST PUSH1 0x0 PUSH2 0x3B21 DUP6 DUP3 DUP7 ADD PUSH2 0x3804 JUMP JUMPDEST SWAP3 POP POP PUSH1 0x20 PUSH2 0x3B32 DUP6 DUP3 DUP7 ADD PUSH2 0x3804 JUMP JUMPDEST SWAP2 POP POP SWAP3 POP SWAP3 SWAP1 POP JUMP JUMPDEST PUSH2 0x3B45 DUP2 PUSH2 0x42D2 JUMP JUMPDEST DUP3 MSTORE POP POP JUMP JUMPDEST PUSH2 0x3B5C PUSH2 0x3B57 DUP3 PUSH2 0x42D2 JUMP JUMPDEST PUSH2 0x43EE JUMP JUMPDEST DUP3 MSTORE POP POP JUMP JUMPDEST PUSH2 0x3B6B DUP2 PUSH2 0x42E4 JUMP JUMPDEST DUP3 MSTORE POP POP JUMP JUMPDEST PUSH2 0x3B82 PUSH2 0x3B7D DUP3 PUSH2 0x42F0 JUMP JUMPDEST PUSH2 0x4400 JUMP JUMPDEST DUP3 MSTORE POP POP JUMP JUMPDEST PUSH2 0x3B91 DUP2 PUSH2 0x42FA JUMP JUMPDEST DUP3 MSTORE POP POP JUMP JUMPDEST PUSH2 0x3BA0 DUP2 PUSH2 0x4381 JUMP JUMPDEST DUP3 MSTORE POP POP JUMP JUMPDEST PUSH1 0x0 PUSH2 0x3BB3 PUSH1 0x14 DUP4 PUSH2 0x4178 JUMP JUMPDEST SWAP2 POP PUSH2 0x3BBE DUP3 PUSH2 0x4539 JUMP JUMPDEST PUSH1 0x20 DUP3 ADD SWAP1 POP SWAP2 SWAP1 POP JUMP JUMPDEST PUSH1 0x0 PUSH2 0x3BD6 PUSH1 0x17 DUP4 PUSH2 0x4178 JUMP JUMPDEST SWAP2 POP PUSH2 0x3BE1 DUP3 PUSH2 0x4562 JUMP JUMPDEST PUSH1 0x20 DUP3 ADD SWAP1 POP SWAP2 SWAP1 POP JUMP JUMPDEST PUSH1 0x0 PUSH2 0x3BF9 PUSH1 0x26 DUP4 PUSH2 0x4178 JUMP JUMPDEST SWAP2 POP PUSH2 0x3C04 DUP3 PUSH2 0x458B JUMP JUMPDEST PUSH1 0x40 DUP3 ADD SWAP1 POP SWAP2 SWAP1 POP JUMP JUMPDEST PUSH1 0x0 PUSH2 0x3C1C PUSH1 0xF DUP4 PUSH2 0x4178 JUMP JUMPDEST SWAP2 POP PUSH2 0x3C27 DUP3 PUSH2 0x45DA JUMP JUMPDEST PUSH1 0x20 DUP3 ADD SWAP1 POP SWAP2 SWAP1 POP JUMP JUMPDEST PUSH1 0x0 PUSH2 0x3C3F PUSH1 0x23 DUP4 PUSH2 0x4178 JUMP JUMPDEST SWAP2 POP PUSH2 0x3C4A DUP3 PUSH2 0x4603 JUMP JUMPDEST PUSH1 0x40 DUP3 ADD SWAP1 POP SWAP2 SWAP1 POP JUMP JUMPDEST PUSH1 0x0 PUSH2 0x3C62 PUSH1 0x12 DUP4 PUSH2 0x4178 JUMP JUMPDEST SWAP2 POP PUSH2 0x3C6D DUP3 PUSH2 0x4652 JUMP JUMPDEST PUSH1 0x20 DUP3 ADD SWAP1 POP SWAP2 SWAP1 POP JUMP JUMPDEST PUSH1 0x0 PUSH2 0x3C85 PUSH1 0x10 DUP4 PUSH2 0x4178 JUMP JUMPDEST SWAP2 POP PUSH2 0x3C90 DUP3 PUSH2 0x467B JUMP JUMPDEST PUSH1 0x20 DUP3 ADD SWAP1 POP SWAP2 SWAP1 POP JUMP JUMPDEST PUSH1 0x0 PUSH2 0x3CA8 PUSH1 0x24 DUP4 PUSH2 0x4178 JUMP JUMPDEST SWAP2 POP PUSH2 0x3CB3 DUP3 PUSH2 0x46A4 JUMP JUMPDEST PUSH1 0x40 DUP3 ADD SWAP1 POP SWAP2 SWAP1 POP JUMP JUMPDEST PUSH1 0x0 PUSH2 0x3CCB PUSH1 0x20 DUP4 PUSH2 0x4178 JUMP JUMPDEST SWAP2 POP PUSH2 0x3CD6 DUP3 PUSH2 0x46F3 JUMP JUMPDEST PUSH1 0x20 DUP3 ADD SWAP1 POP SWAP2 SWAP1 POP JUMP JUMPDEST PUSH1 0x0 PUSH2 0x3CEE PUSH1 0x1A DUP4 PUSH2 0x4178 JUMP JUMPDEST SWAP2 POP PUSH2 0x3CF9 DUP3 PUSH2 0x471C JUMP JUMPDEST PUSH1 0x20 DUP3 ADD SWAP1 POP SWAP2 SWAP1 POP JUMP JUMPDEST PUSH1 0x0 PUSH2 0x3D11 PUSH1 0x0 DUP4 PUSH2 0x4167 JUMP JUMPDEST SWAP2 POP PUSH2 0x3D1C DUP3 PUSH2 0x4745 JUMP JUMPDEST PUSH1 0x0 DUP3 ADD SWAP1 POP SWAP2 SWAP1 POP JUMP JUMPDEST PUSH1 0x0 PUSH2 0x3D34 PUSH1 0xD DUP4 PUSH2 0x4178 JUMP JUMPDEST SWAP2 POP PUSH2 0x3D3F DUP3 PUSH2 0x4748 JUMP JUMPDEST PUSH1 0x20 DUP3 ADD SWAP1 POP SWAP2 SWAP1 POP JUMP JUMPDEST PUSH2 0x3D53 DUP2 PUSH2 0x4326 JUMP JUMPDEST DUP3 MSTORE POP POP JUMP JUMPDEST PUSH2 0x3D62 DUP2 PUSH2 0x4393 JUMP JUMPDEST DUP3 MSTORE POP POP JUMP JUMPDEST PUSH2 0x3D71 DUP2 PUSH2 0x4354 JUMP JUMPDEST DUP3 MSTORE POP POP JUMP JUMPDEST PUSH2 0x3D88 PUSH2 0x3D83 DUP3 PUSH2 0x4354 JUMP JUMPDEST PUSH2 0x441C JUMP JUMPDEST DUP3 MSTORE POP POP JUMP JUMPDEST PUSH2 0x3D97 DUP2 PUSH2 0x436B JUMP JUMPDEST DUP3 MSTORE POP POP JUMP JUMPDEST PUSH2 0x3DA6 DUP2 PUSH2 0x435E JUMP JUMPDEST DUP3 MSTORE POP POP JUMP JUMPDEST PUSH1 0x0 PUSH2 0x3DB8 DUP3 DUP8 PUSH2 0x3B4B JUMP JUMPDEST PUSH1 0x14 DUP3 ADD SWAP2 POP PUSH2 0x3DC8 DUP3 DUP7 PUSH2 0x3B71 JUMP JUMPDEST PUSH1 0x20 DUP3 ADD SWAP2 POP PUSH2 0x3DD8 DUP3 DUP6 PUSH2 0x3D77 JUMP JUMPDEST PUSH1 0x20 DUP3 ADD SWAP2 POP PUSH2 0x3DE8 DUP3 DUP5 PUSH2 0x3D77 JUMP JUMPDEST PUSH1 0x20 DUP3 ADD SWAP2 POP DUP2 SWAP1 POP SWAP6 SWAP5 POP POP POP POP POP JUMP JUMPDEST PUSH1 0x0 PUSH1 0x20 DUP3 ADD SWAP1 POP PUSH2 0x3E0F PUSH1 0x0 DUP4 ADD DUP5 PUSH2 0x3B3C JUMP JUMPDEST SWAP3 SWAP2 POP POP JUMP JUMPDEST PUSH1 0x0 PUSH1 0x60 DUP3 ADD SWAP1 POP PUSH2 0x3E2A PUSH1 0x0 DUP4 ADD DUP7 PUSH2 0x3B3C JUMP JUMPDEST PUSH2 0x3E37 PUSH1 0x20 DUP4 ADD DUP6 PUSH2 0x3B3C JUMP JUMPDEST PUSH2 0x3E44 PUSH1 0x40 DUP4 ADD DUP5 PUSH2 0x3D59 JUMP JUMPDEST SWAP5 SWAP4 POP POP POP POP JUMP JUMPDEST PUSH1 0x0 PUSH1 0x80 DUP3 ADD SWAP1 POP PUSH2 0x3E61 PUSH1 0x0 DUP4 ADD DUP7 PUSH2 0x3B3C JUMP JUMPDEST PUSH2 0x3E6E PUSH1 0x20 DUP4 ADD DUP6 PUSH2 0x3B3C JUMP JUMPDEST PUSH2 0x3E7B PUSH1 0x40 DUP4 ADD DUP5 PUSH2 0x3D68 JUMP JUMPDEST DUP2 DUP2 SUB PUSH1 0x60 DUP4 ADD MSTORE PUSH2 0x3E8C DUP2 PUSH2 0x3D04 JUMP JUMPDEST SWAP1 POP SWAP5 SWAP4 POP POP POP POP JUMP JUMPDEST PUSH1 0x0 PUSH1 0x80 DUP3 ADD SWAP1 POP PUSH2 0x3EAB PUSH1 0x0 DUP4 ADD DUP8 PUSH2 0x3B3C JUMP JUMPDEST PUSH2 0x3EB8 PUSH1 0x20 DUP4 ADD DUP7 PUSH2 0x3D68 JUMP JUMPDEST PUSH2 0x3EC5 PUSH1 0x40 DUP4 ADD DUP6 PUSH2 0x3D68 JUMP JUMPDEST PUSH2 0x3ED2 PUSH1 0x60 DUP4 ADD DUP5 PUSH2 0x3B62 JUMP JUMPDEST SWAP6 SWAP5 POP POP POP POP POP JUMP JUMPDEST PUSH1 0x0 PUSH1 0x20 DUP3 ADD SWAP1 POP PUSH2 0x3EF0 PUSH1 0x0 DUP4 ADD DUP5 PUSH2 0x3B62 JUMP JUMPDEST SWAP3 SWAP2 POP POP JUMP JUMPDEST PUSH1 0x0 PUSH1 0x20 DUP3 ADD SWAP1 POP PUSH2 0x3F0B PUSH1 0x0 DUP4 ADD DUP5 PUSH2 0x3B88 JUMP JUMPDEST SWAP3 SWAP2 POP POP JUMP JUMPDEST PUSH1 0x0 PUSH1 0x20 DUP3 ADD SWAP1 POP DUP2 DUP2 SUB PUSH1 0x0 DUP4 ADD MSTORE PUSH2 0x3F2A DUP2 PUSH2 0x3BA6 JUMP JUMPDEST SWAP1 POP SWAP2 SWAP1 POP JUMP JUMPDEST PUSH1 0x0 PUSH1 0x20 DUP3 ADD SWAP1 POP DUP2 DUP2 SUB PUSH1 0x0 DUP4 ADD MSTORE PUSH2 0x3F4A DUP2 PUSH2 0x3BC9 JUMP JUMPDEST SWAP1 POP SWAP2 SWAP1 POP JUMP JUMPDEST PUSH1 0x0 PUSH1 0x20 DUP3 ADD SWAP1 POP DUP2 DUP2 SUB PUSH1 0x0 DUP4 ADD MSTORE PUSH2 0x3F6A DUP2 PUSH2 0x3BEC JUMP JUMPDEST SWAP1 POP SWAP2 SWAP1 POP JUMP JUMPDEST PUSH1 0x0 PUSH1 0x20 DUP3 ADD SWAP1 POP DUP2 DUP2 SUB PUSH1 0x0 DUP4 ADD MSTORE PUSH2 0x3F8A DUP2 PUSH2 0x3C0F JUMP JUMPDEST SWAP1 POP SWAP2 SWAP1 POP JUMP JUMPDEST PUSH1 0x0 PUSH1 0x20 DUP3 ADD SWAP1 POP DUP2 DUP2 SUB PUSH1 0x0 DUP4 ADD MSTORE PUSH2 0x3FAA DUP2 PUSH2 0x3C32 JUMP JUMPDEST SWAP1 POP SWAP2 SWAP1 POP JUMP JUMPDEST PUSH1 0x0 PUSH1 0x20 DUP3 ADD SWAP1 POP DUP2 DUP2 SUB PUSH1 0x0 DUP4 ADD MSTORE PUSH2 0x3FCA DUP2 PUSH2 0x3C55 JUMP JUMPDEST SWAP1 POP SWAP2 SWAP1 POP JUMP JUMPDEST PUSH1 0x0 PUSH1 0x20 DUP3 ADD SWAP1 POP DUP2 DUP2 SUB PUSH1 0x0 DUP4 ADD MSTORE PUSH2 0x3FEA DUP2 PUSH2 0x3C78 JUMP JUMPDEST SWAP1 POP SWAP2 SWAP1 POP JUMP JUMPDEST PUSH1 0x0 PUSH1 0x20 DUP3 ADD SWAP1 POP DUP2 DUP2 SUB PUSH1 0x0 DUP4 ADD MSTORE PUSH2 0x400A DUP2 PUSH2 0x3C9B JUMP JUMPDEST SWAP1 POP SWAP2 SWAP1 POP JUMP JUMPDEST PUSH1 0x0 PUSH1 0x20 DUP3 ADD SWAP1 POP DUP2 DUP2 SUB PUSH1 0x0 DUP4 ADD MSTORE PUSH2 0x402A DUP2 PUSH2 0x3CBE JUMP JUMPDEST SWAP1 POP SWAP2 SWAP1 POP JUMP JUMPDEST PUSH1 0x0 PUSH1 0x20 DUP3 ADD SWAP1 POP DUP2 DUP2 SUB PUSH1 0x0 DUP4 ADD MSTORE PUSH2 0x404A DUP2 PUSH2 0x3CE1 JUMP JUMPDEST SWAP1 POP SWAP2 SWAP1 POP JUMP JUMPDEST PUSH1 0x0 PUSH1 0x20 DUP3 ADD SWAP1 POP DUP2 DUP2 SUB PUSH1 0x0 DUP4 ADD MSTORE PUSH2 0x406A DUP2 PUSH2 0x3D27 JUMP JUMPDEST SWAP1 POP SWAP2 SWAP1 POP JUMP JUMPDEST PUSH1 0x0 PUSH1 0x20 DUP3 ADD SWAP1 POP PUSH2 0x4086 PUSH1 0x0 DUP4 ADD DUP5 PUSH2 0x3D59 JUMP JUMPDEST SWAP3 SWAP2 POP POP JUMP JUMPDEST PUSH1 0x0 PUSH1 0x60 DUP3 ADD SWAP1 POP PUSH2 0x40A1 PUSH1 0x0 DUP4 ADD DUP7 PUSH2 0x3D4A JUMP JUMPDEST PUSH2 0x40AE PUSH1 0x20 DUP4 ADD DUP6 PUSH2 0x3D8E JUMP JUMPDEST PUSH2 0x40BB PUSH1 0x40 DUP4 ADD DUP5 PUSH2 0x3B3C JUMP JUMPDEST SWAP5 SWAP4 POP POP POP POP JUMP JUMPDEST PUSH1 0x0 PUSH1 0x20 DUP3 ADD SWAP1 POP PUSH2 0x40D8 PUSH1 0x0 DUP4 ADD DUP5 PUSH2 0x3D68 JUMP JUMPDEST SWAP3 SWAP2 POP POP JUMP JUMPDEST PUSH1 0x0 PUSH1 0x60 DUP3 ADD SWAP1 POP PUSH2 0x40F3 PUSH1 0x0 DUP4 ADD DUP7 PUSH2 0x3D68 JUMP JUMPDEST PUSH2 0x4100 PUSH1 0x20 DUP4 ADD DUP6 PUSH2 0x3B97 JUMP JUMPDEST PUSH2 0x410D PUSH1 0x40 DUP4 ADD DUP5 PUSH2 0x3B62 JUMP JUMPDEST SWAP5 SWAP4 POP POP POP POP JUMP JUMPDEST PUSH1 0x0 PUSH1 0x60 DUP3 ADD SWAP1 POP PUSH2 0x412A PUSH1 0x0 DUP4 ADD DUP7 PUSH2 0x3D68 JUMP JUMPDEST PUSH2 0x4137 PUSH1 0x20 DUP4 ADD DUP6 PUSH2 0x3D68 JUMP JUMPDEST PUSH2 0x4144 PUSH1 0x40 DUP4 ADD DUP5 PUSH2 0x3B62 JUMP JUMPDEST SWAP5 SWAP4 POP POP POP POP JUMP JUMPDEST PUSH1 0x0 PUSH1 0x20 DUP3 ADD SWAP1 POP PUSH2 0x4161 PUSH1 0x0 DUP4 ADD DUP5 PUSH2 0x3D9D JUMP JUMPDEST SWAP3 SWAP2 POP POP JUMP JUMPDEST PUSH1 0x0 DUP3 DUP3 MSTORE PUSH1 0x20 DUP3 ADD SWAP1 POP SWAP3 SWAP2 POP POP JUMP JUMPDEST PUSH1 0x0 DUP3 DUP3 MSTORE PUSH1 0x20 DUP3 ADD SWAP1 POP SWAP3 SWAP2 POP POP JUMP JUMPDEST PUSH1 0x0 PUSH2 0x4194 DUP3 PUSH2 0x4354 JUMP JUMPDEST SWAP2 POP PUSH2 0x419F DUP4 PUSH2 0x4354 JUMP JUMPDEST SWAP3 POP DUP3 PUSH32 0xFFFFFFFFFFFFFFFFFFFFFFFFFFFFFFFFFFFFFFFFFFFFFFFFFFFFFFFFFFFFFFFF SUB DUP3 GT ISZERO PUSH2 0x41D4 JUMPI PUSH2 0x41D3 PUSH2 0x4457 JUMP JUMPDEST JUMPDEST DUP3 DUP3 ADD SWAP1 POP SWAP3 SWAP2 POP POP JUMP JUMPDEST PUSH1 0x0 PUSH2 0x41EA DUP3 PUSH2 0x4354 JUMP JUMPDEST SWAP2 POP PUSH2 0x41F5 DUP4 PUSH2 0x4354 JUMP JUMPDEST SWAP3 POP DUP3 PUSH2 0x4205 JUMPI PUSH2 0x4204 PUSH2 0x4486 JUMP JUMPDEST JUMPDEST DUP3 DUP3 DIV SWAP1 POP SWAP3 SWAP2 POP POP JUMP JUMPDEST PUSH1 0x0 PUSH2 0x421B DUP3 PUSH2 0x4354 JUMP JUMPDEST SWAP2 POP PUSH2 0x4226 DUP4 PUSH2 0x4354 JUMP JUMPDEST SWAP3 POP DUP2 PUSH32 0xFFFFFFFFFFFFFFFFFFFFFFFFFFFFFFFFFFFFFFFFFFFFFFFFFFFFFFFFFFFFFFFF DIV DUP4 GT DUP3 ISZERO ISZERO AND ISZERO PUSH2 0x425F JUMPI PUSH2 0x425E PUSH2 0x4457 JUMP JUMPDEST JUMPDEST DUP3 DUP3 MUL SWAP1 POP SWAP3 SWAP2 POP POP JUMP JUMPDEST PUSH1 0x0 PUSH2 0x4275 DUP3 PUSH2 0x4354 JUMP JUMPDEST SWAP2 POP PUSH2 0x4280 DUP4 PUSH2 0x4354 JUMP JUMPDEST SWAP3 POP DUP3 DUP3 LT ISZERO PUSH2 0x4293 JUMPI PUSH2 0x4292 PUSH2 0x4457 JUMP JUMPDEST JUMPDEST DUP3 DUP3 SUB SWAP1 POP SWAP3 SWAP2 POP POP JUMP JUMPDEST PUSH1 0x0 PUSH2 0x42A9 DUP3 PUSH2 0x435E JUMP JUMPDEST SWAP2 POP PUSH2 0x42B4 DUP4 PUSH2 0x435E JUMP JUMPDEST SWAP3 POP DUP3 DUP3 LT ISZERO PUSH2 0x42C7 JUMPI PUSH2 0x42C6 PUSH2 0x4457 JUMP JUMPDEST JUMPDEST DUP3 DUP3 SUB SWAP1 POP SWAP3 SWAP2 POP POP JUMP JUMPDEST PUSH1 0x0 PUSH2 0x42DD DUP3 PUSH2 0x4334 JUMP JUMPDEST SWAP1 POP SWAP2 SWAP1 POP JUMP JUMPDEST PUSH1 0x0 DUP2 ISZERO ISZERO SWAP1 POP SWAP2 SWAP1 POP JUMP JUMPDEST PUSH1 0x0 DUP2 SWAP1 POP SWAP2 SWAP1 POP JUMP JUMPDEST PUSH1 0x0 PUSH32 0xFFFFFFFF00000000000000000000000000000000000000000000000000000000 DUP3 AND SWAP1 POP SWAP2 SWAP1 POP JUMP JUMPDEST PUSH1 0x0 PUSH2 0xFFFF DUP3 AND SWAP1 POP SWAP2 SWAP1 POP JUMP JUMPDEST PUSH1 0x0 PUSH20 0xFFFFFFFFFFFFFFFFFFFFFFFFFFFFFFFFFFFFFFFF DUP3 AND SWAP1 POP SWAP2 SWAP1 POP JUMP JUMPDEST PUSH1 0x0 DUP2 SWAP1 POP SWAP2 SWAP1 POP JUMP JUMPDEST PUSH1 0x0 PUSH1 0xFF DUP3 AND SWAP1 POP SWAP2 SWAP1 POP JUMP JUMPDEST PUSH1 0x0 PUSH10 0xFFFFFFFFFFFFFFFFFFFF DUP3 AND SWAP1 POP SWAP2 SWAP1 POP JUMP JUMPDEST PUSH1 0x0 PUSH2 0x438C DUP3 PUSH2 0x4354 JUMP JUMPDEST SWAP1 POP SWAP2 SWAP1 POP JUMP JUMPDEST PUSH1 0x0 PUSH2 0x439E DUP3 PUSH2 0x4326 JUMP JUMPDEST SWAP1 POP SWAP2 SWAP1 POP JUMP JUMPDEST PUSH1 0x0 PUSH2 0x43B0 DUP3 PUSH2 0x4354 JUMP JUMPDEST SWAP2 POP PUSH32 0xFFFFFFFFFFFFFFFFFFFFFFFFFFFFFFFFFFFFFFFFFFFFFFFFFFFFFFFFFFFFFFFF DUP3 EQ ISZERO PUSH2 0x43E3 JUMPI PUSH2 0x43E2 PUSH2 0x4457 JUMP JUMPDEST JUMPDEST PUSH1 0x1 DUP3 ADD SWAP1 POP SWAP2 SWAP1 POP JUMP JUMPDEST PUSH1 0x0 PUSH2 0x43F9 DUP3 PUSH2 0x440A JUMP JUMPDEST SWAP1 POP SWAP2 SWAP1 POP JUMP JUMPDEST PUSH1 0x0 DUP2 SWAP1 POP SWAP2 SWAP1 POP JUMP JUMPDEST PUSH1 0x0 PUSH2 0x4415 DUP3 PUSH2 0x452C JUMP JUMPDEST SWAP1 POP SWAP2 SWAP1 POP JUMP JUMPDEST PUSH1 0x0 DUP2 SWAP1 POP SWAP2 SWAP1 POP JUMP JUMPDEST PUSH1 0x0 PUSH2 0x4431 DUP3 PUSH2 0x4354 JUMP JUMPDEST SWAP2 POP PUSH2 0x443C DUP4 PUSH2 0x4354 JUMP JUMPDEST SWAP3 POP DUP3 PUSH2 0x444C JUMPI PUSH2 0x444B PUSH2 0x4486 JUMP JUMPDEST JUMPDEST DUP3 DUP3 MOD SWAP1 POP SWAP3 SWAP2 POP POP JUMP JUMPDEST PUSH32 0x4E487B7100000000000000000000000000000000000000000000000000000000 PUSH1 0x0 MSTORE PUSH1 0x11 PUSH1 0x4 MSTORE PUSH1 0x24 PUSH1 0x0 REVERT JUMPDEST PUSH32 0x4E487B7100000000000000000000000000000000000000000000000000000000 PUSH1 0x0 MSTORE PUSH1 0x12 PUSH1 0x4 MSTORE PUSH1 0x24 PUSH1 0x0 REVERT JUMPDEST PUSH32 0x4E487B7100000000000000000000000000000000000000000000000000000000 PUSH1 0x0 MSTORE PUSH1 0x31 PUSH1 0x4 MSTORE PUSH1 0x24 PUSH1 0x0 REVERT JUMPDEST PUSH32 0x4E487B7100000000000000000000000000000000000000000000000000000000 PUSH1 0x0 MSTORE PUSH1 0x32 PUSH1 0x4 MSTORE PUSH1 0x24 PUSH1 0x0 REVERT JUMPDEST PUSH1 0x0 DUP1 REVERT JUMPDEST PUSH1 0x0 DUP1 REVERT JUMPDEST PUSH1 0x0 DUP1 REVERT JUMPDEST PUSH1 0x0 DUP1 REVERT JUMPDEST PUSH1 0x0 DUP1 REVERT JUMPDEST PUSH1 0x0 DUP2 PUSH1 0x60 SHL SWAP1 POP SWAP2 SWAP1 POP JUMP JUMPDEST PUSH32 0x5061757361626C653A206E6F7420706175736564000000000000000000000000 PUSH1 0x0 DUP3 ADD MSTORE POP JUMP JUMPDEST PUSH32 0x41494E5420412050415254204F4620544845205041434B000000000000000000 PUSH1 0x0 DUP3 ADD MSTORE POP JUMP JUMPDEST PUSH32 0x4F776E61626C653A206E6577206F776E657220697320746865207A65726F2061 PUSH1 0x0 DUP3 ADD MSTORE PUSH32 0x6464726573730000000000000000000000000000000000000000000000000000 PUSH1 0x20 DUP3 ADD MSTORE POP JUMP JUMPDEST PUSH32 0x5245534355452044495341424C45440000000000000000000000000000000000 PUSH1 0x0 DUP3 ADD MSTORE POP JUMP JUMPDEST PUSH32 0x43616E6E6F742073656E6420746F6B656E7320746F204261726E206469726563 PUSH1 0x0 DUP3 ADD MSTORE PUSH32 0x746C790000000000000000000000000000000000000000000000000000000000 PUSH1 0x20 DUP3 ADD MSTORE POP JUMP JUMPDEST PUSH32 0x5357495045522C204E4F2053574950494E470000000000000000000000000000 PUSH1 0x0 DUP3 ADD MSTORE POP JUMP JUMPDEST PUSH32 0x5061757361626C653A2070617573656400000000000000000000000000000000 PUSH1 0x0 DUP3 ADD MSTORE POP JUMP JUMPDEST PUSH32 0x474F4E4E4120424520434F4C4420574954484F55542054574F20444159275320 PUSH1 0x0 DUP3 ADD MSTORE PUSH32 0x574F4F4C00000000000000000000000000000000000000000000000000000000 PUSH1 0x20 DUP3 ADD MSTORE POP JUMP JUMPDEST PUSH32 0x4F776E61626C653A2063616C6C6572206973206E6F7420746865206F776E6572 PUSH1 0x0 DUP3 ADD MSTORE POP JUMP JUMPDEST PUSH32 0x444F4E54204749564520594F555220544F4B454E532041574159000000000000 PUSH1 0x0 DUP3 ADD MSTORE POP JUMP JUMPDEST POP JUMP JUMPDEST PUSH32 0x41494E5420594F20544F4B454E00000000000000000000000000000000000000 PUSH1 0x0 DUP3 ADD MSTORE POP JUMP JUMPDEST PUSH2 0x477A DUP2 PUSH2 0x42D2 JUMP JUMPDEST DUP2 EQ PUSH2 0x4785 JUMPI PUSH1 0x0 DUP1 REVERT JUMPDEST POP JUMP JUMPDEST PUSH2 0x4791 DUP2 PUSH2 0x42E4 JUMP JUMPDEST DUP2 EQ PUSH2 0x479C JUMPI PUSH1 0x0 DUP1 REVERT JUMPDEST POP JUMP JUMPDEST PUSH2 0x47A8 DUP2 PUSH2 0x4326 JUMP JUMPDEST DUP2 EQ PUSH2 0x47B3 JUMPI PUSH1 0x0 DUP1 REVERT JUMPDEST POP JUMP JUMPDEST PUSH2 0x47BF DUP2 PUSH2 0x4354 JUMP JUMPDEST DUP2 EQ PUSH2 0x47CA JUMPI PUSH1 0x0 DUP1 REVERT JUMPDEST POP JUMP INVALID LOG2 PUSH5 0x6970667358 0x22 SLT KECCAK256 EXTCODESIZE 0xDD 0x4C 0xCA 0xBC CALL 0xF 0x22 0xB4 0xC1 0xAF PUSH28 0x652C79F5B7E4C90F50EE5819EEA6C2BDB1E0B60364736F6C63430008 SMOD STOP CALLER "
		},
		"gasEstimates": {
			"creation": {
				"codeDepositCost": "3687000",
				"executionCost": "infinite",
				"totalCost": "infinite"
			},
			"external": {
				"DAILY_WOOL_RATE()": "397",
				"MAXIMUM_GLOBAL_WOOL()": "374",
				"MAX_ALPHA()": "448",
				"MINIMUM_TO_EXIT()": "375",
				"WOOL_CLAIM_TAX_PERCENTAGE()": "419",
				"_alphaForWolf()": "infinite",
				"addManyToBarnAndPack(address,uint16[])": "infinite",
				"barn(uint256)": "7540",
				"catOfOwnerByIndex(address,uint256)": "infinite",
				"catPackLengthOf(address)": "2961",
				"catpack(address,uint256)": "infinite",
				"claimManyFromBarnAndPack(uint16[],bool)": "infinite",
				"fridge(address,uint256)": "infinite",
				"fridgeLengthOf(address)": "2960",
				"lastClaimTimestamp()": "2540",
				"mouseOfOwnerByIndex(address,uint256)": "infinite",
				"onERC721Received(address,address,uint256,bytes)": "infinite",
				"owner()": "2589",
				"pack(uint256,uint256)": "infinite",
				"packIndices(uint256)": "infinite",
				"paused()": "2596",
				"randomWolfOwner(uint256)": "infinite",
				"renounceOwnership()": "30419",
				"rescue(uint256[])": "infinite",
				"rescueEnabled()": "2561",
				"setPaused(bool)": "infinite",
				"setRescueEnabled(bool)": "26986",
				"totalAlphaStaked()": "2541",
				"totalSheepStaked()": "2518",
				"totalWoolEarned()": "2474",
				"transferOwnership(address)": "30855",
				"unaccountedRewards()": "2495",
				"woolPerAlpha()": "2517"
			},
			"internal": {
				"_addSheepToBarn(address,uint256)": "infinite",
				"_addWolfToPack(address,uint256)": "infinite",
				"_claimSheepFromBarn(uint256,bool)": "infinite",
				"_claimWolfFromPack(uint256,bool)": "infinite",
				"_payWolfTax(uint256)": "infinite",
				"random(uint256)": "infinite"
			}
		},
		"methodIdentifiers": {
			"DAILY_WOOL_RATE()": "2435d651",
			"MAXIMUM_GLOBAL_WOOL()": "88ff498b",
			"MAX_ALPHA()": "201ef2a4",
			"MINIMUM_TO_EXIT()": "37a386b9",
			"WOOL_CLAIM_TAX_PERCENTAGE()": "28b3e697",
			"_alphaForWolf()": "5d4aeab3",
			"addManyToBarnAndPack(address,uint16[])": "81d449c1",
			"barn(uint256)": "387f8bdd",
			"catOfOwnerByIndex(address,uint256)": "a1176c9d",
			"catPackLengthOf(address)": "2f7282c8",
			"catpack(address,uint256)": "6b5e5864",
			"claimManyFromBarnAndPack(uint16[],bool)": "13324aa9",
			"fridge(address,uint256)": "b884f74b",
			"fridgeLengthOf(address)": "a619143d",
			"lastClaimTimestamp()": "607af397",
			"mouseOfOwnerByIndex(address,uint256)": "23825a5a",
			"onERC721Received(address,address,uint256,bytes)": "150b7a02",
			"owner()": "8da5cb5b",
			"pack(uint256,uint256)": "dd55fcb3",
			"packIndices(uint256)": "6f234fb5",
			"paused()": "5c975abb",
			"randomWolfOwner(uint256)": "3c989e6a",
			"renounceOwnership()": "715018a6",
			"rescue(uint256[])": "6a3ef057",
			"rescueEnabled()": "39db714f",
			"setPaused(bool)": "16c38b3c",
			"setRescueEnabled(bool)": "76531008",
			"totalAlphaStaked()": "6f257875",
			"totalSheepStaked()": "76fbe719",
			"totalWoolEarned()": "51211436",
			"transferOwnership(address)": "f2fde38b",
			"unaccountedRewards()": "c0c472c0",
			"woolPerAlpha()": "db796b89"
		}
	},
	"abi": [
		{
			"inputs": [
				{
					"internalType": "address",
					"name": "_catDAONFT",
					"type": "address"
				},
				{
					"internalType": "address",
					"name": "_Cheese",
					"type": "address"
				}
			],
			"stateMutability": "nonpayable",
			"type": "constructor"
		},
		{
			"anonymous": false,
			"inputs": [
				{
					"indexed": true,
					"internalType": "address",
					"name": "previousOwner",
					"type": "address"
				},
				{
					"indexed": true,
					"internalType": "address",
					"name": "newOwner",
					"type": "address"
				}
			],
			"name": "OwnershipTransferred",
			"type": "event"
		},
		{
			"anonymous": false,
			"inputs": [
				{
					"indexed": false,
					"internalType": "address",
					"name": "account",
					"type": "address"
				}
			],
			"name": "Paused",
			"type": "event"
		},
		{
			"anonymous": false,
			"inputs": [
				{
					"indexed": false,
					"internalType": "uint256",
					"name": "tokenId",
					"type": "uint256"
				},
				{
					"indexed": false,
					"internalType": "uint256",
					"name": "earned",
					"type": "uint256"
				},
				{
					"indexed": false,
					"internalType": "bool",
					"name": "unstaked",
					"type": "bool"
				}
			],
			"name": "SheepClaimed",
			"type": "event"
		},
		{
			"anonymous": false,
			"inputs": [
				{
					"indexed": false,
					"internalType": "address",
					"name": "owner",
					"type": "address"
				},
				{
					"indexed": false,
					"internalType": "uint256",
					"name": "tokenId",
					"type": "uint256"
				},
				{
					"indexed": false,
					"internalType": "uint256",
					"name": "value",
					"type": "uint256"
				},
				{
					"indexed": false,
					"internalType": "bool",
					"name": "isCat",
					"type": "bool"
				}
			],
			"name": "TokenStaked",
			"type": "event"
		},
		{
			"anonymous": false,
			"inputs": [
				{
					"indexed": false,
					"internalType": "address",
					"name": "account",
					"type": "address"
				}
			],
			"name": "Unpaused",
			"type": "event"
		},
		{
			"anonymous": false,
			"inputs": [
				{
					"indexed": false,
					"internalType": "uint256",
					"name": "tokenId",
					"type": "uint256"
				},
				{
					"indexed": false,
					"internalType": "uint256",
					"name": "earned",
					"type": "uint256"
				},
				{
					"indexed": false,
					"internalType": "bool",
					"name": "unstaked",
					"type": "bool"
				}
			],
			"name": "WolfClaimed",
			"type": "event"
		},
		{
			"inputs": [],
			"name": "DAILY_WOOL_RATE",
			"outputs": [
				{
					"internalType": "uint256",
					"name": "",
					"type": "uint256"
				}
			],
			"stateMutability": "view",
			"type": "function"
		},
		{
			"inputs": [],
			"name": "MAXIMUM_GLOBAL_WOOL",
			"outputs": [
				{
					"internalType": "uint256",
					"name": "",
					"type": "uint256"
				}
			],
			"stateMutability": "view",
			"type": "function"
		},
		{
			"inputs": [],
			"name": "MAX_ALPHA",
			"outputs": [
				{
					"internalType": "uint8",
					"name": "",
					"type": "uint8"
				}
			],
			"stateMutability": "view",
			"type": "function"
		},
		{
			"inputs": [],
			"name": "MINIMUM_TO_EXIT",
			"outputs": [
				{
					"internalType": "uint256",
					"name": "",
					"type": "uint256"
				}
			],
			"stateMutability": "view",
			"type": "function"
		},
		{
			"inputs": [],
			"name": "WOOL_CLAIM_TAX_PERCENTAGE",
			"outputs": [
				{
					"internalType": "uint256",
					"name": "",
					"type": "uint256"
				}
			],
			"stateMutability": "view",
			"type": "function"
		},
		{
			"inputs": [],
			"name": "_alphaForWolf",
			"outputs": [
				{
					"internalType": "uint8",
					"name": "",
					"type": "uint8"
				}
			],
			"stateMutability": "pure",
			"type": "function"
		},
		{
			"inputs": [
				{
					"internalType": "address",
					"name": "account",
					"type": "address"
				},
				{
					"internalType": "uint16[]",
					"name": "tokenIds",
					"type": "uint16[]"
				}
			],
			"name": "addManyToBarnAndPack",
			"outputs": [],
			"stateMutability": "nonpayable",
			"type": "function"
		},
		{
			"inputs": [
				{
					"internalType": "uint256",
					"name": "",
					"type": "uint256"
				}
			],
			"name": "barn",
			"outputs": [
				{
					"internalType": "uint16",
					"name": "tokenId",
					"type": "uint16"
				},
				{
					"internalType": "uint80",
					"name": "value",
					"type": "uint80"
				},
				{
					"internalType": "address",
					"name": "owner",
					"type": "address"
				}
			],
			"stateMutability": "view",
			"type": "function"
		},
		{
			"inputs": [
				{
					"internalType": "address",
					"name": "owner",
					"type": "address"
				},
				{
					"internalType": "uint256",
					"name": "index",
					"type": "uint256"
				}
			],
			"name": "catOfOwnerByIndex",
			"outputs": [
				{
					"internalType": "uint256",
					"name": "tokenId",
					"type": "uint256"
				}
			],
			"stateMutability": "view",
			"type": "function"
		},
		{
			"inputs": [
				{
					"internalType": "address",
					"name": "owner",
					"type": "address"
				}
			],
			"name": "catPackLengthOf",
			"outputs": [
				{
					"internalType": "uint256",
					"name": "",
					"type": "uint256"
				}
			],
			"stateMutability": "view",
			"type": "function"
		},
		{
			"inputs": [
				{
					"internalType": "address",
					"name": "",
					"type": "address"
				},
				{
					"internalType": "uint256",
					"name": "",
					"type": "uint256"
				}
			],
			"name": "catpack",
			"outputs": [
				{
					"internalType": "uint256",
					"name": "",
					"type": "uint256"
				}
			],
			"stateMutability": "view",
			"type": "function"
		},
		{
			"inputs": [
				{
					"internalType": "uint16[]",
					"name": "tokenIds",
					"type": "uint16[]"
				},
				{
					"internalType": "bool",
					"name": "unstake",
					"type": "bool"
				}
			],
			"name": "claimManyFromBarnAndPack",
			"outputs": [],
			"stateMutability": "nonpayable",
			"type": "function"
		},
		{
			"inputs": [
				{
					"internalType": "address",
					"name": "",
					"type": "address"
				},
				{
					"internalType": "uint256",
					"name": "",
					"type": "uint256"
				}
			],
			"name": "fridge",
			"outputs": [
				{
					"internalType": "uint256",
					"name": "",
					"type": "uint256"
				}
			],
			"stateMutability": "view",
			"type": "function"
		},
		{
			"inputs": [
				{
					"internalType": "address",
					"name": "owner",
					"type": "address"
				}
			],
			"name": "fridgeLengthOf",
			"outputs": [
				{
					"internalType": "uint256",
					"name": "",
					"type": "uint256"
				}
			],
			"stateMutability": "view",
			"type": "function"
		},
		{
			"inputs": [],
			"name": "lastClaimTimestamp",
			"outputs": [
				{
					"internalType": "uint256",
					"name": "",
					"type": "uint256"
				}
			],
			"stateMutability": "view",
			"type": "function"
		},
		{
			"inputs": [
				{
					"internalType": "address",
					"name": "owner",
					"type": "address"
				},
				{
					"internalType": "uint256",
					"name": "index",
					"type": "uint256"
				}
			],
			"name": "mouseOfOwnerByIndex",
			"outputs": [
				{
					"internalType": "uint256",
					"name": "tokenId",
					"type": "uint256"
				}
			],
			"stateMutability": "view",
			"type": "function"
		},
		{
			"inputs": [
				{
					"internalType": "address",
					"name": "",
					"type": "address"
				},
				{
					"internalType": "address",
					"name": "from",
					"type": "address"
				},
				{
					"internalType": "uint256",
					"name": "",
					"type": "uint256"
				},
				{
					"internalType": "bytes",
					"name": "",
					"type": "bytes"
				}
			],
			"name": "onERC721Received",
			"outputs": [
				{
					"internalType": "bytes4",
					"name": "",
					"type": "bytes4"
				}
			],
			"stateMutability": "pure",
			"type": "function"
		},
		{
			"inputs": [],
			"name": "owner",
			"outputs": [
				{
					"internalType": "address",
					"name": "",
					"type": "address"
				}
			],
			"stateMutability": "view",
			"type": "function"
		},
		{
			"inputs": [
				{
					"internalType": "uint256",
					"name": "",
					"type": "uint256"
				},
				{
					"internalType": "uint256",
					"name": "",
					"type": "uint256"
				}
			],
			"name": "pack",
			"outputs": [
				{
					"internalType": "uint16",
					"name": "tokenId",
					"type": "uint16"
				},
				{
					"internalType": "uint80",
					"name": "value",
					"type": "uint80"
				},
				{
					"internalType": "address",
					"name": "owner",
					"type": "address"
				}
			],
			"stateMutability": "view",
			"type": "function"
		},
		{
			"inputs": [
				{
					"internalType": "uint256",
					"name": "",
					"type": "uint256"
				}
			],
			"name": "packIndices",
			"outputs": [
				{
					"internalType": "uint256",
					"name": "",
					"type": "uint256"
				}
			],
			"stateMutability": "view",
			"type": "function"
		},
		{
			"inputs": [],
			"name": "paused",
			"outputs": [
				{
					"internalType": "bool",
					"name": "",
					"type": "bool"
				}
			],
			"stateMutability": "view",
			"type": "function"
		},
		{
			"inputs": [
				{
					"internalType": "uint256",
					"name": "seed",
					"type": "uint256"
				}
			],
			"name": "randomWolfOwner",
			"outputs": [
				{
					"internalType": "address",
					"name": "",
					"type": "address"
				}
			],
			"stateMutability": "view",
			"type": "function"
		},
		{
			"inputs": [],
			"name": "renounceOwnership",
			"outputs": [],
			"stateMutability": "nonpayable",
			"type": "function"
		},
		{
			"inputs": [
				{
					"internalType": "uint256[]",
					"name": "tokenIds",
					"type": "uint256[]"
				}
			],
			"name": "rescue",
			"outputs": [],
			"stateMutability": "nonpayable",
			"type": "function"
		},
		{
			"inputs": [],
			"name": "rescueEnabled",
			"outputs": [
				{
					"internalType": "bool",
					"name": "",
					"type": "bool"
				}
			],
			"stateMutability": "view",
			"type": "function"
		},
		{
			"inputs": [
				{
					"internalType": "bool",
					"name": "_paused",
					"type": "bool"
				}
			],
			"name": "setPaused",
			"outputs": [],
			"stateMutability": "nonpayable",
			"type": "function"
		},
		{
			"inputs": [
				{
					"internalType": "bool",
					"name": "_enabled",
					"type": "bool"
				}
			],
			"name": "setRescueEnabled",
			"outputs": [],
			"stateMutability": "nonpayable",
			"type": "function"
		},
		{
			"inputs": [],
			"name": "totalAlphaStaked",
			"outputs": [
				{
					"internalType": "uint256",
					"name": "",
					"type": "uint256"
				}
			],
			"stateMutability": "view",
			"type": "function"
		},
		{
			"inputs": [],
			"name": "totalSheepStaked",
			"outputs": [
				{
					"internalType": "uint256",
					"name": "",
					"type": "uint256"
				}
			],
			"stateMutability": "view",
			"type": "function"
		},
		{
			"inputs": [],
			"name": "totalWoolEarned",
			"outputs": [
				{
					"internalType": "uint256",
					"name": "",
					"type": "uint256"
				}
			],
			"stateMutability": "view",
			"type": "function"
		},
		{
			"inputs": [
				{
					"internalType": "address",
					"name": "newOwner",
					"type": "address"
				}
			],
			"name": "transferOwnership",
			"outputs": [],
			"stateMutability": "nonpayable",
			"type": "function"
		},
		{
			"inputs": [],
			"name": "unaccountedRewards",
			"outputs": [
				{
					"internalType": "uint256",
					"name": "",
					"type": "uint256"
				}
			],
			"stateMutability": "view",
			"type": "function"
		},
		{
			"inputs": [],
			"name": "woolPerAlpha",
			"outputs": [
				{
					"internalType": "uint256",
					"name": "",
					"type": "uint256"
				}
			],
			"stateMutability": "view",
			"type": "function"
		}
	]
}